:0600000002008B02280A39
:01000B0032C2
:0100130032BA
:03001B00021925A2
:0100230032AA
:01002B0032A2
:03003300021CC5E7
:01003B003292
:01004300328A
:03004B00022F5F22
:030053000206BAE8
:03005B0002099EF9
:01006300326A
:03006B00021CC6AE
:03007300021A5519
:01007B003252
:03008300022B1E2F
:0301110002008663
:030086000218E974
:10011400AF83E58290F554F0EFA3F075E10490DF2E
:100124003BE0FFBF01F890F554E0FEA3E0FF90DF51
:1001340006EEF075E10290DF3BE0FFBF0DF8227E92
:10014400007F0090FDE4E0FCA3E0FD8E028F03C37A
:10015400EA9CEB9D503AEE2400FCEF34F0FD90FD58
:10016400E2E0F514A3E0F5158A828B83C007C0068C
:10017400C005C004123494AA82AB83D004D005D045
:1001840006D0078C828D83EAF00EBE00B60F80B3D2
:1001940022E58290F556F0FFE59CC39FF59CE59C13
:1001A40024FAF59C439E10D2BA22AF9E74EF5FF5F9
:1001B4009E22AF83E58290F55AF0EFA3F090FDDD27
:1001C400E060139036561221F890FDDDE0F58212BE
:1001D400223A7582EF2290FDDD7406F090DF3BE059
:1001E400FFBF130280F6C2A490F557E0FEA3E0FF20
:1001F40090FE44EEF0EFA3F090FE3E74F1F0E4A321
:10020400F090FDD47472F074F3A3F090FE3CE4F02B
:10021400E4A3F090FDEFE4F090FE38F090FDEEF0F2
:1002240090FE3A7401F0E4A3F090FE397402F09069
:10023400F55CE4F090000012035590F55AE0FEA33B
:10024400E0FF90F559E0FD7B007C008D017A00C34E
:10025400EB99EC9A50548B02EA75F0F0A42EF9E471
:100264003FFA90F55C74F0F089828A83C007C00677
:10027400C005C004C003120355AA82D003D004D021
:1002840005D006D007EA601B9036A8C0021221F8F8
:10029400D00290FDDDE4F08A82C00212223AD0023C
:1002A4008A82220BBB00A40C80A190FE47E0FF30A1
:1002B400E33390FE44E0FEA3E0FFEE540F6026908B
:1002C400FE44E0FEA3E053060F7F007410C39EFEBD
:1002D400E49FFF90FE44E0FCA3E0FD90FE44EE2C7E
:1002E400F0EF3DA3F090FE44E0FEA3E0FF60209019
:1002F400FE44E0FEA3E090DF02EEF090DF04E05461
:10030400FCF0E0FF4402F090FE467401F08012908D
:10031400FE44E0FEA3E0FF90DF02EEF090FE46E430
:10032400F075E1037E607FEA90DF3BE0FDBD1302E0
:1003340080091EBEFF011FEE4F70EDD2A4EE4F7078
:100344000C90FE027413F09036C01221F8758200EE
:1003540022AF83E58290F55DF0EFA3F090F55CE0C9
:10036400FF240F500A9036D11221F87582FF22EF34
:10037400703E90FDEEE4F090FDEEE0FE90FE39E07C
:10038400FDC3EE9D502190FDEEE075F0F1A42472C2
:10039400F58274F335F0F583E4F090FDEEE0FE0EA3
:1003A40090FDEEEEF080D090FDEEE4F07582002238
:1003B40090FDDDE0FE601DBE061E90FDEEE06018BF
:1003C40090DF3BE0FEBE1302800E90FDDD7407F06B
:1003D4007582ED227582ED2290FDEEE075F0F1A4B8
:1003E4002472FD74F335F0FE8D828E83E0600A90F2
:1003F400FE027418F07582FE228D828E8374FFF0E3
:1004040090FDEEE075F0F1A42472FD74F335F0FE76
:100414000DBD00010E7C0090F55DE0FAA3E0FB8ABF
:10042400148B157516008F037F008B178F188D8220
:100434008E838CF0C007C0031233BBD003D0079067
:10044400FE47E0FE20E3030204FE90FDEEE075F0BB
:10045400F1A42472FD74F335F0FE0DBD00010E907D
:10046400FE19EBF0EFA3F08D828E831230D9AE82A9
:1004740090F55CEEF090FE47E0FF530704BF043FA5
:1004840090FDEEE075F0F1A42472FD74F335F0FFF5
:100494000DBD00010F8E037C0090FE47E0FA53026D
:1004A400F090FE1DEDF0EFA3F090FE1FEBF0ECA337
:1004B400F090FE21EAF08D828F83123113803B90FD
:1004C400FDEEE075F0F1A42472FD74F335F0FF0D38
:1004D400BD00010F7C0090FE47E0FB5303F090FE4B
:1004E40024EDF0EFA3F090FE26EEF0ECA3F090FEE6
:1004F40028EBF08D828F8312315C90FDEEE075F075
:10050400F1A42472FE74F335F0FF90F55CE0FD8EE7
:10051400828F83F090FDEEE0FF0F90FDEEEFF09000
:10052400FE39E0FEEFB5060590FDEEE4F0758200BD
:1005340022AF83E58290F55FF0EFA3F090FDDDE05C
:10054400FF6014BF0102800F9036EB1221F890FD7A
:10055400DDE0F58212223A1201AE90FDE6E4F0E409
:10056400A3F090FDE6E0FEA3E0FF8E828F831206E7
:100574003990DF3BE0FFBF0DF890DF3AE0FF53070F
:100584007FBF6000402790FDE6E0FEA3E0FF0EBEC3
:1005940000010F90FDE6EEF0EFA3F0D2A490000A64
:1005A400122DD3C2A490000A122DD380B590FDDD84
:1005B4007402F090FE03E0FCA3E0FDA3E0A3E0904E
:1005C400FDE8ECF0EDA3F090F55FE0FEA3E0FF9012
:1005D400FDECEEF0EFA3F02290FDDDE4F090FE03DD
:1005E400E0FCA3E0FDA3E0A3E090FDE8ECF0EDA3C4
:1005F400F02290FDDD7404F090FE03E0FCA3E0FD26
:10060400A3E0A3E090FDE8ECF0EDA3F02290FDDD83
:100614007405F090FDF0E4F0E4A3F090FE03E0FC38
:10062400A3E0FDA3E0A3E090FDE8ECF0EDA3F075FA
:100634008200020195AF83E58290F561F0EFA3F0AB
:1006440090F561E0FEA3E0FFEE2400F582EF34F0C4
:10065400F583E0FF7E008F828E83020114AF83E571
:100664008290F563F0EFA3F090F563E0FEA3E0FF62
:1006740090F370EEF0EFA3F0222290FDE6E0FEA3EB
:10068400E0FF0EBE00010F90FDE6EEF0EFA3F0C315
:10069400EE9470EF9403400890FDE6E4F0E4A3F0D8
:1006A40090FDE6E0FEA3E0FFEE2400F582EF34F0D7
:1006B400F583E0F58222C021C0E0C0F0C082C0838F
:1006C400C007C006C005C004C003C002C001C0000A
:1006D400C0D075D00090FDD9E02401F0A3E034002F
:1006E400F090FDDEE0FEA3E0FF90FDD9E0FCA3E086
:1006F400FDECB5060CEDB5070890FDD9E4F0E4A3D4
:10070400F090FDD9E0FEA3E0FFBE0005BF0002802B
:100714000BBE0105BF0002806902088290FDD9E08A
:10072400FEA3E08E077E00AC9C7D00EC4206ED4209
:100734000790FDEAEEF0EFA3F090FDE6E0FEA3E003
:10074400FF0EBE00010F90FDE6EEF0EFA3F090FD6A
:10075400E4E0FCA3E0FDC3EE9CEF9D400890FDE6C1
:10076400E4F0E4A3F090DF3BE0FFBF130302098150
:1007740090FDE6E0FEA3E0FF8E828F83120639022D
:10078400098190FDDDE0FFBF05028003020981902D
:100794000019122DD390F567741CF090FDE6E0FE6D
:1007A400A3E090F568EEF090FDE6E0A3E090F56933
:1007B400F090F56A7442F090F56B744CF090F56C1F
:1007C4007441F090F56D7448F090F56E7442F090B9
:1007D400F56F744CF090F5707441F090F5717448B5
:1007E400F090F5727442F090F573744CF090F574D7
:1007F4007441F090F5757448F090F5767442F09079
:10080400F577744CF090F5787441F090F57974486C
:10081400F090F57A7442F090F57B744CF090F57C8E
:100824007441F090F57D7448F090F57E7442F09038
:10083400F57F744CF090F5807441F090F581744824
:10084400F090F5827420F090FDF2741CF0E4A3F0B3
:1008540090FDF4E4F0E4A3F090FDF6E4F0E4A3F0FA
:1008640090F56812248D90FDF0E0FEA3E0FF0EBE2B
:1008740000010F90FDF0EEF0EFA3F002098190FD6E
:10088400DDE0FFBF03028065BF04028008BF0502EC
:10089400800302098190FDE8E0FEA3E0FF90FE03DF
:1008A400E0FAA3E0FBA3E0FCA3E0FD8E008F01E4EB
:1008B400FEFFEAC398FAEB99FBEC9EFCED9FFDC3A7
:1008C40074649AE49BE49CE49D50229037191221AD
:1008D400F890FDDD7405F090FE03E0FCA3E0FDA3B9
:1008E400E0FEA3E0FF90FDE8ECF0EDA3F090FDEF57
:1008F400E075F0F1A42472FE74F335F0FF8E828F5C
:1009040083E06079900019122DD390FDEFE075F02B
:10091400F1A42472FE74F335F0FF90DF04E0540177
:10092400FDB40100E4332EFDE43FFC8E828F83E0AE
:1009340090FDF2F0E4A3F090FDF4E4F0E4A3F09071
:10094400FDF6E4F0E4A3F08D828C8312248D90FDF7
:10095400EFE075F0F1A42472F58274F335F0F583B9
:10096400E4F090FDEFE0FF0F90FDEFEFF0BF020029
:10097400400590FDEFE4F09037371221F8D0D0D045
:1009840000D001D002D003D004D005D006D007D0C7
:1009940083D082D0F0D0E0D021323290FDDDE4F07B
:1009A40090FDEEF090FDEFF090FDE6F0E4A3F09002
:1009B400FDE27453F0E4A3F090FDE47453F0E4A377
:1009C400F090FDEAE4F0E4A3F090FDE8E4F0E4A3A1
:1009D400F090FDDE7406F0E4A3F090FDE0E4F0E4B2
:1009E400A3F090FDECE4F0E4A3F090FDF0E4F0E477
:1009F400A3F012014390FDDDE4F0759DDC859E9E1D
:100A0400439E0443CB102202099F900E34121CC84B
:100A140090FE03E4F0E4A3F0E4A3F0E4A3F0120AEC
:100A24000B90F583E4F090F58474CEF074F9A3F0A0
:100A34002290FDDDE0FFBF0003020D69BF01030248
:100A44000C3ABF0203020B38BF0303020D69BF0453
:100A540003020D69BF0503020D4ABF060122BF4010
:100A6400028006BF410280412275E10490DF3BE031
:100A7400FFBF01F890DF0374E5F090DF047404F025
:100A840090DF077412F090DF08E4F090DF14741024
:100A9400F090DF17E0FF44C0F090FDDD7441F0906A
:100AA400F58474CEF074F9A3F090F583E4F090FD2E
:100AB400F0E0FEA3E0FF90F583E0FDFB7C00C3EBD8
:100AC4009EEC9F504590DF06EDF075E10490DF3B0E
:100AD400E0FFBF01F875E10290DF3BE0FFBF0DF8D6
:100AE400900002122DD390F584E0FEA3E0FF90F570
:100AF40083E02EFEE43FFF90DF3AE0FD8E828F8399
:100B0400F090F583E02401F080A475E10490DF3BCC
:100B1400E0FFBF01F890FDF0E0FEA3E08E387539E8
:100B24000090F584E0F53AA3E0F53B753701758252
:100B340043021C70E50F7003020C2890FE01740D33
:100B4400F0AF9A74FE5FF59AE50F20E403020C28D7
:100B540090FDDD7403F090FDDBE0FEA3E08E8212D5
:100B640001959037451221F890FDDBE0FEA3E0FFEC
:100B74008E828F8312225590F9CDE025E0FEE42485
:100B8400CEFFEE34F9FE8F828E831221F890F9CDD8
:100B9400E0FFB40100E433FF90F583F0EF24D2FDCD
:100BA400E434FDFE8D828E83E0707290DF04E0FEFB
:100BB40030E0378F06EE2EFDE424CEF582ED34F9D5
:100BC400F583E0FE8E387539008F06EE2EFDE424A1
:100BD400CEFEED34F9FD74012EF53AE43DF53B7596
:100BE4003701758242121C70802290DF02E0FE8E73
:100BF40038E4F539EF2FFEE424CEFFEE34F9FE8F0E
:100C04003A8E3B753701758242121C7090F583E071
:100C1400FF24D2F582E434FDF5837401F0AF0F7440
:100C2400EF5FF50FD20010AF02C200750F00A200F3
:100C340092AF439A0122E50F7003020D3890FE0132
:100C4400740DF0AF9A74FE5FF59AE50F20E4030289
:100C54000D3890F9CDE0FF90F583B40100E433F052
:100C640090375A1221F890F583E025E0FEE424CE73
:100C7400FFEE34F9FE8F828E8312225590F583E0C5
:100C840025E0FEE424CEFFEE34F9FE8F828E83123B
:100C940021F890F9CDE0FFB40100E433FF90F5832F
:100CA400F0EF24D2FDE434FDFE8D828E83E0707279
:100CB40090DF04E0FE30E0378F06EE2EFDE424CE14
:100CC400F582ED34F9F583E0FE8E387539008F0630
:100CD400EE2EFDE424CEFEED34F9FD74012EF53A3A
:100CE400E43DF53B753701758242121C70802290F9
:100CF400DF02E0FE8E38E4F539EF2FFEE424CEFF68
:100D0400EE34F9FE8F3A8E3B753701758242121C20
:100D14007090F583E0FF24D2F582E434FDF583740A
:100D240001F0D20010AF02C200AF0F74EF5FF50FF5
:100D3400A20092AFD20010AF02C200750F00A20051
:100D440092AF439A012290FDF0E0FEA3E0FF90FDF4
:100D5400E4E0FCA3E0FDC3EE9CEF9D50012290FD76
:100D6400DD7404F022E50F70012290FE01740DF091
:100D7400E50F543070012290F9CDE0FFB40100E496
:100D840033FF90F583F0EF24D2FDE434FDFE8D8231
:100D94008E83E06003020E2190DF04E0FE30E03732
:100DA4008F06EE2EFDE424CEF582ED34F9F583E0D2
:100DB400FE8E387539008F06EE2EFDE424CEFEED4E
:100DC40034F9FD74012EF53AE43DF53B75370175B0
:100DD4008242121C70803590FE33E0FE600A90FE61
:100DE40036E0FDA3E0FE800890DF02E0FCFD7E001B
:100DF400EF2FFCE424CEFFEC34F9FC8F3A8C3B75E6
:100E040037018D388E39758242121C7090F583E05B
:100E1400FF24D2F582E434FDF5837401F0D200108E
:100E2400AF02C200AF0F74CF5FF50FA20092AF22E2
:100E340090F995E0FDA3E0FEA3E0FF90F99AE0FCB1
:100E4400BC420280030217BF90F99BE0FC24BE5011
:100E5400030217B1EC240A83F582EC244683F5835C
:100E6400E473B1B13A76B1EF9BB9CC053E63A645C4
:100E7400B1B1FE7DA4173C4FC32F64B1B1B1B1B180
:100E8400B1B1169FE6D4F7B1B1B1B1B1B1B1B1B15D
:100E9400B1B1B1B1B1B1B1B1B1B1B1B1B1B1B1B13E
:100EA400B1B1EA2417170F11170F101010111111F7
:100EB40011121717141515161616161415171717D9
:100EC40017171717171716151517171717171717B3
:100ED400171717171717171717171717171717179E
:100EE400171717170E0FC007C006C0051201AED0A2
:100EF40005D006D00790FDDD7440F08D828E838F7F
:100F0400F01235F3FC7B0090FDF0ECF0EBA3F090D5
:100F1400F9A5EDF0EEA3F0758201121CCF0217BF04
:100F240090FDDDE4F090F9A5EDF0EEA3F0758201FB
:100F3400121CCF0217BF90FDDDE0600990377412D8
:100F440021F80217BF8D828E838FF01235F3FC7B5C
:100F54000090F586ECF0EBA3F08D828E83A3E0FA8B
:100F6400E42CFCEA3BFB90F586ECF0EBA3F08D82DD
:100F74008E83A3A3A3A3E0FA8A087509008D828E49
:100F840083A3A3A3A3A3E0FAE42508F508EA35099B
:100F9400F50990FDD6E4F0E4A3F074062DF9E43EDF
:100FA400FA90FDF2ECF0EBA3F090FDF4E4F0E4A38E
:100FB400F090FDF6E508F0E509A3F089828A83C084
:100FC40007C006C00512248DAC82D005D006D00718
:100FD4008D828E838FF0EC12345C90F9A5EDF0EEE7
:100FE400A3F0758201121CCF0217BF8D828E838FEE
:100FF400F01235F390FE36F0E4A3F08D828E83A3D5
:10100400E0FB7C0090FE36E0F9A3E0FA90FE36ECBB
:1010140029F0EB3AA3F090FE36E0FBA3E0FC4B6032
:101024004090FE337401F090FE34E0FBA3E0FC4BEF
:1010340070461223C290FE36E0FBA3E0FC90FE341F
:10104400EBF0ECA3F090FE34E0FBA3E090DF02EBC6
:10105400F090DF04E054FCF0E04402F012237E80C0
:101064001790FE33E4F090FE34F0E4A3F090FE36E3
:10107400E4F0E4A3F01223C290F99AE0FC90F99B07
:10108400E0F537753A36753BFE7538017539008CD5
:1010940082121C700217BF8D828E838FF01235F37B
:1010A40090FE47F090F9A5EDF0EEA3F075820112E1
:1010B4001CCF0217BF90F9A57447F074FEA3F07516
:1010C4008201121CCF0217BF90FE47E0FC5304F0CC
:1010D40090FE157406F090FE16ECF08D828E838FD0
:1010E400F0C007C006C005123081D005D006D00775
:1010F40090F9A5EDF0EEA3F0758210121CCF021743
:10110400BF90FE47E0FC5304F090FE157404F09089
:10111400FE16ECF08D828E838FF0C007C006C005EA
:10112400123081D005D006D00790F9A5EDF0EEA3DA
:10113400F0758210121CCF0217BF8D828E838FF040
:101144001235F390FE48F090FE48E05401F090F917
:10115400A5EDF0EEA3F0758201121CCF0217BF902B
:10116400F9A57448F074FEA3F0758201121CCF0235
:1011740017BF8D828E838FF01235F3FC7B008C8237
:101184008B83C007C006C005120661D005D006D007
:101194000790F9A5EDF0EEA3F0758201121CCF02C1
:1011A40017BF90FDDDE0601C8D828E838FF074EF9D
:1011B40012345C90F9A5EDF0EEA3F0758201121CD7
:1011C400CF0217BF8D828E838FF01235F3FC7B0024
:1011D40090F586ECF0EBA3F08D828E83A3E0FAE425
:1011E4002CFCEA3BFB90F586ECF0EBA3F08D828EB1
:1011F40083A3A3E0FA90FDD6E4F0E4A3F074032DF6
:10120400F8E43EF990F557ECF0EBA3F090F559EAC9
:10121400F088828983C007C006C0051201B6AC827B
:10122400D005D006D0078D828E838FF0EC12345C0B
:1012340090F9A5EDF0EEA3F0758201121CCF021710
:10124400BF8D828E838FF01235F3FB7C0090F58680
:10125400EBF0ECA3F0EB4C600302134090FE44E08F
:10126400F9A3E0FA49601C90DF3BE0FABA1314904A
:101274000028C007C006C005122DD3D005D006D063
:101284000780D990FE44E0F9A3E0FA49606B9037F7
:1012940099C007C006C0051221F890FE44E0F9A3E6
:1012A400E0FA89828A8312225590F372E0F5821261
:1012B400223A90F463E0F58212223AD005D006D0A7
:1012C4000790FE027412F08D828E838FF074EC12FC
:1012D400345CC2A4C007C006C005122359D005D08F
:1012E40006D00790FDDDE4F090F9A5EDF0EEA3F053
:1012F400758201121CCF0217BFC2A490FDDDE4F079
:101304008D828E838FF0E412345C9037ADC007C0B9
:1013140006C0051221F890FDD6E0F9A3E0FA89820F
:101324008A83122255D005D006D00790F9A5EDF096
:10133400EEA3F0758201121CCF0217BF90FDDDE011
:10134400FABA060280619037BDC007C006C0051214
:1013540021F8D005D006D00790FE02E0FABA121B9D
:101364008D828E838FF074EC12345C90F9A5EDF0CD
:10137400EEA3F0758201121CCF801F90FE02741739
:10138400F08D828E838FF074EF12345C90F9A5EDAA
:10139400F0EEA3F0758201121CCFC2A4122359905F
:1013A400FDDDE4F00217BF74012DF9E43EFA90F577
:1013B4005CEBF089828A83C007C006C0051203551E
:1013C400AC82D005D006D0078D828E838FF0EC12CC
:1013D400345C8D828E838FF01235F3FBEC603BBB63
:1013E400FE0280369037C6C007C006C0051221F839
:1013F400D005D006D0078D828E838FF01235F3F599
:1014040082C007C006C00512223AC2A4122359D0D2
:1014140005D006D00790FDDDE4F090F9A5EDF0EEDF
:10142400A3F0758201121CCF0217BF8D828E838FA9
:10143400F01235F3FB7C0090F586EBF0ECA3F0C3DF
:1014440074F09BE49C50199036D11221F890F9A5C0
:101454007486F074F5A3F0758201121CCF0217BFD5
:1014640090FDEEE075F0F1A42472F974F335F0FA0E
:1014740089828A83E060199037D31221F890F9A504
:101484007486F074F5A3F0758201121CCF0217BFA5
:101494008B0089828A83E8F090FDEEE075F0F1A478
:1014A4002472F974F335F0FA09B900010A890A8A39
:1014B4000B750C0074012DF9E43EFA89148A157534
:1014C40016008B178C18850A82850B83850CF01205
:1014D40033BB90FDEEE0FC0C90FDEEECF0BC0200A2
:1014E400400590FDEEE4F090F9A57486F074F5A340
:1014F400F0758201121CCF0217BF8D828E838FF08C
:101504001235F3FC7B0090FDE2ECF0EBA3F090FDD0
:10151400E2E0F9A3E0FAC374709C74039B402E7458
:10152400022DFBE43EFC8B148C1575160089178A7A
:101534001890F00075F0001233BB90F9A574E2F036
:1015440074FDA3F0758202121CCF0217BF90F9A597
:1015540074F4F07437A3F0758208121CCF0217BF1D
:1015640090FDE2E0FBA3E090F9A57400F074F0A311
:10157400F08B82121CCF0217BF12067E7B008B8376
:1015840012063990FDE6E0FBA3E0FC90F9A5EB24FC
:1015940000F0EC34F0A3F0758201121CCF0217BFE7
:1015A4008D828E838FF01235F3FC7B008C828B83CB
:1015B400C007C006C005120114D005D006D007909C
:1015C400F9A5EDF0EEA3F0758201121CCF0217BF4E
:1015D400758200C007C006C005120195D005D0066B
:1015E400D00790F9A5EDF0EEA3F0758201121CCF9F
:1015F4000217BFC007C006C0051201AED005D00651
:10160400D00790F9A5EDF0EEA3F0758201121CCF7E
:101614000217BF8D828E838FF01235F3FC7B00900E
:10162400FDDEECF0EBA3F090F9A5EDF0EEA3F07580
:101634008201121CCF0217BF90F9A574DEF074FD6D
:10164400A3F0758204121CCF0217BF8D828E838F84
:10165400F0C007C006C0051221B7D005D006D007D8
:101664008D828E838FF01235F3F582C007C006C0D9
:101674000512223AD005D006D0077BDD7CFD7A0026
:101684008D828E838FF01235F3F8790088148915D2
:101694007516007517157518008B828C838AF0C037
:1016A40007C006C0051233BBD005D006D00790F999
:1016B400A5EDF0EEA3F0758215121CCF0217BF90B2
:1016C400FDD9E0FBA3E0FC90FDE0EBF0ECA3F0908F
:1016D400F9A574DDF074FDA3F0758215121CCF0218
:1016E40017BF8D828E838FF01235F3FC7B008C82C2
:1016F4008B83C007C006C005120535D005D006D0BF
:101704000790F9A5EDF0EEA3F0758201121CCF024B
:1017140017BF90FE03E0F9A3E0FAA3E0A3E090FD75
:10172400E8E9F0EAA3F08D828E838FF01235F3FCA2
:1017340090FDDDF090FDDDE0FBEC24FA404DEB2B59
:101744002B9017497302175B02175B02175B021792
:101754007D02177D02176CC007C006C0051201AEDA
:10176400D005D006D0078023C007C006C0051206E6
:1017740011D005D006D0078012758200C007C006BC
:10178400C005120195D005D006D00790F9A5EDF05B
:10179400EEA3F0758201121CCF802090F9A574DDB0
:1017A400F074FDA3F0758201121CCF800E90F9A590
:1017B400EDF0EEA3F0758201121CCF9000002222FE
:1017C400229000002290DF2FE4F090DF30F090DFD1
:1017D40031F090DF00740CF090DF01744EF090DF74
:1017E4000274FFF090DF037440F090DF04E4F090A3
:1017F400DF05F090DF06F090DF077406F090DF0855
:10180400E4F090DF097424F090DF0A743AF090DF7A
:101814000B74F1F090DF0C74CAF090DF0D74A3F038
:1018240090DF0E7401F090DF0F7423F090DF1074DA
:1018340011F090DF117436F090DF127407F090DF2E
:1018440013740FF090DF147418F090DF157417F010
:1018540090DF16746CF090DF177403F090DF187447
:1018640040F090DF197491F090DF1A7456F090DF15
:101874001B7410F090DF1C74E9F090DF1D742AF0E3
:1018840090DF1EE4F090DF1F741FF090DF23748854
:10189400F090DF247431F090DF257409F090DF2E8E
:1018A40074C0F090DF07740CF090DF097425F09099
:1018B400DF0A7495F090DF0B7455F090DF1A74B65C
:1018C400F090DF1B7410F090DF1C74EAF090DF1DC1
:1018D400742AF090DF1EE4F090DF1F741FF02212D0
:1018E4002F1D022F491218E3D2A4D2A312229FC2A1
:1018F400A3122F86C2A4121B901223F9120A0E12ED
:101904001C6AD2AF121CC7D2A4900002122DD3C2FB
:10191400A490000A122DD3D2A4121BD8120A358027
:01192400F8CA
:1036560043616E6E6F742063616C6C207472616E70
:10366600736D69745F6C6F6E67207768696C65202F
:103676004648535320486F7070696E67206F7220FA
:10368600616C72656164792070726F6365737369CA
:103696006E67207472616E736D69745F6C6F6E67AE
:1036A60021004D41435F7478282920726574757234
:1036B6006E6564206572726F72006E657665722043
:1036C600656E746572656420545800464853537895
:1036D6006D6974206D65737361676520746F6F2003
:1036E6006C6F6E670046485353207374617465208F
:1036F600656E746572696E672053594E4348494E2C
:10370600472066726F6D2077726F6E6720737461E3
:1037160074650053594E43485F4D415354455220FA
:103726002D3E2053594E43494E474D415354455221
:103736000046485353786D697420646F6E65006E59
:103746006574776F726B207061636B65742873792B
:103756006E6329006E6574776F726B207061636BA0
:10376600657428646973636F76657279290063727C
:1037760061702C20706C65617365207573652046D9
:10378600485353786D6974282920696E737465618E
:1037960064210064726F706F75742066696E616C67
:1037A60020776169742100746F74616C206279748A
:1037B60065732074783A00756E64657272756E0072
:1037C600627566666572206572726F7200737469DF
:1037D6006C6C2077616974696E67206F6E207468FF
:1037E60065206C617374207061636B6574004E4F65
:0637F600204445414C0097
:1000E400E4F522F523E4F524F525E4F526F527E4E3
:1000F400F528F529E4F52AF52BE4F52CF52DE4F59E
:0801040031F532E4F533F53466
:10192500C021C0E0C0F0C082C083C007C006C005AA
:10193500C004C003C002C001C000C0D075D000AF54
:10194500F9E5307012BF990F852833852934753034
:10195500018533F9021A387401B530348F31E4F555
:1019650032F522F5238F057E00ED24FEFDEE34FFD2
:10197500FE90F998EDF0EEA3F0E53145327006E5FD
:1019850033453460057530028003753000021A381E
:101995007402B530028003021A38C3E5229531E599
:1019A5002395324003021A38E5224523700790F942
:1019B5009AEFF080397401B52206E4B5230280025E
:1019C500800790F99BEFF0802590F995E0FCA3E066
:1019D500FDA3E0FEE52224FEFAE52334FFFBEA2C15
:1019E500FCEB3DFD8C828D838EF0EF12345C74012F
:1019F5002522F522E43523F523E531B52210E5321C
:101A0500B5230BE4F531F532752E01752F00E5335D
:101A150045347008E53145327002F530E52E452F25
:101A2500601190F99EE04402F0D2A3121D00E4F586
:101A35002EF52FD0D0D000D001D002D003D004D0C5
:101A450005D006D007D083D082D0F0D0E0D02132A7
:101A5500C0E0C082C083C007C0D075D000AFE874B5
:101A6500FB5FF5E87401B5300280057402B5306B93
:101A7500E53345346060E5284529605A153374FF20
:101A8500B533021534E53345347008E53145327018
:101A950002F530E52C2488F582E52D34F5F583E053
:101AA500F5F9152874FFB528021529E5284529708B
:101AB5000890F99EE054FEFFF07401252CF52CE406
:101AC500352DF52DC3E52C9404E52D9402400FE446
:101AD500F52CF52D800875F999800375F999D0D005
:101AE500D007D083D082D0E03222AF82C3E52894DC
:101AF50004E52994024024152874FFB52802152908
:101B05007401252CF52CE4352DF52DC3E52C940415
:101B1500E52D94024005E4F52CF52DE52A2488F5FC
:101B250082E52B34F5F583EFF07401252AF52AE4D7
:101B3500352BF52BC3E52A9404E52B94024005E4E7
:101B4500F52AF52B74012528F528E43529F5299082
:101B5500F99EE04401F0227582FF227582FF22AFD3
:101B65008874F75FF588D2ABAFE874FB5FF5E8439F
:101B75009A0822AF8874F75FF588C2ABAFE874FBAB
:101B85005FF5E8AF9A74F75FF59A22AFF174FE5FDF
:101B95004402F5F143F4F0AFFE740F5FF5FEAFF8C4
:101BA500747F5F4420F5F875FA3BE5FC75FC0BAFD7
:101BB5008874F75FF588D2ABAFE874FB5FF5E8434F
:101BC5009A0890F995748CF074F7A3F0E4A3F07576
:101BD50030002222AD82AE83AFF0C007C006C0053B
:101BE500121B60AC82D005D006D0078C03BC0A025C
:101BF50080118D828E838FF0EB12345CA3AD82AEA3
:101C05008380D78D828E838FF0E402345CAFF0AE93
:101C150083E58290F9A2F0EEA3F0EFA3F090F9A28C
:101C2500E0FDA3E0FEA3E0FF8D828E838FF01235E9
:101C3500F3FC60230DBD00010E90F9A2EDF0EEA3BB
:101C4500F0EFA3F08C82C007C006C005121AEFD0D2
:101C550005D006D00780D190F9A2EDF0EEA3F0EF04
:101C6500A3F0021AEE021B64021B78121AEF8537E5
:101C750082121AEF853882121AEF758200121AEF56
:101C8500AE3AAF3BAC38AD39EC4D60278E828F83D1
:101C9500E0FBA3AE82AF838B82C007C006C005C040
:101CA50004121AEFD004D005D006D0071CBCFF01E2
:101CB5001D80D5758200121AEF121AEE90000022CF
:101CC50032322285823585833622E58290F9A7F066
:101CD50090F99EE054FDF090F99AE0FF90F99BE0B1
:101CE500F53790F9A7E0FE8E3875390090F9A5E033
:101CF500F53AA3E0F53B8F82021C7090F99EE0FF58
:101D050020E1012290F995E0FDA3E0FEA3E0FF7438
:101D1500022DFDE43EFE90F9A8EDF0EEA3F090F95A
:101D250098E0FBA3E0FCEB24FEFBEC34FFFC90F910
:101D350098EBF0ECA3F090F99AE0F54274FFB54208
:101D450002800302218F90F99BE0FBBB80005003CA
:101D5500022171EB246F5003022171EB2480FA24D8
:101D65000A83F582EA241583F583E4739326BCF987
:101D7500D91031715F4871717171C7FB581D1E1FF4
:101D85001F1E2020212020212121212020218D827C
:101D95008E838FF01235F3FA74012DF53EE43EF58E
:101DA5003F8A4075410090F99CE540F0E541A3F07C
:101DB500853E82853F83E0F53E74022DF542E43E83
:101DC500F543A93E8902E42540F540EA3541F54150
:101DD50090F99CE540F0E541A3F085428285438377
:101DE500E0F88D828E83A3A3A3883C753D00E0FABD
:101DF500E4253CF53CEA353DF53D853C3A853D3BE2
:101E050090F99AE0FA90F99BE0F5378540388541DD
:101E1500398A82121C7090F99CE4F0E4A3F0022147
:101E2500878D828E838FF01235F3FA8D828E83A390
:101E35008A3C753D00E0FA74022DF542E43EF54317
:101E45008A018902E4253CF53CEA353DF53DA83C8F
:101E5500AA3D90F9A0E8F0EAA3F090F998E0F9A37B
:101E6500E0FAE924FEF53CEA34FFF53D853C408582
:101E75003D41E5404541603D90F9A0E0F53EA3E0D8
:101E8500F53F7401253EF9E4353FFA90F9A0E9F0F4
:101E9500EAA3F0854282854383E0FAA385824285E1
:101EA5008343853E82853F83EAF0154074FFB54044
:101EB50002154180BD90F99AE0FA90F99BE0F5375B
:101EC500753A9C753BF97538027539008A82121C82
:101ED5007002218790F99EE0FA20E23C8D828E8384
:101EE5008FF01235F3FA8D828E83A38A3C753D00FF
:101EF500E0FA90F9A874022DF0E43EA3F08A018976
:101F050002E4F9253CF53CEA353DF53DA83CAA3D02
:101F150090F9A0E8F0EAA3F090F99CE0F9A3E0FAC3
:101F2500893C8A3DC37440953CE4953D5006753C1B
:101F350040753D00E9C3953CF9EA953DFA90F99C59
:101F4500E9F0EAA3F090F9A8E0F540A3E0F54185B2
:101F55003C42853D43E5424543603D90F9A0E0F5AF
:101F65003EA3E0F53F7401253EF9E4353FFA90F9CB
:101F7500A0E9F0EAA3F0854082854183E0FAA385D4
:101F85008240858341853E82853F83EAF015427410
:101F9500FFB54202154380BD90F99AE0FA90F99B8E
:101FA500E0F537753A9C753BF97538027539008A45
:101FB50082121C70022187D2A4900002C007C006BD
:101FC500C005122DD3C2A4900002122DD3D005D086
:101FD50006D00790F99AE0FA90F99BE0F53790F969
:101FE50098E0F538A3E0F5398D3A8E3B8A82121CCC
:101FF50070022187753A14753B388B3775380D7526
:102005003900854282121C7002218790FE03E0F898
:10201500A3E0F9A3E0A3E0883A893B8B3775380440
:10202500753900854282121C70022187753A057543
:102035003B388B3775380F753900854282121C7015
:10204500022187753AFC753B378B37753809753929
:1020550000854282121C700221878D828E838FF04B
:102065001235F3FC74012DF9E43EFABC0202800A34
:10207500BC03028021BC0429800DC002C0011223CB
:102085007ED001D002801AC2A4C002C0011223C2B0
:10209500D001D002800BC002C00112239BD001D019
:1020A5000290F99AE0FC90F99BE0F53790F998E0F9
:1020B500F538A3E0F539893A8A3B8C82121C700207
:1020C500218790F99C7401F0E4A3F0753A36753BCD
:1020D500DF90F99AE0FC90F99BE0F53790F99CE0E8
:1020E500F538A3E0F5398C82121C7090F99CE4F068
:1020F500E4A3F00221878D028E048C017C0090FE02
:10210500077422F07438A3F07480A3F07514097570
:1021150015008A8289838CF0C007C006C005122E7F
:102125009AE5828583F0D005D006D00745F0705238
:1021350075C98090F99AE0FC90F99BE0F53790F924
:1021450098E0F538A3E0F5398D3A8E3B8C82121C68
:1021550070802F90FE01E4F090FE02F090F9A5ED5D
:10216500F0EEA3F0758202121CCF801690F998E06C
:10217500F538A3E0F5398B378D3A8E3B85428212CF
:102185001C7090F99EE054FDF022E5354536601946
:10219500853582853683120089AE82AF83EE4F7016
:1021A5001090F99EE054FDF02290F99EE054FDFF59
:0221B500F02216
:1037FC005344434376333330004558504C4F524575
:10380C005220723535333500554E494D504C454D8F
:10381C00454E5445440052455345545F4E4F570056
:1021B700AF83E58290F9AAF0EFA3F090F9AAE0FEC9
:1021C700A3E0FF7C007D008E028F038A828B83E071
:1021D700F9A3AA82AB83E960070CBC00EE0D80EB84
:1021E7007537F08C388D398E3A8F3B7582FE021C1D
:1021F70070AF83E58290F9ACF0EFA3F090F9ACE013
:10220700FEA3E0FF7C007D008E028F038A828B8312
:10221700E493F9A3AA82AB83E960070CBC00ED0D38
:1022270080EA8E3A8F3B7537F08C388D397582FE90
:10223700021C70E58290F9AEF0753AAE753BF97500
:1022470037F17538017539007582FE021C70AF834E
:10225700E58290F9AFF0EFA3F0753AAF753BF975EA
:1022670037F27538027539007582FE021C70AF822D
:10227700AE83ADF0FC90F9B1EFF0EEA3F0EDA3F073
:10228700ECA3F0753AB1753BF97537F375380475FA
:0822970039007582FE021C7083
:05010C00E4F50DF50E05
:10229F007EB57FF98FD57EB57FF98ED47EBD7FF960
:1022AF008FD37EBD7FF98ED27514007515187516F4
:1022BF000090F9B575F00002339C7403B50D06E478
:1022CF00B50E02800280047582FF22AE0DAF0E059F
:1022DF000DE4B50D02050E8E8222123410AC82ADC4
:1022EF0083AEF0FFC004C005C006C0079037BD75B0
:1022FF00F086743D123298AC82AD83AEF0FFE5816B
:10230F0024FCF581E4C0E0C0E074C0C0E07441C0BB
:10231F00E08C828D838EF0EF123530AC82AD83AEC0
:10232F00F0FFE58124FCF5818C828D838EF0EF1216
:10233F003423AC82AD83AEF090DF09EEF08D0390C5
:10234F00DF0AEBF090DF0BECF02275E10490DF3B3E
:10235F00E0FFBF01F890FDD8E0F5E190FDD8E0FF78
:10236F00BF04012290DF3BE0FFBF010280ED22900E
:10237F00FDD8E0FFBF02012290DF13E054F0F0E040
:10238F00440FF090FDD87402F00227AC90FDD8E016
:10239F00FFBF03012290DF13E054F0F0E0FF440A87
:1023AF00F090FDD87403F075E10390DF3BE0FFBFC1
:1023BF0013F82290FDD8E0FFBF04012290DF13E055
:1023CF0054F0F0AF9174EF5FF59175E10490DF3B3E
:1023DF00E0FFBF01F8AF9B74FC5FF59BAFE974EFB3
:1023EF005FF5E990FDD87404F02290FDDBE4F0E492
:1023FF00A3F090FDCEE4F0E4A3F090FDD0E4F0E480
:10240F00A3F053C6C7759D00859E9E439E0485A964
:10241F00A943B90190FDD87404F075140075150027
:10242F0075160490F9CE75F00012339C1217C9D2AD
:10243F00A87591D175E900750F00439A0175E104F4
:10244F0090DF3BE0FFBF01F8227E007F00C3EE94D8
:10245F00DCEF9405502490DF3CE0FD545060049075
:10246F00000122900032C007C006122DFBD006D00B
:10247F000774322EFEE43FFF80D390000022AF831B
:10248F00E58290FDF8F0EFA3F090FDFAE4F090DF15
:10249F0002E0FF90DF3BE0FEBE1309A2A4B392015E
:1024AF0092A480EFC2A490FE46E4F090FDF4E0FD0C
:1024BF00A3E0FE90FE3CEDF0EEA3F090FDF6E0FB06
:1024CF00A3E0FC90FE42EBF0ECA3F090FDF2E0F9FC
:1024DF00A3E0FA90FE3EE9F0EAA3F090FE40E9C3D4
:1024EF009BF0EA9CA3F090FE40E0FBA3E0FC8D1470
:1024FF008E158B828C83C007C006C005C002C00139
:10250F00123477AB82AC83D001D002D005D006D085
:10251F000790FE44EB29F0EC3AA3F0E94A705D9086
:10252F00FDF8E0FBA3E0FC8B828C83E0F88810754C
:10253F00110090FDF2E510F0E511A3F090DF04E03B
:10254F00F8530003B800028018B801028003022676
:10255F001490FDF274012510F0E43511A3F002265A
:10256F001490FDF874012BF0E43CA3F090FDF2E021
:10257F00FBA3E0FC90DF02EBF002261490DF04E0F7
:10258F00FC530403BC00028046BC010280030226F8
:10259F001490FDF8E0FBA3E0FC90FDFBE9F0EAA34B
:1025AF00F090FDFD7401F0E4A3F08B828C83C007E3
:1025BF00C002C001122D7ED001D002D00790FDF8CD
:1025CF00E0FBA3E0FC89008B828C83E8F08036ED82
:1025DF004E602D90FE44E0FDA3E090DF02EDF09001
:1025EF00DF04E054FCF090FE44E0FDA3E0FE600841
:1025FF0090DF04E0FE4402F090FE467401F0800587
:10260F0090DF02E9F0D2A890FE47E0FE20E303023C
:10261F00274290DF04E0FE530603BE010690FDFA49
:10262F007401F090FDFAE0FE90FDF8E0FCA3E0FDF0
:10263F00EE2CFAE43DFB90FDF2E0F8A3E0F990FEFA
:10264F0019E8F0E9A3F08A828B83C007C006C005A2
:10265F00C0041230D9AA82AB83D004D005D006D0E3
:10266F000790FE47E0F9530104B90448C007EE2C68
:10267F00F8E43DF990FE47E0FF5307F090FE1DE8A8
:10268F00F0E9A3F090FE1FEAF0EBA3F090FE21EF2C
:10269F00F088828983C007C006C005C004C003C08C
:1026AF0002123113D002D003D004D005D006D007C8
:1026BF00D0078046C007EE2CF8E43DF990FE47E0C6
:1026CF00FF5307F090FE24E8F0E9A3F090FE26EA0E
:1026DF00F0EBA3F090FE28EFF088828983C007C04B
:1026EF0006C005C004C003C00212315CD002D00383
:1026FF00D004D005D006D007D007EE601E90FE475D
:10270F00E0FE5306F0BE50098C828D837410F0806A
:10271F00228A068C828D83EEF0801890FE47E0FEB1
:10272F005306F0BE500890DF027410F0800590DF62
:10273F0002EAF090FDF8E0FDA3E0FE90FDD4EDF08D
:10274F00EEA3F090FE3AE4F0E4A3F075E1037D60B0
:10275F007EEA90DF3BE0FCBC130280121DBDFF013F
:10276F001EED4E6009A2A4B3920192A480E4D2A4FC
:10277F00ED4E700690FE027413F090DF3BE0FEBE4C
:10278F001310A2A4B3920192A4C007121BD8D007B2
:10279F0080E8C2A490DF02EFF075820122D2A87503
:1027AF00140075150075160290F9CE75F0001233EE
:1027BF009C90FDCEE4F0E4A3F090FDD0E4F0E4A310
:1027CF00F090FDD2E4F090FDD37401F090F9CDE4D8
:1027DF00F0AF9B74FC5FF59BAFE974EF5FF5E975A4
:1027EF00E10290DF3BE0FFBF0DF84391102290FE16
:1027FF00497401F02290FE49E4F022C021C0E0C0EC
:10280F00F0C082C083C007C006C005C004C003C0AB
:10281F0002C001C000C0D075D00090FE017411F04D
:10282F00C28990DF3BE0FFBF0D028003022949D22E
:10283F00A490FE33E0FF602790FE34E0FEA3E0FF9C
:10284F0090FE34E024FFFCA3E034FFFD90FE34EC57
:10285F00F0EDA3F0EF700890DF04E0FF54FCF09070
:10286F00FDD87402F090F9CDE025E0FEE424CEFF10
:10287F00EE34F9FE90F9CDE075F002A424CEFC748D
:10288F00FD35F0FD8C828D83E0FAA3E0FB74012A05
:10289F00F8E43BF98C828D83E8F0E9A3F0EA2FF599
:1028AF0082EB3EF583E5D9F090F9CDE075F002A407
:1028BF0024CEF58274FD35F0F583E0FEA3E0FF54DE
:1028CF00FE701A90F9CDE075F002A424CEF5827453
:1028DF00FD35F0F583E0FEA3E0FF4E701A90F9CDC1
:1028EF00E0FF75F002A424CEF58274FD35F0F58378
:1028FF0074FFF07401A3F090FE34E0FEA3E0FF4EEE
:10290F006003022B0190FE33E0FF7003022B019056
:10291F00FE36E0FEA3E0FF90FE34EEF0EFA3F09062
:10292F00FE34E0FEA3E090DF02EEF090DF04E0540F
:10293F00FCF0E0FF4402F0022B0190DF3BE0FFBF11
:10294F0013028003022B0190FE46E0FF7003022A60
:10295F009290FDEAE0FEA3E0FF0EBE00010F90FD96
:10296F00EAEEF0EFA3F090FE3AE0FEA3E0FF90FE58
:10297F003EE0FCA3E0FDEEB50406EFB505028003D3
:10298F00022A6690FE3CE0FEA3E0FF4E603790FE09
:10299F003CE0FEA3E0FFBEFF05BF0002801490FEE7
:1029AF003CE024FFFEA3E034FFFF90FE3CEEF0EF8F
:1029BF00A3F090FE42E0FEA3E0FF90FE3AEEF0EFB0
:1029CF00A3F0022A6690FE3EE0F514A3E0F5159001
:1029DF00FE38E0FF7E008F828E83123477AE82AF97
:1029EF008390FDD4E0FCA3E0FDEE2CF582EF3DF5E6
:1029FF0083E4F090FE38E02401F090FE38E0FF9081
:102A0F00FE39E0FEEFB5060590FE38E4F090FE3E8D
:102A1F00E0F514A3E0F51590FE38E0FF7E008F82FD
:102A2F008E83123477AE82AF8390FDD4E0FCA3E0A7
:102A3F00FDEE2CFEEF3DFF8E828F83E0701090FD38
:102A4F00DDE4F090FE027412F0122359C2A490FE3E
:102A5F003A7401F0E4A3F090FE44E0FEA3E0FF908F
:102A6F00FE44E024FFFCA3E034FFFD90FE44ECF0B5
:102A7F00EDA3F0BEFF21BF001E90DF04E0FF54FC6A
:102A8F00F0801490FE44E024FFFEA3E034FFFF909B
:102A9F00FE44EEF0EFA3F090FDD87403F090FE3EED
:102AAF00E0F514A3E0F51590FE38E0FF7E008F826D
:102ABF008E83123477AE82AF8390FE3AE0FCA3E0B0
:102ACF00FD90FE3AE02401F0A3E03400F0EC2EFE7E
:102ADF00ED3FFF90FDD4E0FCA3E0FDEE2CF582EF7F
:102AEF003DF583E0F5D990FDD6E02401F0A3E03465
:102AFF0000F0D0D0D000D001D002D003D004D00548
:102B0F00D006D007D083D082D0F0D0E0D02132C011
:102B1F0021C0E0C0F0C082C083C007C006C005C09E
:102B2F0004C003C002C001C000C0D075D000751230
:102B3F000090FE017410F0AE9B74FC5EF59BE5E90E
:102B4F00420FE5E930E02090FDD9E0FDA3E08D06CE
:102B5F007D00AB9C7C0090FDDBED4BF0EE4CA3F0C9
:102B6F00AEE974FE5EF5E9E5E954707003022D1BC2
:102B7F0090FDD8E0FEBE030AAE0F748F5EF50F0214
:102B8F002D1490F9CDE0FEB40100E43324D2F58288
:102B9F00E434FDF583E0FEBE01028003022CE690D3
:102BAF00FE47E0FE20E103022CBC90DF04E0FE5361
:102BBF000603BE010375120190FE47E0FE530601A6
:102BCF00BE017690F9CDE025E0FDE424CEFEED3494
:102BDF00F9FDAB127C00EB2EFEEC3DFD90F9CDE044
:102BEF00F929FAE424CEF9EA34F9FAEB29FBEC3AA5
:102BFF00FC90F9CDE075F002A424CEF58274FD357A
:102C0F00F0F583E0F9A3E0FAA8127F00E9C398F981
:102C1F00EA9FFA90FE47E0FF5307F090FE1DEBF09E
:102C2F00ECA3F090FE1FE9F0EAA3F090FE21EFF085
:102C3F008E828D83123113807490F9CDE025E0FEE2
:102C4F00E424CEFFEE34F9FEAC127D00EC2FFFED45
:102C5F003EFE90F9CDE025E0FAE424CEFBEA34F90C
:102C6F00FAEC2BFCED3AFD90F9CDE075F002A424BF
:102C7F00CEF58274FD35F0F583E0FAA3E0FBA812E0
:102C8F007900EAC398FAEB99FB90FE47E0F95301FC
:102C9F00F090FE24ECF0EDA3F090FE26EAF0EBA30B
:102CAF00F090FE28E9F08F828E8312315C90F9CD7F
:102CBF00E06401F090F9CDE0FF75F002A424CEF5A9
:102CCF008274FD35F0F583E4F0E4A3F090FDD2E4D7
:102CDF00F090FDD3F0802C90FE027412F0A2A4B3FA
:102CEF00920292A490F9CDE0FF75F002A424CEF5E4
:102CFF008274FD35F0F583E4F0E4A3F0A2A4B3925F
:102D0F000292A4C2A4AFE974CF5FF5E9E5E930E61A
:102D1F001E90FE027410F0A2A4B3920292A412238A
:102D2F0059A2A4B3920292A4AFE974BF5FF5E9E58B
:102D3F00E930E71E90FE027411F0A2A4B392029242
:102D4F00A4122359A2A4B3920292A4AFE9747F5F95
:102D5F00F5E9D0D0D000D001D002D003D004D005F7
:102D6F00D006D007D083D082D0F0D0E0D02132AFC0
:102D7F0083E58290FDFFF0EFA3F090FDFDE0FEA351
:102D8F00E0FF90FDFFE0FCA3E0FD90FDFBE0FAA368
:102D9F00E0FB8A008B011ABAFF011BE8496024EEA1
:102DAF002AF8EF3BF9E82CF8E93DF9EA2CF582EB2C
:102DBF003DF583C006C007E088828983F0D007D035
:042DCF000680CF2289
:10382C00000000000000010000000000000000008B
:07383C000000000000000085
:102DD300AE82AF831EBEFF011FC3E49EE464808FF7
:102DE300F063F08095F0500F7C4C7D041CBCFF0118
:102DF3001DEC4D70F780DD22AE82E583CE25E0CE5B
:102E030033FF1EBEFF011FC3E49EE464808FF063A3
:102E1300F08095F040EC22AE82AF83D2A49003E819
:102E2300C007C006122DD3C2A49001F4122DD3D033
:102E330006D0071513AD13ED20E754EE30E02490D0
:102E43000019C007C006C005122DD3D2A4900226D4
:102E5300122DD3C2A4900019122DD3D005D006D0C1
:102E6300078022900113C007C006C005122DD3D2DC
:102E7300A4900032122DD3C2A4900113122DD3D0EB
:102E830005D006D007EFC313CE13CEFF1D80A8C213
:102E9300A49003E8022DD3AFF0AE83E58290FE0A3F
:102EA300F0EEA3F0EFA3F090FE0AE0FDA3E0FEA393
:102EB300E0FF90FE07E0FAA3E0FBA3E0FCA814A95F
:102EC30015E8496051C000C0018D828E838FF012D6
:102ED30035F3F98A828B838CF01235F3F8E9C398C2
:102EE300F516D001D000E5166010E516F5173395F9
:102EF300E0F518851782851883220DBD00010E9019
:102F0300FE0AEDF0EEA3F0EFA3F00ABA00010B18EE
:102F1300B8FF011980AB90000022AFBE74FB5FF5D0
:102F2300BEE5BE30E6FBAFC674B85FF5C6E5C620A6
:102F3300E6FB43BE04E5BE30E6FB53C6C743E40CE1
:102F430043E401D2B922AF9A74DF5FF59AA2AFE4EA
:102F530033F452A843FF18C2A3C2A422C0E0C08224
:102F6300C083C0D090FE03E02401F0A3E03400F05E
:102F7300A3E03400F0A3E03400F0D0D0D083D082BB
:102F8300D0E0321222C9AF8290FE11EFF08FF0052C
:102F9300F07401800225E0D5F0FB90FE12F0EF758E
:102FA300F008A424B5FE74F935F0FF90FE0DEEF0A1
:102FB300EFA3F08E828F83A3A374DFF08E828F83BF
:102FC300A3A3A374B1F08E828F83A3A3A3A3A3743B
:102FD30010F074062EF582E43FF583E054E0441DBF
:102FE300F074072EF582E43FF583E0543F4440F04C
:102FF30074072EF582E43FF583E054FC4401F0129C
:1030030022C9AF8290FE13EFF08FF005F0740180B8
:103013000225E0D5F0FB90FE14F0EF75F008A42430
:10302300B5FE74F935F0FF90FE0FEEF0EFA3F08ECE
:10303300828F8374DFF08E828F83A374B2F08E82CB
:103043008F83A3A3A3A3A37410F074062EF582E4C5
:103053003FF583E054E0441EF074072EF582E43F0D
:10306300F583E054CF4410F074072EF582E43FF566
:1030730083E054FC4401F043A91043B91022AF8309
:10308300E58290FE17F0EFA3F0E5B330E3FB90FE8B
:103093000DE0FEA3E0FF90FE17E0FCA3E0FD8C0231
:1030A3008D038B028E828F83EAF090FE0DE0FEA3E8
:1030B300E0FF8E828F83A37D00ECF090FE12E0424E
:1030C300D690FE15E0FF90FE16E0FE4F4401F5B3E7
:1030D300E5B330E3FB22AF83E58290FE1BF0EFA361
:1030E300F090FE1BE0FEA3E0FF90FE19E0FCA3E0DE
:1030F300FDEC540F60158C028D030CBC00010DEA2E
:103103002EF582EB3FF583E4F080E68C828D8322FB
:10311300AF83E58290FE22F0EFA3F090FE22E0FE63
:10312300A3E0FF90FE1DE0FCA3E0FD90FE1FE0FA8C
:10313300A3E0FB90FE21E0F990FE2BECF0EDA3F071
:1031430090FE2DEAF0EBA3F090FE2FE4F090FE301A
:10315300E9F08E828F830231A6AF83E58290FE2948
:10316300F0EFA3F090FE29E0FEA3E0FF90FE24E041
:10317300FCA3E0FD90FE26E0FAA3E0FB90FE28E02E
:10318300F990FE2BECF0EDA3F090FE2DEAF0EBA30B
:10319300F090FE2F7402F090FE30E9F08E828F8360
:1031A3000231A6AF83E58290FE31F0EFA3F0E5B3E1
:1031B30030E3FB90FE31E0FEA3E0FF90FE2BE0F551
:1031C3001AA3E0F51B90FE30E0FB74505BF51990F9
:1031D300FE2FE0F94B4401FB740149F51890FE2DD5
:1031E300E0F514A3E0F515E4F516F517C3E5169518
:1031F30014E5179515400122C00390FE0DE0F8A3D6
:10320300E0FBE5162EF9E5173FFA89048A058D04DC
:1032130088828B83ECF090FE0DE0FCA3E0FD8C82B2
:103223008D83A3E9F090FE0FE0FCA3E0FD8C828D7B
:1032330083A3A3E516251AFCE517351BFD8C028D28
:10324300038B02EAF090FE0FE0FAA3E0FB8A828B85
:1032530083A3A3A3ECF090FE14E0FD90FE12E0FC28
:103263004D42D6D003E5196017E51424F0FCE515AB
:1032730034FFFDECB51609EDB517058518B38002CB
:103283008BB3E5B330E3FB74102516F516E435175D
:10329300F5170231EF12333BBC0003023502EF6036
:1032A300FA30D502B2D1E583B4FF03023518E582C3
:1032B300B4FF03023518258340072482400B0235EF
:1032C300022483145003023518F582EA8DF0A4A872
:1032D300F0EA8EF0A428F8E435F0F9EB8DF0A42899
:1032E300E935F0F9E433CA8FF0A429F9EA35F0FAA5
:1032F300EBF88EF0A429F9EA35F0FAE433FBEC8D10
:10330300F0A429F9EA35F0FAE43BFBE88FF0A42AAC
:10331300FAEB35F0FBE433CCFD8EF0A42AFAEB355F
:10332300F0FBE43CFCED8FF0A42BFBEC35F0FC2030
:10333300E7031233690234E1AA82AB83A2F7339223
:10334300D1F5826002D2F7ACF0E58124F9F8E6FD0D
:1033530008E6FE0886F008E6A2F73392D5F5836007
:0633630002D2F7AFF022D8
:0600BA00E478FFF6D8FD1A
:103369007804EC7011E58224F8500AF582E4C9CAA0
:10337900CBFCD8EF22EC7820058220E713D5820117
:1033890022C3E933F9EA33FAEB33FBEC33FCD8EA2D
:10339900158222AC82AD83AE15AF16BE0004EF6074
:1033A9000C1F0FE51412345CA3DEFADFF88C828D52
:1033B9008322AD82AE83AFF08D198E1A8F1B8514CF
:1033C9001C85151D85161EA817A9188803890418B8
:1033D900B8FF0119EB4C6025851C82851D83851E6C
:1033E900F01235F3FCA385821C85831D8D828E83A3
:1033F9008FF0EC12345CA3AD82AE8380CE85198246
:07340900851A83851BF022E8
:100098007917E94400601B7A0190382C78337593FE
:1000A800FEE493F2A308B800020593D9F4DAF275D6
:0200B80093FFB4
:10341000FCABF0AA83A982749EC2D1F582123369F3
:103420000234E17F9E12344A30D103023502C3EFE9
:103430009582500974FFF5F0F583F5822279001228
:10344000360F89828A838BF0EC22AA82AB83A2F7A3
:103450003392D1F5826002D2F7ACF02220F711301E
:10346000F6138883A88220F509F6A88375830022C5
:1034700080FEF280F5F022E5828514F0A4C582C0BA
:10348000F08515F0A4D0F025F0C5838514F0A425AF
:1034900083F58322E514451560467A01E51425E09D
:1034A000F514E515334012F515E5829514E583957D
:1034B0001540030A80E6C3E51513F515E51413F569
:1034C00014C3E5829514F5F0E58395154005F58361
:1034D00085F082C3E51513F515E51413F514DAE14B
:0134E00022C9
:1000C0007800E84400600A79007593F0E4F309D8F9
:1000D000FC7833E8440E600C790F90F000E4F0A354
:0400E000D8FCD9FA75
:02008900E4731E
:1034E100B98003EA13B34010EA2401FAE43BFBE498
:1034F1003CFC50047C800582BC000EBB000BBA0072
:1035010008E4F5F0F583F58222A2D1E582138CF06F
:1035110092F78B838A8222E4F583F58275F080F439
:10352100A2D11322E4F583F58275F0C0747F2212D3
:10353100333B30D502B2D1BF0009BC0003023525AF
:10354100023518BC0003023502E583B4FF0BE582A6
:10355100B4FF03023525023502E582B4FF030235CB
:1035610018C395835007247F400B02350224801431
:103571005003023518F582C3ED9AEE9BEF9C401182
:103581001582C3EA33F9EB33FAEC33FBE433FC8005
:1035910005E4CCCBCAF9C08275F019C3E99DEA9E56
:1035A100EB9FEC9400D5F002802D400EE99DF9EAE5
:1035B1009EFAEB9FFBEC9400FCC3B3E833F8E58281
:1035C10033F582E58333F583C3E933F9EA33FAEB63
:1035D10033FBEC33FC80C4B3E4F938FAE43582FB05
:1035E100E43583FCD082500405827C801233690269
:0235F10034F9AB
:0D008B00758143123652E582600302008643
:1035F30020F71430F6148883A88220F507E6A88301
:1036030075830022E280F7E49322E0226040F825EC
:1036130082500274FFF582E824F8501ECCCBCAF91D
:10362300E4CC24F85014CBCAF9E4CB24F8500BCAE9
:10363300F9E4CA24F8500379002224086010F8C37F
:10364300EC13FCEB13FBEA13FAE913F9D8F1227537
:03365300820022D0
:00000001FF
