:0600000002008B022782C2
:01000B0032C2
:0100130032BA
:01001B0032B2
:0100230032AA
:01002B0032A2
:03003300021C5458
:01003B003292
:01004300328A
:03004B00022ED7AB
:030053000206AAF8
:03005B0002098E09
:01006300326A
:03006B00021C551F
:01007300325A
:01007B003252
:03008300022A96B8
:0301010002008673
:030086000218D984
:10010400AF83E58290F554F0EFA3F075E10490DF3E
:100114003BE0FFBF01F890F554E0FEA3E0FF90DF61
:1001240006EEF075E10290DF3BE0FFBF0DF8227EA2
:10013400007F0090FD98E0FCA3E0FD8E028F03C3D6
:10014400EA9CEB9D503AEE2400FCEF34F0FD90FD68
:1001540096E0F514A3E0F5158A828B83C007C006E8
:10016400C005C00412340CAA82AB83D004D005D0DD
:1001740006D0078C828D83EAF00EBE00B60F80B3E2
:1001840022E58290F556F0FFE59CC39FF59CE59C23
:1001940024FAF59C439E10D2BA22AF9E74EF5FF509
:1001A4009E22AF83E58290F55AF0EFA3F090FD9183
:1001B400E060139035CE12217090FD91E0F582122B
:1001C40021B27582EF2290FD917406F090DF3BE03E
:1001D400FFBF130280F6C2A490F557E0FEA3E0FF30
:1001E40090FDF8EEF0EFA3F090FDF274F1F0E4A3CB
:1001F400F090FD887472F074F3A3F090FDF0E4F0D5
:10020400E4A3F090FDA3E4F090FDECF090FDA2F0E7
:1002140090FDEE7401F0E4A3F090FDED7402F09013
:10022400F55CE4F090000012034590F55AE0FEA35B
:10023400E0FF90F559E0FD7B007C008D017A00C35E
:10024400EB99EC9A50548B02EA75F0F0A42EF9E481
:100254003FFA90F55C74F0F089828A83C007C00687
:10026400C005C004C003120345AA82D003D004D041
:1002740005D006D007EA601B903620C00212217018
:10028400D00290FD91E4F08A82C0021221B2D00221
:100294008A82220BBB00A40C80A190FDFBE0FF30FE
:1002A400E33390FDF8E0FEA3E0FFEE540F602690E8
:1002B400FDF8E0FEA3E053060F7F007410C39EFE1A
:1002C400E49FFF90FDF8E0FCA3E0FD90FDF8EE2C28
:1002D400F0EF3DA3F090FDF8E0FEA3E0FF60209076
:1002E400FDF8E0FEA3E090DF02EEF090DF04E054BE
:1002F400FCF0E0FF4402F090FDFA7401F0801290EB
:10030400FDF8E0FEA3E0FF90DF02EEF090FDFAE4DA
:10031400F075E1037E607FEA90DF3BE0FDBD1302F0
:1003240080091EBEFF011FEE4F70EDD2A4EE4F7088
:100334000C90FDB67413F09036381221707582005B
:1003440022AF83E58290F55DF0EFA3F090F55CE0D9
:10035400FF240F500A9036491221707582FF22EF54
:10036400703E90FDA2E4F090FDA2E0FE90FDEDE071
:10037400FDC3EE9D502190FDA2E075F0F1A424721E
:10038400F58274F335F0F583E4F090FDA2E0FE0EFF
:1003940090FDA2EEF080D090FDA2E4F075820022E0
:1003A40090FD91E0FE601DBE061E90FDA2E0601867
:1003B40090DF3BE0FEBE1302800E90FD917407F0C7
:1003C4007582ED227582ED2290FDA2E075F0F1A414
:1003D4002472FD74F335F0FE8D828E83E0600A9002
:1003E400FDB67418F07582FE228D828E8374FFF040
:1003F40090FDA2E075F0F1A42472FD74F335F0FED3
:100404000DBD00010E7C0090F55DE0FAA3E0FB8ACF
:10041400148B157516008F037F008B178F188D8230
:100424008E838CF0C007C003123333D003D00790FF
:10043400FDFBE0FE20E3030204EE90FDA2E075F074
:10044400F1A42472FD74F335F0FE0DBD00010E908D
:10045400FDCDEBF0EFA3F08D828E83123051AE828E
:1004640090F55CEEF090FDFBE0FF530704BF043F02
:1004740090FDA2E075F0F1A42472FD74F335F0FF51
:100484000DBD00010F8E037C0090FDFBE0FA5302CA
:10049400F090FDD1EDF0EFA3F090FDD3EBF0ECA3E1
:1004A400F090FDD5EAF08D828F8312308B803B90E3
:1004B400FDA2E075F0F1A42472FD74F335F0FF0D94
:1004C400BD00010F7C0090FDFBE0FB5303F090FDA9
:1004D400D8EDF0EFA3F090FDDAEEF0ECA3F090FD90
:1004E400DCEBF08D828F831230D490FDA2E075F0A6
:1004F400F1A42472FE74F335F0FF90F55CE0FD8EF8
:10050400828F83F090FDA2E0FF0F90FDA2EFF090A8
:10051400FDEDE0FEEFB5060590FDA2E4F075820066
:1005240022AF83E58290F55FF0EFA3F090FD91E0B8
:10053400FF6014BF0102800F90366312217090FD9A
:1005440091E0F5821221B212019E90FD9AE4F0E44A
:10055400A3F090FD9AE0FEA3E0FF8E828F83120643
:100564002990DF3BE0FFBF0DF890DF3AE0FF53072F
:100574007FBF6000402790FD9AE0FEA3E0FF0EBE1F
:1005840000010F90FD9AEEF0EFA3F0D2A490000AC0
:10059400122D4BC2A490000A122D4B80B590FD91F0
:1005A4007402F090FDB7E0FCA3E0FDA3E0A3E090AB
:1005B400FD9CECF0EDA3F090F55FE0FEA3E0FF906E
:1005C400FDA0EEF0EFA3F02290FD91E4F090FDB7D2
:1005D400E0FCA3E0FDA3E0A3E090FD9CECF0EDA320
:1005E400F02290FD917404F090FDB7E0FCA3E0FDCF
:1005F400A3E0A3E090FD9CECF0EDA3F02290FD912C
:100604007405F090FDA4E4F0E4A3F090FDB7E0FCE1
:10061400A3E0FDA3E0A3E090FD9CECF0EDA3F07556
:100624008200020185AF83E58290F561F0EFA3F0CB
:1006340090F561E0FEA3E0FFEE2400F582EF34F0D4
:10064400F583E0FF7E008F828E83020104AF83E591
:100654008290F563F0EFA3F090F563E0FEA3E0FF72
:1006640090F370EEF0EFA3F0222290FD9AE0FEA347
:10067400E0FF0EBE00010F90FD9AEEF0EFA3F0C371
:10068400EE9470EF9403400890FD9AE4F0E4A3F034
:1006940090FD9AE0FEA3E0FFEE2400F582EF34F033
:1006A400F583E0F58222C021C0E0C0F0C082C0839F
:1006B400C007C006C005C004C003C002C001C0001A
:1006C400C0D075D00090FD8DE02401F0A3E034008B
:1006D400F090FD92E0FEA3E0FF90FD8DE0FCA3E02E
:1006E400FDECB5060CEDB5070890FD8DE4F0E4A330
:1006F400F090FD8DE0FEA3E0FFBE0005BF00028088
:100704000BBE0105BF0002806902087290FD8DE0F6
:10071400FEA3E08E077E00AC9C7D00EC4206ED4219
:100724000790FD9EEEF0EFA3F090FD9AE0FEA3E0AB
:10073400FF0EBE00010F90FD9AEEF0EFA3F090FDC6
:1007440098E0FCA3E0FDC3EE9CEF9D400890FD9A69
:10075400E4F0E4A3F090DF3BE0FFBF130302097170
:1007640090FD9AE0FEA3E0FF8E828F831206290299
:10077400097190FD91E0FFBF0502800302097190A9
:100784000019122D4B90F567741CF090FD9AE0FE51
:10079400A3E090F568EEF090FD9AE0A3E090F5698F
:1007A400F090F56A7442F090F56B744CF090F56C2F
:1007B4007441F090F56D7448F090F56E7442F090C9
:1007C400F56F744CF090F5707441F090F5717448C5
:1007D400F090F5727442F090F573744CF090F574E7
:1007E4007441F090F5757448F090F5767442F09089
:1007F400F577744CF090F5787441F090F57974487D
:10080400F090F57A7442F090F57B744CF090F57C9E
:100814007441F090F57D7448F090F57E7442F09048
:10082400F57F744CF090F5807441F090F581744834
:10083400F090F5827420F090FDA6741CF0E4A3F00F
:1008440090FDA8E4F0E4A3F090FDAAE4F0E4A3F0A2
:1008540090F56812240590FDA4E0FEA3E0FF0EBE0F
:1008640000010F90FDA4EEF0EFA3F002097190FDDA
:1008740091E0FFBF03028065BF04028008BF050248
:10088400800302097190FD9CE0FEA3E0FF90FDB798
:10089400E0FAA3E0FBA3E0FCA3E0FD8E008F01E4FB
:1008A400FEFFEAC398FAEB99FBEC9EFCED9FFDC3B7
:1008B40074649AE49BE49CE49D5022903691122146
:1008C4007090FD917405F090FDB7E0FCA3E0FDA3EA
:1008D400E0FEA3E0FF90FD9CECF0EDA3F090FDA3FF
:1008E400E075F0F1A42472FE74F335F0FF8E828F6C
:1008F40083E06079900019122D4B90FDA3E075F010
:10090400F1A42472FE74F335F0FF90DF04E0540187
:10091400FDB40100E4332EFDE43FFC8E828F83E0BE
:1009240090FDA6F0E4A3F090FDA8E4F0E4A3F09019
:10093400FDAAE4F0E4A3F08D828C8312240590FDDB
:10094400A3E075F0F1A42472F58274F335F0F58315
:10095400E4F090FDA3E0FF0F90FDA3EFF0BF0200D1
:10096400400590FDA3E4F09036AF122170D0D0D0B2
:1009740000D001D002D003D004D005D006D007D0D7
:1009840083D082D0F0D0E0D021323290FD91E4F0D7
:1009940090FDA2F090FDA3F090FD9AF0E4A3F090F6
:1009A400FD967453F0E4A3F090FD987453F0E4A31F
:1009B400F090FD9EE4F0E4A3F090FD9CE4F0E4A349
:1009C400F090FD927406F0E4A3F090FD94E4F0E45A
:1009D400A3F090FDA0E4F0E4A3F090FDA4E4F0E41F
:1009E400A3F012013390FD91E4F0759DDC859E9E89
:1009F400439E0443CB102202098F900E24121C57ED
:100A040090FDB7E4F0E4A3F0E4A3F0E4A3F012094A
:100A1400FB90F583E4F090F5847482F074F9A3F00C
:100A24002290FD91E0FFBF0003020D59BF010302B4
:100A34000C2ABF0203020B28BF0303020D59BF0493
:100A440003020D59BF0503020D3ABF060122BF4040
:100A5400028006BF410280412275E10490DF3BE041
:100A6400FFBF01F890DF0374E5F090DF047404F035
:100A740090DF077412F090DF08E4F090DF14741034
:100A8400F090DF17E0FF44C0F090FD917441F090C6
:100A9400F5847482F074F9A3F090F583E4F090FD8A
:100AA400A4E0FEA3E0FF90F583E0FDFB7C00C3EB34
:100AB4009EEC9F504590DF06EDF075E10490DF3B1E
:100AC400E0FFBF01F875E10290DF3BE0FFBF0DF8E6
:100AD400900002122D4B90F584E0FEA3E0FF90F508
:100AE40083E02EFEE43FFF90DF3AE0FD8E828F83A9
:100AF400F090F583E02401F080A475E10490DF3BDD
:100B0400E0FFBF01F890FDA4E0FEA3E08E2F753056
:100B14000090F584E0F531A3E0F532752E0175827D
:100B240043021C0BE50F7003020C1890FDB5740D05
:100B3400F0AF9A74FE5FF59AE50F20E403020C18F7
:100B440090FD917403F090FD8FE0FEA3E08E82127D
:100B540001859036BD12217090FD8FE0FEA3E0FF69
:100B64008E828F831221CD90F981E025E0FEE4246A
:100B740082FFEE34F9FE8F828E8312217090F98108
:100B8400E0FFB40100E433FF90F583F0EF2486FD29
:100B9400E434FDFE8D828E83E0707290DF04E0FE0B
:100BA40030E0378F06EE2EFDE42482F582ED34F931
:100BB400F583E0FE8E2F7530008F06EE2EFDE424C3
:100BC40082FEED34F9FD74012EF531E43DF5327504
:100BD4002E01758242121C0B802290DF02E0FE8EF1
:100BE4002FE4F530EF2FFEE42482FFEE34F9FE8F7C
:100BF400318E32752E01758242121C0B90F583E002
:100C0400FF2486F582E434FDF5837401F0AF0F749C
:100C1400EF5FF50FD20010AF02C200750F00A20003
:100C240092AF439A0122E50F7003020D2890FDB59F
:100C3400740DF0AF9A74FE5FF59AE50F20E4030299
:100C44000D2890F981E0FF90F583B40100E433F0BE
:100C54009036D212217090F583E025E0FEE42482E0
:100C6400FFEE34F9FE8F828E831221CD90F583E05E
:100C740025E0FEE42482FFEE34F9FE8F828E831297
:100C8400217090F981E0FFB40100E433FF90F58313
:100C9400F0EF2486FDE434FDFE8D828E83E07072D5
:100CA40090DF04E0FE30E0378F06EE2EFDE4248270
:100CB400F582ED34F9F583E0FE8E2F7530008F0652
:100CC400EE2EFDE42482FEED34F9FD74012EF5319F
:100CD400E43DF532752E01758242121C0B80229080
:100CE400DF02E0FE8E2FE4F530EF2FFEE42482FFD6
:100CF400EE34F9FE8F318E32752E01758242121C4C
:100D04000B90F583E0FF2486F582E434FDF58374CB
:100D140001F0D20010AF02C200AF0F74EF5FF50F05
:100D2400A20092AFD20010AF02C200750F00A20061
:100D340092AF439A012290FDA4E0FEA3E0FF90FD50
:100D440098E0FCA3E0FDC3EE9CEF9D50012290FDD2
:100D5400917404F022E50F70012290FDB5740DF03A
:100D6400E50F543070012290F981E0FFB40100E4F2
:100D740033FF90F583F0EF2486FDE434FDFE8D828D
:100D84008E83E06003020E1190DF04E0FE30E03752
:100D94008F06EE2EFDE42482F582ED34F9F583E02E
:100DA400FE8E2F7530008F06EE2EFDE42482FEEDBC
:100DB40034F9FD74012EF531E43DF532752E0175DB
:100DC4008242121C0B803590FDE7E0FE600A90FD24
:100DD400EAE0FDA3E0FE800890DF02E0FCFD7E0077
:100DE400EF2FFCE42482FFEC34F9FC8F318C327554
:100DF4002E018D2F8E30758242121C0B90F583E0EC
:100E0400FF2486F582E434FDF5837401F0D20010EA
:100E1400AF02C200AF0F74CF5FF50FA20092AF22F2
:100E240090F949E0FDA3E0FEA3E0FF90F94EE0FC59
:100E3400BC420280030217AF90F94FE0FC24BE507D
:100E4400030217A1EC240A83F582EC244683F5837C
:100E5400E473A1A12A66A1DF8BA9BCF52E539635B4
:100E6400A1A1EE6D94072C3FB31F54A1A1A1A1A190
:100E7400A1A1068FD6C4E7A1A1A1A1A1A1A1A1A16D
:100E8400A1A1A1A1A1A1A1A1A1A1A1A1A1A1A1A14E
:100E9400A1A1DA1417170F11170F10101010111148
:100EA40011121717141515161616161415171717E9
:100EB40017171717171716151517171717171717C3
:100EC40017171717171717171717171717171717AE
:100ED400171717170E0FC007C006C00512019ED0C2
:100EE40005D006D00790FD917440F08D828E838FDB
:100EF400F012356BFC7B0090FDA4ECF0EBA3F090BA
:100F0400F959EDF0EEA3F0758201121C5E0217AFE1
:100F140090FD91E4F090F959EDF0EEA3F0758201A3
:100F2400121C5E0217AF90FD91E060099036EC123E
:100F340021700217AF8D828E838FF012356BFC7B8C
:100F44000090F586ECF0EBA3F08D828E83A3E0FA9B
:100F5400E42CFCEA3BFB90F586ECF0EBA3F08D82ED
:100F64008E83A3A3A3A3E0FA8A087509008D828E59
:100F740083A3A3A3A3A3E0FAE42508F508EA3509AB
:100F8400F50990FD8AE4F0E4A3F074062DF9E43E3B
:100F9400FA90FDA6ECF0EBA3F090FDA8E4F0E4A336
:100FA400F090FDAAE508F0E509A3F089828A83C0E0
:100FB40007C006C005122405AC82D005D006D007B0
:100FC4008D828E838FF0EC1233D490F959EDF0EECC
:100FD400A3F0758201121C5E0217AF8D828E838F7F
:100FE400F012356B90FDEAF0E4A3F08D828E83A3BA
:100FF400E0FB7C0090FDEAE0F9A3E0FA90FDEAEC66
:1010040029F0EB3AA3F090FDEAE0FBA3E0FC4B608F
:101014004090FDE77401F090FDE8E0FBA3E0FC4B99
:10102400704612233A90FDEAE0FBA3E0FC90FDE851
:10103400EBF0ECA3F090FDE8E0FBA3E090DF02EB23
:10104400F090DF04E054FCF0E04402F01222F68059
:101054001790FDE7E4F090FDE8F0E4A3F090FDEADA
:10106400E4F0E4A3F012233A90F94EE0FC90F94F37
:10107400E0F52E7531EA7532FD752F017530008C5F
:1010840082121C0B0217AF8D828E838FF012356B88
:1010940090FDFBF090F959EDF0EEA3F0758201128A
:1010A4001C5E0217AF90F95974FBF074FDA3F07540
:1010B4008201121C5E0217AF90FDFBE0FC5304F0AA
:1010C40090FDC97406F090FDCAECF08D828E838F7A
:1010D400F0C007C006C005122FF9D005D006D0070E
:1010E40090F959EDF0EEA3F0758210121C5E021710
:1010F400AF90FDFBE0FC5304F090FDC97404F09044
:10110400FDCAECF08D828E838FF0C007C006C00547
:10111400122FF9D005D006D00790F959EDF0EEA3BF
:10112400F0758210121C5E0217AF8D828E838FF0D1
:1011340012356B90FDFCF090FDFCE05401F090F949
:1011440059EDF0EEA3F0758201121C5E0217AF9008
:10115400F95974FCF074FDA3F0758201121C5E024F
:1011640017AF8D828E838FF012356BFC7B008C82DF
:101174008B83C007C006C005120651D005D006D027
:101184000790F959EDF0EEA3F0758201121C5E028E
:1011940017AF90FD91E0601C8D828E838FF074EF09
:1011A4001233D490F959EDF0EEA3F0758201121CBC
:1011B4005E0217AF8D828E838FF012356BFC7B003D
:1011C40090F586ECF0EBA3F08D828E83A3E0FAE435
:1011D4002CFCEA3BFB90F586ECF0EBA3F08D828EC1
:1011E40083A3A3E0FA90FD8AE4F0E4A3F074032D52
:1011F400F8E43EF990F557ECF0EBA3F090F559EADA
:10120400F088828983C007C006C0051201A6AC829B
:10121400D005D006D0078D828E838FF0EC1233D4A4
:1012240090F959EDF0EEA3F0758201121C5E0217DD
:10123400AF8D828E838FF012356BFB7C0090F58628
:10124400EBF0ECA3F0EB4C600302133090FDF8E0FC
:10125400F9A3E0FA49601C90DF3BE0FABA1314905A
:101264000028C007C006C005122D4BD005D006D0FB
:101274000780D990FDF8E0F9A3E0FA49606B903754
:1012840011C007C006C00512217090FDF8E0F9A353
:10129400E0FA89828A831221CD90F372E0F58212FA
:1012A40021B290F463E0F5821221B2D005D006D0C9
:1012B4000790FDB67412F08D828E838FF074EC1259
:1012C40033D4C2A4C007C006C0051222D1D005D0B1
:1012D40006D00790FD91E4F090F959EDF0EEA3F0FB
:1012E400758201121C5E0217AFC2A490FD91E4F056
:1012F4008D828E838FF0E41233D4903725C007C0DB
:1013040006C00512217090FD8AE0F9A3E0FA8982F3
:101314008A831221CDD005D006D00790F959EDF07B
:10132400EEA3F0758201121C5E0217AF90FD91E0EE
:10133400FABA06028061903735C007C006C00512AC
:101344002170D005D006D00790FDB6E0FABA121B82
:101354008D828E838FF074EC1233D490F959EDF0B2
:10136400EEA3F0758201121C5E801F90FDB6741707
:10137400F08D828E838FF074EF1233D490F959ED8F
:10138400F0EEA3F0758201121C5EC2A41222D19069
:10139400FD91E4F00217AF74012DF9E43EFA90F5E3
:1013A4005CEBF089828A83C007C006C0051203453E
:1013B400AC82D005D006D0078D828E838FF0EC12DC
:1013C40033D48D828E838FF012356BFBEC603BBB84
:1013D400FE02803690373EC007C006C00512217059
:1013E400D005D006D0078D828E838FF012356BF531
:1013F40082C007C006C0051221B2C2A41222D1D0F5
:1014040005D006D00790FD91E4F090F959EDF0EE87
:10141400A3F0758201121C5E0217AF8D828E838F3A
:10142400F012356BFB7C0090F586EBF0ECA3F0C377
:1014340074F09BE49C501990364912217090F9592C
:101444007486F074F5A3F0758201121C5E0217AF66
:1014540090FDA2E075F0F1A42472F974F335F0FA6A
:1014640089828A83E0601990374B12217090F95970
:101474007486F074F5A3F0758201121C5E0217AF36
:101484008B0089828A83E8F090FDA2E075F0F1A4D4
:101494002472F974F335F0FA09B900010A890A8A49
:1014A4000B750C0074012DF9E43EFA89148A157544
:1014B40016008B178C18850A82850B83850CF01215
:1014C400333390FDA2E0FC0C90FDA2ECF0BC0200D2
:1014D400400590FDA2E4F090F9597486F074F5A3E8
:1014E400F0758201121C5E0217AF8D828E838FF01D
:1014F40012356BFC7B0090FD96ECF0EBA3F090FDB5
:1015040096E0F9A3E0FAC374709C74039B402E74B4
:10151400022DFBE43EFC8B148C1575160089178A8A
:101524001890F00075F00012333390F9597496F066
:1015340074FDA3F0758202121C5E0217AF90F95974
:10154400746CF07437A3F0758208121C5E0217AF36
:1015540090FD96E0FBA3E090F9597400F074F0A3B9
:10156400F08B82121C5E0217AF12066E7B008B8317
:1015740012062990FD9AE0FBA3E0FC90F959EB24B4
:1015840000F0EC34F0A3F0758201121C5E0217AF78
:101594008D828E838FF012356BFC7B008C828B8363
:1015A400C007C006C005120104D005D006D00790BC
:1015B400F959EDF0EEA3F0758201121C5E0217AF2B
:1015C400758200C007C006C005120185D005D0068B
:1015D400D00790F959EDF0EEA3F0758201121C5E6C
:1015E4000217AFC007C006C00512019ED005D00681
:1015F400D00790F959EDF0EEA3F0758201121C5E4C
:101604000217AF8D828E838FF012356BFC7B0090B6
:10161400FD92ECF0EBA3F090F959EDF0EEA3F07528
:101624008201121C5E0217AF90F9597492F074FD96
:10163400A3F0758204121C5E0217AF8D828E838F15
:10164400F0C007C006C00512212FD005D006D00770
:101654008D828E838FF012356BF582C007C006C071
:10166400051221B2D005D006D0077B917CFD7A000B
:101674008D828E838FF012356BF87900881489156A
:101684007516007517157518008B828C838AF0C047
:1016940007C006C005123333D005D006D00790F931
:1016A40059EDF0EEA3F0758215121C5E0217AF908F
:1016B400FD8DE0FBA3E0FC90FD94EBF0ECA3F09037
:1016C400F9597491F074FDA3F0758215121C5E0231
:1016D40017AF8D828E838FF012356BFC7B008C826A
:1016E4008B83C007C006C005120525D005D006D0DF
:1016F4000790F959EDF0EEA3F0758201121C5E0219
:1017040017AF90FDB7E0F9A3E0FAA3E0A3E090FDE2
:101714009CE9F0EAA3F08D828E838FF012356BFC86
:1017240090FD91F090FD91E0FBEC24FA404DEB2B01
:101734002B9017397302174B02174B02174B0217E2
:101744006D02176D02175CC007C006C00512019E2A
:10175400D005D006D0078023C007C006C0051206F6
:1017640001D005D006D0078012758200C007C006DC
:10177400C005120185D005D006D00790F959EDF0C7
:10178400EEA3F0758201121C5E802090F9597491C9
:10179400F074FDA3F0758201121C5E800E90F9595D
:1017A400EDF0EEA3F0758201121C5E90000022227F
:1017B400229000002290DF2FE4F090DF30F090DFE1
:1017C40031F090DF00740CF090DF01744EF090DF84
:1017D4000274FFF090DF037440F090DF04E4F090B3
:1017E400DF05F090DF06F090DF077406F090DF0865
:1017F400E4F090DF097424F090DF0A743AF090DF8B
:101804000B74F1F090DF0C74CAF090DF0D74A3F048
:1018140090DF0E7401F090DF0F7423F090DF1074EA
:1018240011F090DF117436F090DF127407F090DF3E
:1018340013740FF090DF147418F090DF157417F020
:1018440090DF16746CF090DF177403F090DF187457
:1018540040F090DF197491F090DF1A7456F090DF25
:101864001B7410F090DF1C74E9F090DF1D742AF0F3
:1018740090DF1EE4F090DF1F741FF090DF23748864
:10188400F090DF247431F090DF257409F090DF2E9E
:1018940074C0F090DF07740CF090DF097425F090A9
:1018A400DF0A7495F090DF0B7455F090DF1A74B66C
:1018B400F090DF1B7410F090DF1C74EAF090DF1DD1
:1018C400742AF090DF1EE4F090DF1F741FF02212E0
:1018D4002E95022EC11218D3122217122EFE121B9D
:1018E400381223711209FE121C05D2AF121C56D2F3
:1018F400A4900002122D4BC2A490000A122D4B1288
:071904001B73120A2580F895
:1035CE0043616E6E6F742063616C6C207472616EF9
:1035DE00736D69745F6C6F6E67207768696C6520B8
:1035EE004648535320486F7070696E67206F722083
:1035FE00616C72656164792070726F636573736953
:10360E006E67207472616E736D69745F6C6F6E6736
:10361E0021004D41435F74782829207265747572BC
:10362E006E6564206572726F72006E6576657220CB
:10363E00656E74657265642054580046485353781D
:10364E006D6974206D65737361676520746F6F208B
:10365E006C6F6E6700464853532073746174652017
:10366E00656E746572696E672053594E4348494EB4
:10367E00472066726F6D2077726F6E67207374616C
:10368E0074650053594E43485F4D41535445522083
:10369E002D3E2053594E43494E474D4153544552AA
:1036AE000046485353786D697420646F6E65006EE2
:1036BE006574776F726B207061636B6574287379B4
:1036CE006E6329006E6574776F726B207061636B29
:1036DE00657428646973636F766572792900637205
:1036EE0061702C20706C6561736520757365204662
:1036FE00485353786D6974282920696E7374656117
:10370E0064210064726F706F75742066696E616CEF
:10371E0020776169742100746F74616C2062797412
:10372E0065732074783A00756E64657272756E00FA
:10373E00627566666572206572726F720073746967
:10374E006C6C2077616974696E67206F6E20746887
:10375E0065206C617374207061636B6574004E4FED
:06376E00204445414C001F
:1000E400752200752300752400752500752600759A
:0800F4002700752A00752B009E
:10190B00C021C0E0C0F0C082C083C007C006C005C4
:10191B00C004C003C002C001C000C0D075D000AF6E
:10192B00F9E529700FBF990C85252B752901852B9E
:10193B00F9021A057401B529218F2A8F057E0090B3
:10194B00F94CEDF0EEA3F0E52A7004E52B6005757C
:10195B0029028003752900021A057402B529028039
:10196B0003021A05C3E522952A4003021A05E52254
:10197B00701D90F94EEFF090F949E0FCA3E0FDA348
:10198B00E0FE8C828D838EF074401233D4804374CE
:10199B0001B5222290F94FEFF090F949E0FCA3E05A
:1019AB00FDA3E0FE0CBC00010D8C828D838EF074C8
:1019BB00E01233D4801C90F949E0FCA3E0FDA3E0D6
:1019CB00FEE5222CFCE43DFD8C828D838EF0EF1224
:1019DB0033D40522E52AB52206752A00752801E5C0
:1019EB002B7006E52A7002F529E528600D90F95257
:1019FB00E04402F0121C8F752800D0D0D000D0012B
:101A0B00D002D003D004D005D006D007D083D0822B
:101A1B00D0F0D0E0D02132C0E0C082C083C007C07C
:101A2B00D075D000AFE874FB5FF5E87401B52902FF
:101A3B0080057402B52942E52B6039E52560351523
:101A4B002BE52B7006E52A7002F529E5272464F5B2
:101A5B0082E434F6F583E0F5F91525E52570089059
:101A6B00F952E054FEFFF0052774242527500D751D
:101A7B002700800875F999800375F999D0D0D007A4
:101A8B00D083D082D0E03222AF8274242525500D32
:101A9B0015250527742425275003752700E52624D3
:101AAB0064F582E434F6F583EFF0052674242526DD
:101ABB005003752600052590F952E04401F022E50C
:101ACB002870047582FF22E5242488F582E434F51E
:101ADB00F583E0F58222E52870047582FF22E52468
:101AEB002488F582E434F5F583E0FF05247424257E
:101AFB002450037524001522E5227002F5288F82ED
:101B0B0022AF8874F75FF588D2ABAFE874FB5FF553
:101B1B00E8439A0822AF8874F75FF588C2ABAFE849
:101B2B0074FB5FF5E8AF9A74F75FF59A22AFF17427
:101B3B00FE5F4402F5F143F4F0AFFE740F5FF5FE68
:101B4B00AFF8747F5F4420F5F875FA3BE5FC75FC44
:101B5B000BAF8874F75FF588D2ABAFE874FB5FF51A
:101B6B00E8439A087529002222AD82AE83AFF0C0FC
:101B7B0007C006C005121AE1AC82D005D006D0070B
:101B8B008C03BC0A0280118D828E838FF0EB123393
:101B9B00D4A3AD82AE8380D78D828E838FF0E40287
:101BAB0033D4AFF0AE83E58290F956F0EEA3F0EFAD
:101BBB00A3F090F956E0FDA3E0FEA3E0FF8D828E2B
:101BCB00838FF012356BFC60230DBD00010E90F975
:101BDB0056EDF0EEA3F0EFA3F08C82C007C006C069
:101BEB0005121A93D005D006D00780D190F956ED87
:101BFB00F0EEA3F0EFA3F0021A92021B0C021B20D3
:101C0B00121A93852E82121A93AE31AF32AC2FADCE
:101C1B0030EC4D60278E828F83E0FBA3AE82AF83C7
:101C2B008B82C007C006C005C004121A93D004D023
:101C3B0005D006D0071CBCFF011D80D57582001294
:101C4B001A93121A929000002232322285822C852E
:101C5B00832D22E58290F95BF090F952E054FDF070
:101C6B0090F94EE0FF90F94FE0F52E90F95BE0FE16
:101C7B008E2F75300090F959E0F531A3E0F5328FD6
:101C8B0082021C0B90F952E0FF20E1012290F949EE
:101C9B00E0FCA3E0FDA3E0FE90F95CECF0EDA3F01B
:101CAB0090F94EE0F53A74FFB53A02800302210732
:101CBB0090F94FE0F538C3948050030220E8E538E3
:101CCB00246F50030220E8E5382480F9240A83F5B9
:101CDB0082E9241583F583E473069E2F6C5184A649
:101CEB00E8D6BEE8E8E8E83E72CF1D1D1F1F1E1F99
:101CFB001F201F1F202020202020208C828D838ED0
:101D0B00F012356BF53574012CF536E43DF537855E
:101D1B00353875390090F950E538F0E539A3F08581
:101D2B003682853783E0F53574012536F53AE4358F
:101D3B0037F53BA8358801E42538F538E93539F511
:101D4B003990F950E538F0E539A3F0853A82853BB7
:101D5B0083E0F9853682853783A3A38933753400F5
:101D6B00E0F9E42533F533E93534F5348533318542
:101D7B00343290F94EE0F990F94FE0F52E85382F7B
:101D8B008539308982121C0B90F950E4F0E4A3F0F2
:101D9B000220FF8C828D838EF012356BF98C828D35
:101DAB0083A38933753400E0F974022CF53AE43DD2
:101DBB00F53B89008801E42533F533E93534F534F7
:101DCB00A833A93490F954E8F0E9A3F090F94CE06A
:101DDB00F8A3E0F9E824FEF533E934FFF534853355
:101DEB0038853439E5384539603D90F954E0F5369E
:101DFB00A3E0F53774012536F8E43537F990F9543B
:101E0B00E8F0E9A3F0853A82853B83E0F9A385826C
:101E1B003A85833B853682853783E9F0153874FF25
:101E2B00B53802153980BD90F94EE0F990F94FE0C5
:101E3B00F52E7531507532F9752F02753000898288
:101E4B00121C0B0220FFEF20E23B8C828D838EF065
:101E5B0012356BF98C828D83A38933753400E0F9CD
:101E6B0090F95C74022CF0E43DA3F089008801E446
:101E7B002533F533E93534F534A833A93490F954C7
:101E8B00E8F0E9A3F090F950E0F8A3E0F988338982
:101E9B0034C374409533E495345006753340753430
:101EAB0000E8C39533F8E99534F990F950E8F0E977
:101EBB00A3F090F95CE0F538A3E0F53985333A856A
:101ECB00343BE53A453B603D90F954E0F536A3E0F1
:101EDB00F53774012536F8E43537F990F954E8F005
:101EEB00E9A3F0853882853983E0F9A385823885AB
:101EFB008339853682853783E9F0153A74FFB53A15
:101F0B0002153B80BD90F94EE0F990F94FE0F52EAC
:101F1B007531507532F9752F027530008982121C9C
:101F2B000B0220FFD2A4900002C006C005C0041211
:101F3B002D4BC2A4900002122D4BD004D005D0061D
:101F4B0090F94EE0F990F94FE0F52E90F94CE0F551
:101F5B002FA3E0F5308C318D328982121C0B0220BD
:101F6B00FF75318C75323785382E752F0D75300016
:101F7B00853A82121C0B0220FF90FDB7E0F8A3E01C
:101F8B00F9A3E0A3E08831893285382E752F0475CB
:101F9B003000853A82121C0B0220FF75317D7532A1
:101FAB003785382E752F0F753000853A82121C0B32
:101FBB000220FF75317475323785382E752F0975F0
:101FCB003000853A82121C0B0220FF8C828D838E8F
:101FDB00F012356BFB74012CF9E43DFABB02028065
:101FEB000ABB03028021BB0429800DC002C0011271
:101FFB0022F6D001D002801AC2A4C002C001122363
:10200B003AD001D002800BC002C001122313D001C1
:10201B00D00290F94EE0FB90F94FE0F52E90F94C81
:10202B00E0F52FA3E0F53089318A328B82121C0B3D
:10203B000220FF90F9507401F0E4A3F0753136756E
:10204B0032DF90F94EE0FB90F94FE0F52E90F9500E
:10205B00E0F52FA3E0F5308B82121C0B90F950E4C6
:10206B00F0E4A3F00220FF8C028D038B017B009028
:10207B00FDBB749AF07437A3F07480A3F075140948
:10208B007515008A8289838BF0C006C005C00412C7
:10209B002E12E5828583F0D004D005D00645F07072
:1020AB005375C98090F94EE0FB90F94FE0F52E90F7
:1020BB00F94CE0F52FA3E0F5308C318D328B821289
:1020CB001C0B803090FDB5E4F090FDB6F090F95903
:1020DB00ECF0EDA3F0758202121C5E801790F94CA8
:1020EB00E0F52FA3E0F53085382E8C318D32853A13
:1020FB0082121C0B90F952E054FDF022E52C452D79
:10210B006019852C82852D83120089AD82AE83EDFB
:10211B004E701090F952E054FDF0225307FD90F9E8
:04212B0052EFF0225D
:103774005344434376333330004558504C4F5245FD
:103784005220723535333500554E494D504C454D18
:10379400454E5445440052455345545F4E4F5700DF
:10212F00AF83E58290F95EF0EFA3F090F95EE0FEE9
:10213F00A3E0FF7C007D008E028F038A828B83E0F9
:10214F00F9A3AA82AB83E960070CBC00EE0D80EB0C
:10215F00752EF08C2F8D308E318F327582FE021CD2
:10216F000BAF83E58290F960F0EFA3F090F960E098
:10217F00FEA3E0FF7C007D008E028F038A828B839B
:10218F00E493F9A3AA82AB83E960070CBC00ED0DC1
:10219F0080EA8E318F32752EF08C2F8D307582FE46
:1021AF00021C0BE58290F962F07531627532F97598
:1021BF002EF1752F017530007582FE021C0BAF8357
:1021CF00E58290F963F0EFA3F07531637532F9751D
:1021DF002EF2752F027530007582FE021C0BAF8236
:1021EF00AE83ADF0FC90F965EFF0EEA3F0EDA3F048
:1021FF00ECA3F07531657532F9752EF3752F0475F3
:08220F0030007582FE021C0B79
:0500FC00E4F50DF50E16
:102217007E697FF98FD57E697FF98ED47E717FF9CC
:102227008FD37E717FF98ED27514007515187516C8
:102237000090F96975F0000233147403B50D06E4D4
:10224700B50E02800280047582FF22AE0DAF0E0527
:102257000DE4B50D02050E8E8222123388AC82ADD5
:1022670083AEF0FFC004C005C006C0079037BD7538
:10227700F086743D123210AC82AD83AEF0FFE5817B
:1022870024FCF581E4C0E0C0E074C0C0E07441C044
:10229700E08C828D838EF0EF1234A8AC82AD83AED2
:1022A700F0FFE58124FCF5818C828D838EF0EF129F
:1022B700339BAC82AD83AEF090DF09EEF08D0390D7
:1022C700DF0AEBF090DF0BECF02275E10490DF3BC7
:1022D700E0FFBF01F890FD8CE0F5E190FD8CE0FF99
:1022E700BF04012290DF3BE0FFBF010280ED229097
:1022F700FD8CE0FFBF02012290DF13E054F0F0E015
:10230700440FF090FD8C7402F002272490FD8CE0BE
:10231700FFBF03012290DF13E054F0F0E0FF440A0F
:10232700F090FD8C7403F075E10390DF3BE0FFBF95
:1023370013F82290FD8CE0FFBF04012290DF13E029
:1023470054F0F0AF9174EF5FF59175E10490DF3BC6
:10235700E0FFBF01F8AF9B74FC5FF59BAFE974EF3B
:102367005FF5E990FD8C7404F02290FD8FE4F0E4B2
:10237700A3F090FD82E4F0E4A3F090FD84E4F0E4A0
:10238700A3F053C6C7759D00859E9E439E0485A9ED
:10239700A943B90190FD8C7404F0751400751500FC
:1023A70075160490F98275F0001233141217B9D21A
:1023B700A87591D175E900750F00439A0175E1047D
:1023C70090DF3BE0FFBF01F8227E007F00C3EE9461
:1023D700DCEF9405502490DF3CE0FD5450600490FE
:1023E700000122900032C007C006122D73D006D01C
:1023F7000774322EFEE43FFF80D390000022AF83A4
:10240700E58290FDACF0EFA3F090FDAEE4F090DF35
:1024170002E0FF90DF3BE0FEBE1309A2A4B39201E6
:1024270092A480EFC2A490FDFAE4F090FDA8E0FD2D
:10243700A3E0FE90FDF0EDF0EEA3F090FDAAE0FB27
:10244700A3E0FC90FDF6EBF0ECA3F090FDA6E0F91D
:10245700A3E0FA90FDF2E9F0EAA3F090FDF4E9C3F6
:102467009BF0EA9CA3F090FDF4E0FBA3E0FC8D1445
:102477008E158B828C83C007C006C005C002C001C1
:102487001233EFAB82AC83D001D002D005D006D097
:102497000790FDF8EB29F0EC3AA3F0E94A705D905C
:1024A700FDACE0FBA3E0FC8B828C83E0F888107521
:1024B700110090FDA6E510F0E511A3F090DF04E010
:1024C700F8530003B800028018B801028003022500
:1024D7008C90FDA674012510F0E43511A3F00225B8
:1024E7008C90FDAC74012BF0E43CA3F090FDA6E0CA
:1024F700FBA3E0FC90DF02EBF002258C90DF04E009
:10250700FC530403BC00028046BC01028003022581
:102517008C90FDACE0FBA3E0FC90FDAFE9F0EAA3F3
:10252700F090FDB17401F0E4A3F08B828C83C007B7
:10253700C002C001122CF6D001D002D00790FDAC2A
:10254700E0FBA3E0FC89008B828C83E8F08036ED0A
:102557004E602D90FDF8E0FDA3E090DF02EDF090D6
:10256700DF04E054FCF090FDF8E0FDA3E0FE600816
:1025770090DF04E0FE4402F090FDFA7401F080055C
:1025870090DF02E9F0D2A890FDFBE0FE20E3030212
:1025970026BA90DF04E0FE530603BE010690FDAEA7
:1025A7007401F090FDAEE0FE90FDACE0FCA3E0FD11
:1025B700EE2CFAE43DFB90FDA6E0F8A3E0F990FDD0
:1025C700CDE8F0E9A3F08A828B83C007C006C00577
:1025D700C004123051AA82AB83D004D005D006D0F4
:1025E7000790FDFBE0F9530104B90448C007EE2C3E
:1025F700F8E43DF990FDFBE0FF5307F090FDD1E8CB
:10260700F0E9A3F090FDD3EAF0EBA3F090FDD5EF4E
:10261700F088828983C007C006C005C004C003C014
:102627000212308BD002D003D004D005D006D007D9
:10263700D0078046C007EE2CF8E43DF990FDFBE09B
:10264700FF5307F090FDD8E8F0E9A3F090FDDAEA30
:10265700F0EBA3F090FDDCEFF088828983C007C020
:1026670006C005C004C003C0021230D4D002D00394
:10267700D004D005D006D007D007EE601E90FDFB32
:10268700E0FE5306F0BE50098C828D837410F080F3
:10269700228A068C828D83EEF0801890FDFBE0FE87
:1026A7005306F0BE500890DF027410F0800590DFEB
:1026B70002EAF090FDACE0FDA3E0FE90FD88EDF0AE
:1026C700EEA3F090FDEEE4F0E4A3F075E1037D6086
:1026D7007EEA90DF3BE0FCBC130280121DBDFF01C8
:1026E7001EED4E6009A2A4B3920192A480E4D2A485
:1026F700ED4E700690FDB67413F090DF3BE0FEBE22
:102707001310A2A4B3920192A4C007121B73D0079F
:1027170080E8C2A490DF02EFF075820122D2A8758B
:10272700140075150075160290F98275F0001233C2
:102737001490FD82E4F0E4A3F090FD84E4F0E4A3B8
:10274700F090FD86E4F090FD877401F090F981E444
:10275700F0AF9B74FC5FF59BAFE974EF5FF5E9752C
:10276700E10290DF3BE0FFBF0DF84391102290FD9F
:10277700FD7401F02290FDFDE4F022C021C0E0C00D
:10278700F0C082C083C007C006C005C004C003C034
:1027970002C001C000C0D075D00090FDB57411F023
:1027A700C28990DF3BE0FFBF0D0280030228C1D240
:1027B700A490FDE7E0FF602790FDE8E0FEA3E0FFBF
:1027C70090FDE8E024FFFCA3E034FFFD90FDE8EC7A
:1027D700F0EDA3F0EF700890DF04E0FF54FCF090F9
:1027E700FD8C7402F090F981E025E0FEE42482FF7D
:1027F700EE34F9FE90F981E075F002A42482FC74AE
:10280700FD35F0FD8C828D83E0FAA3E0FB74012A8D
:10281700F8E43BF98C828D83E8F0E9A3F0EA2FF521
:1028270082EB3EF583E5D9F090F981E075F002A4DB
:102837002482F58274FD35F0F583E0FEA3E0FF54B2
:10284700FE701A90F981E075F002A42482F5827473
:10285700FD35F0F583E0FEA3E0FF4E701A90F98195
:10286700E0FF75F002A42482F58274FD35F0F5834C
:1028770074FFF07401A3F090FDE8E0FEA3E0FF4EC3
:102887006003022A7990FDE7E0FF7003022A79903E
:10289700FDEAE0FEA3E0FF90FDE8EEF0EFA3F09085
:1028A700FDE8E0FEA3E090DF02EEF090DF04E054E5
:1028B700FCF0E0FF4402F0022A7990DF3BE0FFBF23
:1028C70013028003022A7990FDFAE0FF7003022ABF
:1028D7000A90FD9EE0FEA3E0FF0EBE00010F90FDF3
:1028E7009EEEF0EFA3F090FDEEE0FEA3E0FF90FD7B
:1028F700F2E0FCA3E0FDEEB50406EFB505028003A8
:102907000229DE90FDF0E0FEA3E0FF4E603790FD68
:10291700F0E0FEA3E0FFBEFF05BF0002801490FDBC
:10292700F0E024FFFEA3E034FFFF90FDF0EEF0EFB0
:10293700A3F090FDF6E0FEA3E0FF90FDEEEEF0EFD2
:10294700A3F00229DE90FDF2E0F514A3E0F515905F
:10295700FDECE0FF7E008F828E831233EFAE82AFF5
:102967008390FD88E0FCA3E0FDEE2CF582EF3DF5BA
:1029770083E4F090FDECE02401F090FDECE0FF90A3
:10298700FDEDE0FEEFB5060590FDECE4F090FDF2FD
:10299700E0F514A3E0F51590FDECE0FF7E008F82D3
:1029A7008E831233EFAE82AF8390FD88E0FCA3E005
:1029B700FDEE2CFEEF3DFF8E828F83E0701090FDC1
:1029C70091E4F090FDB67412F01222D1C2A490FDEA
:1029D700EE7401F0E4A3F090FDF8E0FEA3E0FF90B1
:1029E700FDF8E024FFFCA3E034FFFD90FDF8ECF0D8
:1029F700EDA3F0BEFF21BF001E90DF04E0FF54FCF3
:102A0700F0801490FDF8E024FFFEA3E034FFFF9070
:102A1700FDF8EEF0EFA3F090FD8C7403F090FDF25B
:102A2700E0F514A3E0F51590FDECE0FF7E008F8242
:102A37008E831233EFAE82AF8390FDEEE0FCA3E00E
:102A4700FD90FDEEE02401F0A3E03400F0EC2EFE53
:102A5700ED3FFF90FD88E0FCA3E0FDEE2CF582EF53
:102A67003DF583E0F5D990FD8AE02401F0A3E03439
:102A770000F0D0D0D000D001D002D003D004D005D0
:102A8700D006D007D083D082D0F0D0E0D02132C09A
:102A970021C0E0C0F0C082C083C007C006C005C027
:102AA70004C003C002C001C000C0D075D0007512B9
:102AB7000090FDB57410F0AE9B74FC5EF59BE5E9E4
:102AC700420FE5E930E02090FD8DE0FDA3E08D06A3
:102AD7007D00AB9C7C0090FD8FED4BF0EE4CA3F09E
:102AE700AEE974FE5EF5E9E5E954707003022C93D4
:102AF70090FD8CE0FEBE030AAE0F748F5EF50F02E9
:102B07002C8C90F981E0FEB40100E4332486F58231
:102B1700E434FDF583E0FEBE01028003022C5E90E3
:102B2700FDFBE0FE20E103022C3490DF04E0FE53BE
:102B37000603BE010375120190FDFBE0FE5306017B
:102B4700BE017690F981E025E0FDE42482FEED34B4
:102B5700F9FDAB127C00EB2EFEEC3DFD90F981E018
:102B6700F929FAE42482F9EA34F9FAEB29FBEC3A79
:102B7700FC90F981E075F002A42482F58274FD359A
:102B8700F0F583E0F9A3E0FAA8127F00E9C398F90A
:102B9700EA9FFA90FDFBE0FF5307F090FDD1EBF0C1
:102BA700ECA3F090FDD3E9F0EAA3F090FDD5EFF0A8
:102BB7008E828D8312308B807490F981E025E0FE40
:102BC700E42482FFEE34F9FEAC127D00EC2FFFED1A
:102BD7003EFE90F981E025E0FAE42482FBEA34F92D
:102BE700FAEC2BFCED3AFD90F981E075F002A42494
:102BF70082F58274FD35F0F583E0FAA3E0FBA812B5
:102C07007900EAC398FAEB99FB90FDFBE0F95301D1
:102C1700F090FDD8ECF0EDA3F090FDDAEAF0EBA32D
:102C2700F090FDDCE9F08F828E831230D490F98129
:102C3700E06401F090F981E0FF75F002A42482F5C9
:102C47008274FD35F0F583E4F0E4A3F090FD86E4AB
:102C5700F090FD87F0802C90FDB67412F0A2A4B31B
:102C6700920292A490F981E0FF75F002A42482F504
:102C77008274FD35F0F583E4F0E4A3F0A2A4B392E7
:102C87000292A4C2A4AFE974CF5FF5E9E5E930E6A3
:102C97001E90FDB67410F0A2A4B3920292A4122261
:102CA700D1A2A4B3920292A4AFE974BF5FF5E9E59C
:102CB700E930E71E90FDB67411F0A2A4B392029218
:102CC700A41222D1A2A4B3920292A4AFE9747F5FA7
:102CD700F5E9D0D0D000D001D002D003D004D00580
:102CE700D006D007D083D082D0F0D0E0D02132AF49
:102CF70083E58290FDB3F0EFA3F090FDB1E0FEA372
:102D0700E0FF90FDB3E0FCA3E0FD90FDAFE0FAA388
:102D1700E0FB8A008B011ABAFF011BE8496024EE29
:102D27002AF8EF3BF9E82CF8E93DF9EA2CF582EBB4
:102D37003DF583C006C007E088828983F0D007D0BD
:042D47000680CF2211
:1037A4000000000000000100000000000000000014
:0737B400000000000000000E
:102D4B00AE82AF831EBEFF011FC3E49EE464808F7F
:102D5B00F063F08095F0500F7C4C7D041CBCFF01A0
:102D6B001DEC4D70F780DD22AE82E583CE25E0CEE3
:102D7B0033FF1EBEFF011FC3E49EE464808FF0632C
:102D8B00F08095F040EC22AE82AF83D2A49003E8A2
:102D9B00C007C006122D4BC2A49001F4122D4BD0CC
:102DAB0006D0071513AD13ED20E754EE30E0249059
:102DBB000019C007C006C005122D4BD2A4900226E5
:102DCB00122D4BC2A4900019122D4BD005D006D05A
:102DDB00078022900113C007C006C005122D4BD2ED
:102DEB00A4900032122D4BC2A4900113122D4BD084
:102DFB0005D006D007EFC313CE13CEFF1D80A8C29C
:102E0B00A49003E8022D4BAFF0AE83E58290FDBE9C
:102E1B00F0EEA3F0EFA3F090FDBEE0FDA3E0FEA368
:102E2B00E0FF90FDBBE0FAA3E0FBA3E0FCA814A934
:102E3B0015E8496051C000C0018D828E838FF0125E
:102E4B00356BF98A828B838CF012356BF8E9C3985A
:102E5B00F516D001D000E5166010E516F517339581
:102E6B00E0F518851782851883220DBD00010E90A1
:102E7B00FDBEEDF0EEA3F0EFA3F00ABA00010B18C4
:102E8B00B8FF011980AB90000022AFBE74FB5FF559
:102E9B00BEE5BE30E6FBAFC674B85FF5C6E5C6202F
:102EAB00E6FB43BE04E5BE30E6FB53C6C743E40C6A
:102EBB0043E401D2B922AF9A74DF5FF59AA2AFE473
:102ECB0033F452A843FF18C2A3C2A422C0E0C082AD
:102EDB00C083C0D090FDB7E02401F0A3E03400F034
:102EEB00A3E03400F0A3E03400F0D0D0D083D08244
:102EFB00D0E032122241AF8290FDC5EFF08FF0058A
:102F0B00F07401800225E0D5F0FB90FDC6F0EF7563
:102F1B00F008A42469FE74F935F0FF90FDC1EEF0C2
:102F2B00EFA3F08E828F83A3A374DFF08E828F8347
:102F3B00A3A3A374B1F08E828F83A3A3A3A3A374C3
:102F4B0010F074062EF582E43FF583E054E0441D47
:102F5B00F074072EF582E43FF583E0543F4440F0D4
:102F6B0074072EF582E43FF583E054FC4401F01224
:102F7B002241AF8290FDC7EFF08FF005F074018016
:102F8B000225E0D5F0FB90FDC8F0EF75F008A42406
:102F9B0069FE74F935F0FF90FDC3EEF0EFA3F08EF0
:102FAB00828F8374DFF08E828F83A374B2F08E8254
:102FBB008F83A3A3A3A3A37410F074062EF582E44E
:102FCB003FF583E054E0441EF074072EF582E43F96
:102FDB00F583E054CF4410F074072EF582E43FF5EF
:102FEB0083E054FC4401F043A91043B91022AF8392
:102FFB00E58290FDCBF0EFA3F0E5B330E3FB90FD62
:10300B00C1E0FEA3E0FF90FDCBE0FCA3E0FD8C0252
:10301B008D038B028E828F83EAF090FDC1E0FEA3BD
:10302B00E0FF8E828F83A37D00ECF090FDC6E04223
:10303B00D690FDC9E0FF90FDCAE0FE4F4401F5B309
:10304B00E5B330E3FB22AF83E58290FDCFF0EFA336
:10305B00F090FDCFE0FEA3E0FF90FDCDE0FCA3E000
:10306B00FDEC540F60158C028D030CBC00010DEAB6
:10307B002EF582EB3FF583E4F080E68C828D832284
:10308B00AF83E58290FDD6F0EFA3F090FDD6E0FE86
:10309B00A3E0FF90FDD1E0FCA3E0FD90FDD3E0FAAF
:1030AB00A3E0FB90FDD5E0F990FDDFECF0EDA3F094
:1030BB0090FDE1EAF0EBA3F090FDE3E4F090FDE48A
:1030CB00E9F08E828F8302311EAF83E58290FDDDA6
:1030DB00F0EFA3F090FDDDE0FEA3E0FF90FDD8E064
:1030EB00FCA3E0FD90FDDAE0FAA3E0FB90FDDCE051
:1030FB00F990FDDFECF0EDA3F090FDE1EAF0EBA32E
:10310B00F090FDE37402F090FDE4E9F08E828F8382
:10311B0002311EAF83E58290FDE5F0EFA3F0E5B33E
:10312B0030E3FB90FDE5E0FEA3E0FF90FDDFE0F573
:10313B001AA3E0F51B90FDE4E0FB74505BF51990CE
:10314B00FDE3E0F94B4401FB740149F51890FDE1F7
:10315B00E0F514A3E0F515E4F516F517C3E51695A0
:10316B0014E5179515400122C00390FDC1E0F8A3AB
:10317B00E0FBE5162EF9E5173FFA89048A058D0465
:10318B0088828B83ECF090FDC1E0FCA3E0FD8C8288
:10319B008D83A3E9F090FDC3E0FCA3E0FD8C828D51
:1031AB0083A3A3E516251AFCE517351BFD8C028DB1
:1031BB00038B02EAF090FDC3E0FAA3E0FB8A828B5B
:1031CB0083A3A3A3ECF090FDC8E0FD90FDC6E0FC4B
:1031DB004D42D6D003E5196017E51424F0FCE51534
:1031EB0034FFFDECB51609EDB517058518B3800254
:1031FB008BB3E5B330E3FB74102516F516E43517E6
:10320B00F5170231671232B3BC000302347AEF6058
:10321B00FA30D502B2D1E583B4FF03023490E582D4
:10322B00B4FF03023490258340072482400B023401
:10323B007A2483145003023490F582EA8DF0A4A80B
:10324B00F0EA8EF0A428F8E435F0F9EB8DF0A42821
:10325B00E935F0F9E433CA8FF0A429F9EA35F0FA2D
:10326B00EBF88EF0A429F9EA35F0FAE433FBEC8D98
:10327B00F0A429F9EA35F0FAE43BFBE88FF0A42A35
:10328B00FAEB35F0FBE433CCFD8EF0A42AFAEB35E8
:10329B00F0FBE43CFCED8FF0A42BFBEC35F0FC20B9
:1032AB00E7031232E1023459AA82AB83A2F73392BD
:1032BB00D1F5826002D2F7ACF0E58124F9F8E6FD96
:1032CB0008E6FE0886F008E6A2F73392D5F5836090
:0632DB0002D2F7AFF02261
:0600BA00E478FFF6D8FD1A
:1032E1007804EC7011E58224F8500AF582E4C9CA29
:1032F100CBFCD8EF22EC7820058220E713D58201A0
:1033010022C3E933F9EA33FAEB33FBEC33FCD8EAB5
:10331100158222AC82AD83AE15AF16BE0004EF60FC
:103321000C1F0FE5141233D4A3DEFADFF88C828D63
:103331008322AD82AE83AFF08D198E1A8F1B851457
:103341001C85151D85161EA817A918880389041840
:10335100B8FF0119EB4C6025851C82851D83851EF4
:10336100F012356BFCA385821C85831D8D828E83B3
:103371008FF0EC1233D4A3AD82AE8380CE85198257
:07338100851A83851BF02271
:100098007917E94400601B7A019037A478E77593D3
:1000A800FDE493F2A308B800020593D9F4DAF275D7
:0200B80093FFB4
:10338800FCABF0AA83A982749EC2D1F5821232E105
:103398000234597F9E1233C230D10302347AC3EF0C
:1033A8009582500974FFF5F0F583F58222790012B1
:1033B800358789828A838BF0EC22AA82AB83A2F7B5
:1033C8003392D1F5826002D2F7ACF02220F71130A7
:1033D800F6138883A88220F509F6A883758300224E
:1033E80080FEF280F5F022E5828514F0A4C582C043
:1033F800F08515F0A4D0F025F0C5838514F0A42538
:1034080083F58322E514451560467A01E51425E025
:10341800F514E515334012F515E5829514E5839505
:103428001540030A80E6C3E51513F515E51413F5F1
:1034380014C3E5829514F5F0E58395154005F583E9
:1034480085F082C3E51513F515E51413F514DAE1D3
:013458002251
:1000C0007800E84400600A79007593F0E4F309D8F9
:1000D000FC78E7E8440D600C790E90F000E4F0A3A2
:0400E000D8FCD9FA75
:02008900E4731E
:10345900B98003EA13B34010EA2401FAE43BFBE420
:103469003CFC50047C800582BC000EBB000BBA00FA
:1034790008E4F5F0F583F58222A2D1E582138CF0F8
:1034890092F78B838A8222E4F583F58275F080F4C2
:10349900A2D11322E4F583F58275F0C0747F22125C
:1034A90032B330D502B2D1BF0009BC000302349D4A
:1034B900023490BC000302347AE583B4FF0BE58241
:1034C900B4FF0302349D02347AE582B4FF03023467
:1034D90090C395835007247F400B02347A248014CB
:1034E9005003023490F582C3ED9AEE9BEF9C401194
:1034F9001582C3EA33F9EB33FAEC33FBE433FC808E
:1035090005E4CCCBCAF9C08275F019C3E99DEA9EDE
:10351900EB9FEC9400D5F002802D400EE99DF9EA6D
:103529009EFAEB9FFBEC9400FCC3B3E833F8E58209
:1035390033F582E58333F583C3E933F9EA33FAEBEB
:1035490033FBEC33FC80C4B3E4F938FAE43582FB8D
:10355900E43583FCD082500405827C801232E1027A
:023569003471BB
:0D008B0075813B1235CAE5826003020086D4
:10356B0020F71430F6148883A88220F507E6A88389
:10357B0075830022E280F7E49322E0226040F82575
:10358B0082500274FFF582E824F8501ECCCBCAF9A6
:10359B00E4CC24F85014CBCAF9E4CB24F8500BCA72
:1035AB00F9E4CA24F8500379002224086010F8C308
:1035BB00EC13FCEB13FBEA13FAE913F9D8F12275C0
:0335CB0082002259
:00000001FF
