:0600000002008B0222BA8F
:01000B0032C2
:0100130032BA
:01001B0032B2
:0100230032AA
:01002B0032A2
:03003300021C3676
:01003B003292
:01004300328A
:03004B000229E5A2
:030053000206ADF5
:03005B0002098710
:01006300326A
:03006B00021C373D
:01007300325A
:01007B003252
:030083000225DE75
:0301010002008673
:030086000218D38A
:20010400AF83E58290F554F0EFA3F075E10490DF3BE0FFBF01F890F554E0FEA3E0FF90DFB4
:2001240006EEF075E10290DF3BE0FFBF0DF8227E007F0090FD96E0FCA3E0FD8E028F03C3AF
:20014400EA9CEB9D503AEE2400FCEF34F0FD90FD94E0F527A3E0F5288A828B83C007C00681
:20016400C005C004122F1AAA82AB83D004D005D006D0078C828D83EAF00EBE00B60F80B32B
:2001840022E58290F556F0E0FFE59CC39FF59CE59C24FAF59C439E10D2BA22AF9E74EF5FD6
:2001A400F59E22AF83E58290F55AF0EFA3F090FD8FE060139030DC121CB290FD8FE0F5823E
:2001C400121CF47582EF2290FD8F7406F090DF3BE0FFBF130280F6C2A490F557E0FEA3E0F5
:2001E400FF90FDF6EEF0EFA3F090FDF074F1F0E4A3F090FD867472F074F3A3F090FDEEE48E
:20020400F0A3F090FDA1F090FDEAF090FDA0F090FDEC04F0E4A3F090FDEB7402F090F55C12
:20022400E4F090000012034C90F55AE0FEA3E0FF90F559E0FD7B007C008D017A00C3EB99B5
:20024400EC9A50548B02EA75F0F0A42EF9E43FFA90F55C74F0F089828A83C007C006C0051D
:20026400C004C00312034CAA82D003D004D005D006D007EA601B90312EC002121CB2D00275
:2002840090FD8FE4F08A82C002121CF4D0028A82220BBB00A40C80A190FDF9E0FF30E33338
:2002A40090FDF6E0FEA3E0FFEE540F602690FDF6E0FEA3E053060F7F007410C39EFEE49F4F
:2002C400FF90FDF6E0FCA3E0FD90FDF6EE2CF0EF3DA3F090FDF6E0FEA3E0FFC374FF9EE455
:2002E4009F502390FDF6E0FEA3E090DF02EEF090DF04E0FF74FC5FF0E0FF74024FF090FD83
:20030400F87401F0801290FDF6E0FEA3E0FF90DF02EEF090FDF8E4F075E1037E607FEA902F
:20032400DF3BE0FDBD130280091EBEFF011FEE4F70EDD2A4EE4F700C90FDB47413F090312A
:2003440046121CB275820022AF83E58290F55DF0EFA3F090F55CE0FF240F500A90315712F6
:200364001CB27582FF22EF703E90FDA0E4F090FDA0E0FE90FDEBE0FDC3EE9D502190FDA0A9
:20038400E075F0F1A42472F58274F335F0F583E4F090FDA0E0FE0E90FDA0EEF080D090FD99
:2003A400A0E4F07582002290FD8FE0FE601DBE061E90FDA0E0601890DF3BE0FEBE130280F3
:2003C4000E90FD8F7407F07582ED227582ED2290FDA0E075F0F1A42472FD74F335F0FE8DC7
:2003E400828E83E0600A90FDB47418F07582FE228D828E8374FFF090FDA0E075F0F1A4249A
:2004040072FD74F335F0FE0DBD00010E7C0090F55DE0FAA3E0FB8A278B288C298F037F0026
:200424008B2A8F2B8D828E838CF0C007C003122E41D003D00790FDF9E0FE20E3030204F494
:2004440090FDA0E075F0F1A42472FD74F335F0FE0DBD00010E90FDCBEBF0EFA3F08D828E49
:2004640083122B5FAE8290F55CEEF090FDF9E0FF530704BF043F90FDA0E075F0F1A4247208
:20048400FD74F335F0FF0DBD00010F8E037C0090FDF9E0FA5302F090FDCFEDF0EFA3F090F9
:2004A400FDD1EBF0ECA3F090FDD3EAF08D828F83122B99803B90FDA0E075F0F1A42472FD8A
:2004C40074F335F0FF0DBD00010F7C0090FDF9E0FB5303F090FDD6EDF0EFA3F090FDD8EE7B
:2004E400F0ECA3F090FDDAEBF08D828F83122BE290FDA0E075F0F1A42472FE74F335F0FFE1
:2005040090F55CE0FD8E828F83F090FDA0E0FF0F90FDA0EFF090FDEBE0FEEFB5060590FD4E
:20052400A0E4F075820022AF83E58290F55FF0EFA3F090FD8FE0FF6014BF0102800F9031BA
:2005440071121CB290FD8FE0F582121CF412019F90FD98E4F0A3F090FD98E0FEA3E0FF8E60
:20056400828F8312062D90DF3BE0FFBF0DF890DF3AE0FF53077FBF6000402790FD98E0FE67
:20058400A3E0FF0EBE00010F90FD98EEF0EFA3F0D2A490000A122865C2A490000A12286526
:2005A40080B590FD8F7402F090FDB5E0FCA3E0FDA3E0A3E090FD9AECF0EDA3F090F55FE095
:2005C400FEA3E0FF90FD9EEEF0EFA3F02290FD8FE4F090FDB5E0FCA3E0FDA3E0A3E090FDC9
:2005E4009AECF0EDA3F02290FD8F7404F090FDB5E0FCA3E0FDA3E0A3E090FD9AECF0EDA324
:20060400F02290FD8F7405F090FDA2E4F0A3F090FDB5E0FCA3E0FDA3E0A3E090FD9AECF002
:20062400EDA3F0758200020185AF83E58290F561F0EFA3F090F561E0FEA3E0FFEE2400F579
:2006440082EF34F0F583E0FF7E008F828E83020104AF83E58290F563F0EFA3F090F563E048
:20066400FEA3E0FF90F370EEF0EFA3F0222290FD98E0FEA3E0FF0EBE00010F90FD98EEF0FB
:20068400EFA3F0C3EE9470EF9403400790FD98E4F0A3F090FD98E0FEA3E0FFEE2400F582B8
:2006A400EF34F0F583E0F58222C021C0E0C0F0C082C083C007C006C005C004C003C002C021
:2006C40001C000C0D075D00090FD8BE02401F0A3E03400F090FD90E0FEA3E0FF90FD8BE057
:2006E400FCA3E0FDECB5060BEDB5070790FD8BE4F0A3F090FD8BE0FEA3E0FFBE0005BF009F
:2007040002800BBE0105BF0002806802086F90FD8BE0FEA3E08E077E00AC9C7D00EC4206DD
:20072400ED420790FD9CEEF0EFA3F090FD98E0FEA3E0FF0EBE00010F90FD98EEF0EFA3F010
:2007440090FD96E0FCA3E0FDC3EE9CEF9D400790FD98E4F0A3F090DF3BE0FFBF1303020901
:200764006A90FD98E0FEA3E0FF8E828F8312062D02096A90FD8FE0FFBF0502800302096AF1
:2007840090001912286590F567741CF090FD98E0FEA3E090F568EEF090FD98E0A3E090F543
:2007A40069F090F56A7442F090F56B744CF090F56C7441F090F56D7448F090F56E7442F0DA
:2007C40090F56F744CF090F5707441F090F5717448F090F5727442F090F573744CF090F56B
:2007E400747441F090F5757448F090F5767442F090F577744CF090F5787441F090F57974D5
:2008040048F090F57A7442F090F57B744CF090F57C7441F090F57D7448F090F57E7442F04A
:2008240090F57F744CF090F5807441F090F5817448F090F5827420F090FDA4741CF0E4A3E1
:20084400F090FDA6F0A3F090FDA8F0A3F090F568121F4990FDA2E0FEA3E0FF0EBE00010F64
:2008640090FDA2EEF0EFA3F002096A90FD8FE0FFBF03028065BF04028008BF050280030234
:20088400096A90FD9AE0FEA3E0FF90FDB5E0FAA3E0FBA3E0FCA3E0FD8E008F01E4FEFFEAD8
:2008A400C398FAEB99FBEC9EFCED9FFDC374649AE49BE49CE49D502290319F121CB290FD5D
:2008C4008F7405F090FDB5E0FCA3E0FDA3E0FEA3E0FF90FD9AECF0EDA3F090FDA1E075F085
:2008E400F1A42472FE74F335F0FF8E828F83E0607590001912286590FDA1E075F0F1A424F5
:2009040072FE74F335F0FF90DF04E05401FDB40100E4332EFDE43FFC8E828F83E090FDA4EA
:20092400F0E4A3F090FDA6F0A3F090FDA8F0A3F08D828C83121F4990FDA1E075F0F1A4241A
:2009440072F58274F335F0F583E4F090FDA1E0FF0F90FDA1EFF0BF0200400590FDA1E4F0A1
:200964009031BD121CB2D0D0D000D001D002D003D004D005D006D007D083D082D0F0D0E0C4
:20098400D021323290FD8FE4F090FDA0F090FDA1F090FD98F0A3F090FD947453F0E4A3F0DC
:2009A40090FD967453F0E4A3F090FD9CF0A3F090FD9AF0A3F090FD907406F0E4A3F090FD01
:2009C40092F0A3F090FD9EF0A3F090FDA2F0A3F012013390FD8FE4F0759DDC859E9E439ED8
:2009E4000443CB1022020988900E10121C3990FDB5E4F0A3F0A3F0A3F01209E990F583E448
:200A0400F090F5847480F074F9A3F02290FD8FE0FFBF0003020D45BF0103020C16BF020317
:200A2400020B14BF0303020D45BF0403020D45BF0503020D26BF060122BF40028006BF41F3
:200A44000280422275E10490DF3BE0FFBF01F890DF0374E5F090DF047404F090DF0774127F
:200A6400F090DF08E4F090DF147410F090DF17E0FF74C04FF090FD8F7441F090F5847480AA
:200A8400F074F9A3F090F583E4F090FDA2E0FEA3E0FF90F583E0FDFB7C00C3EB9EEC9F5074
:200AA4004590DF06EDF075E10490DF3BE0FFBF01F875E10290DF3BE0FFBF0DF890000212B7
:200AC400286590F584E0FEA3E0FF90F583E02EFEE43FFF90DF3AE0FD8E828F83F090F58346
:200AE400E02401F080A475E10490DF3BE0FFBF01F890FDA2E0FEA3E08E1A751B0090F5846D
:200B0400E0F51CA3E0F51D751901758243021C00E5227003020C0490FDB3740DF0AF9A746A
:200B2400FE5FF59AE52220E403020C0490FD8F7403F090FD8DE0FEA3E08E8212018590313E
:200B4400CB121CB290FD8DE0FEA3E0FF8E828F83121D0F90F97FE025E0FEE42480FFEE3478
:200B6400F9FE8F828E83121CB290F97FE0FFB40100E433FF90F583F0EF2484FDE434FDFE27
:200B84008D828E83E0707290DF04E0FE30E0378F06EE2EFDE42480F582ED34F9F583E0FEBA
:200BA4008E1A751B008F06EE2EFDE42480FEED34F9FD74012EF51CE43DF51D751901758241
:200BC40042121C00802290DF02E0FE8E1AE4F51BEF2FFEE42480FFEE34F9FE8F1C8E1D758D
:200BE4001901758242121C0090F583E0FF2484F582E434FDF5837401F0AF2274EF5FF522CE
:200C0400D20010AF02C200752200A20092AF439A0122E5227003020D1490FDB3740DF0AF04
:200C24009A74FE5FF59AE52220E403020D1490F97FE0FF90F583B40100E433F09031E01227
:200C44001CB290F583E025E0FEE42480FFEE34F9FE8F828E83121D0F90F583E025E0FEE408
:200C64002480FFEE34F9FE8F828E83121CB290F97FE0FFB40100E433FF90F583F0EF248471
:200C8400FDE434FDFE8D828E83E0707290DF04E0FE30E0378F06EE2EFDE42480F582ED34F8
:200CA400F9F583E0FE8E1A751B008F06EE2EFDE42480FEED34F9FD74012EF51CE43DF51D77
:200CC400751901758242121C00802290DF02E0FE8E1AE4F51BEF2FFEE42480FFEE34F9FED1
:200CE4008F1C8E1D751901758242121C0090F583E0FF2484F582E434FDF5837401F0D200DA
:200D040010AF02C200AF2274EF5FF522A20092AFD20010AF02C200752200A20092AF439A13
:200D2400012290FDA2E0FEA3E0FF90FD96E0FCA3E0FDC3EE9CEF9D50012290FD8F7404F0AE
:200D440022E52270012290FDB3740DF0E522543070012290F97FE0FFB40100E433FF90F5CD
:200D640083F0EF2484FDE434FDFE8D828E83E06003020DFD90DF04E0FE30E0378F06EE2E9D
:200D8400FDE42480F582ED34F9F583E0FE8E1A751B008F06EE2EFDE42480FEED34F9FD74EC
:200DA400012EF51CE43DF51D751901758242121C00803590FDE5E0E0600A90FDE8E0FDA380
:200DC400E0FE800890DF02E0FCFD7E00EF2FFCE42480FFEC34F9FC8F1C8C1D7519018D1AA1
:200DE4008E1B758242121C0090F583E0FF2484F582E434FDF5837401F0D20010AF02C20092
:200E0400AF2274CF5FF522A20092AF2290F949E0FDA3E0FEA3E0FF90F94EE0FCBC4202805A
:200E2400030217AB90F94FE0FC24BE500302179DEC240A83F582EC244683F583E4739D9D52
:200E4400165E9DC984A2B5EE274B8E2C9D9DF271980B3043AF23589D9D9D9D9D9D9D028B0A
:200E6400D2C8EB9D9D9D9D9D9D9D9D9D9D9D9D9D9D9D9D9D9D9D9D9D9D9D9D9D9D9DC60094
:200E840017170F11170F1010101011111112171714151516161616141517171717171717C7
:200EA400171716151517171717171717171717171717171717171717171717171717171753
:200EC4000E0FC007C006C00512019FD005D006D00790FD8F7440F08D828E838FF012307951
:200EE400FC7B0090FDA2ECF0EBA3F090F959EDF0EEA3F0758201121C400217AB90FD8FE484
:200F0400F090F959EDF0EEA3F0758201121C400217AB90FD8FE060099031FA121CB202175A
:200F2400AB8D828E838FF0123079FC7B0090F586ECF0EBA3F08D828E83A3E0FAE4F92CFC2A
:200F4400EA3BFB90F586ECF0EBA3F08D828E83A3A3A3A3E0FA8A0889098D828E83A3A3A355
:200F6400A3A3E0FAE42508F508EA3509F50990FD88E4F0A3F074062DF9E43EFA90FDA4ECC4
:200F8400F0EBA3F090FDA6E4F0A3F090FDA8E508F0E509A3F089828A83C007C006C0051236
:200FA4001F49AC82D005D006D0078D828E838FF0EC122EE290F959EDF0EEA3F0758201121E
:200FC4001C400217AB8D828E838FF012307990FDE8F0E4A3F08D828E83A3E0FB7C0090FD10
:200FE400E8E0F9A3E0FA90FDE8EC29F0EB3AA3F090FDE8E0A3E090FDE8E0F5F0A3E045F0B3
:20100400604B90FDE57401F090FDE6E0A3E090FDE6E0F5F0A3E045F07047121E8290FDE8A6
:20102400E0FBA3E0FC90FDE6EBF0ECA3F090FDE6E0FBA3E090DF02EBF090DF04E0FC74FCA9
:201044005CF0E0FC74024CF0121E38801490FDE5E4F090FDE6F0A3F090FDE8F0A3F0121E52
:201064008290F94EE0FC90F94FE0F519751CE8751DFD751A01751B008C82121C000217AB49
:201084008D828E838FF012307990FDF9F090F959EDF0EEA3F0758201121C400217AB90F989
:2010A4005974F9F074FDA3F0758201121C400217AB90FDF9E0FC5304F090FDC77406F09051
:2010C400FDC8ECF08D828E838FF0C007C006C005122B07D005D006D00790F959EDF0EEA364
:2010E400F0758210121C400217AB90FDF9E0FC5304F090FDC77404F090FDC8ECF08D828E90
:20110400838FF0C007C006C005122B07D005D006D00790F959EDF0EEA3F0758210121C40FC
:201124000217AB8D828E838FF012307990FDFAF0E0FC74015CF090F959EDF0EEA3F0758242
:2011440001121C400217AB90F95974FAF074FDA3F0758201121C400217AB8D828E838FF04B
:20116400123079FC7B008C828B83C007C006C005120655D005D006D00790F959EDF0EEA38C
:20118400F0758201121C400217AB90FD8FE0601C8D828E838FF074EF122EE290F959EDF0D6
:2011A400EEA3F0758201121C400217AB8D828E838FF0123079FC7B0090F586ECF0EBA3F04A
:2011C4008D828E83A3E0FAE42CFCEA3BFB90F586ECF0EBA3F08D828E83A3A3E0FA90FD8888
:2011E400E4F0A3F074032DF8E43EF990F557ECF0EBA3F090F559EAF088828983C007C0063C
:20120400C0051201A7AC82D005D006D0078D828E838FF0EC122EE290F959EDF0EEA3F07539
:201224008201121C400217AB8D828E838FF0123079FB7C0090F586EBF0ECA3F0EB4C600325
:2012440002133490FDF6E0A3E090FDF6E0F5F0A3E045F0601C90DF3BE0FABA1314900028C2
:20126400C007C006C005122865D005D006D00780D290FDF6E0A3E090FDF6E0F5F0A3E045AF
:20128400F0606B90321FC007C006C005121CB290FDF6E0F9A3E0FA89828A83121D0F90F3CA
:2012A40072E0F582121CF490F463E0F582121CF4D005D006D00790FDB47412F08D828E8386
:2012C4008FF074EC122EE2C2A4C007C006C005121E13D005D006D00790FD8FE4F090F959BA
:2012E400EDF0EEA3F0758201121C400217ABC2A490FD8FE4F08D828E838FF0122EE2903289
:2013040033C007C006C005121CB290FD88E0F9A3E0FA89828A83121D0FD005D006D0079091
:20132400F959EDF0EEA3F0758201121C400217AB90FD8FE0FABA06028061903243C007C0AA
:2013440006C005121CB2D005D006D00790FDB4E0FABA121B8D828E838FF074EC122EE290A9
:20136400F959EDF0EEA3F0758201121C40801F90FDB47417F08D828E838FF074EF122EE2D4
:2013840090F959EDF0EEA3F0758201121C40C2A4121E1390FD8FE4F00217AB74012DF9E4C7
:2013A4003EFA90F55CEBF089828A83C007C006C00512034CAC82D005D006D0078D828E839A
:2013C4008FF0EC122EE28D828E838FF0123079FBEC603BBBFE02803690324CC007C006C0D4
:2013E40005121CB2D005D006D0078D828E838FF0123079F582C007C006C005121CF4C2A4D7
:20140400121E13D005D006D00790FD8FE4F090F959EDF0EEA3F0758201121C400217AB8D1C
:20142400828E838FF0123079FB7C0090F586EBF0ECA3F0C374F09BE49C5019903157121C0E
:20144400B290F9597486F074F5A3F0758201121C400217AB90FDA0E075F0F1A42472F974DA
:20146400F335F0FA89828A83E06019903259121CB290F9597486F074F5A3F0758201121CFC
:20148400400217AB8B0089828A83E8F090FDA0E075F0F1A42472F974F335F0FA09B90001EA
:2014A4000A890A8A0B750C0074012DF9E43EFA89278A287529008B2A8C2B850A82850B832E
:2014C400850CF0122E4190FDA0E0FC0C90FDA0ECF0BC0200400590FDA0E4F090F959748608
:2014E400F074F5A3F0758201121C400217AB8D828E838FF0123079FC7B0090FD94ECF0EB19
:20150400A3F090FD94E0F9A3E0FAC374709C74039B402E74022DFBE43EFC8B278C2875293A
:2015240000892A8A2B90F00075F000122E4190F9597494F074FDA3F0758202121C4002177B
:20154400AB90F959747AF07432A3F0758208121C400217AB90FD94E0FBA3E090F9597400DD
:20156400F074F0A3F08B82121C400217AB1206727B008B8312062D90FD98E0FBA3E0FC90DA
:20158400F959EB2400F0EC34F0A3F0758201121C400217AB8D828E838FF0123079FC7B0058
:2015A4008C828B83C007C006C005120104D005D006D00790F959EDF0EEA3F0758201121CBA
:2015C400400217AB758200C007C006C005120185D005D006D00790F959EDF0EEA3F0758269
:2015E40001121C400217ABC007C006C00512019FD005D006D00790F959EDF0EEA3F07582F7
:2016040001121C400217AB8D828E838FF0123079FC7B0090FD90ECF0EBA3F090F959EDF08C
:20162400EEA3F0758201121C400217AB90F9597490F074FDA3F0758204121C400217AB8D67
:20164400828E838FF0C007C006C005121C71D005D006D0078D828E838FF0123079F582C070
:2016640007C006C005121CF4D005D006D0078D828E838FF0123079FC7B008C278B288B2945
:20168400752A158B2B90FD8F75F000C007C006C005122E41D005D006D00790F959EDF0EE59
:2016A400A3F0758215121C400217AB90FD8BE0FBA3E0FC90FD92EBF0ECA3F090F959748F85
:2016C400F074FDA3F0758215121C400217AB8D828E838FF0123079FC7B008C828B83C00720
:2016E400C006C00512052BD005D006D00790F959EDF0EEA3F0758201121C400217AB90FDA0
:20170400B5E0F9A3E0FAA3E0A3E090FD9AE9F0EAA3F08D828E838FF0123079FC90FD8FF0D5
:2017240090FD8FE0FBEC24FA404DEB2B2B9017357302174702174702174702176902176963
:20174400021758C007C006C00512019FD005D006D0078023C007C006C005120606D005D0D6
:2017640006D0078012758200C007C006C005120185D005D006D00790F959EDF0EEA3F075DE
:201784008201121C40802090F959748FF074FDA3F0758201121C40800E90F959EDF0EEA397
:2017A400F0758201121C409000002222229000002290DF2FE4F090DF30F090DF31F090DF27
:2017C40000740CF090DF01744EF090DF0274FFF090DF037440F090DF04E4F090DF05F0904E
:2017E400DF06F090DF077406F090DF08E4F090DF097424F090DF0A743AF090DF0B74F1F0FF
:2018040090DF0C74CAF090DF0D74A3F090DF0E7401F090DF0F7423F090DF107411F090DF4E
:20182400117436F090DF127407F090DF13740FF090DF147418F090DF1514F090DF16746C2C
:20184400F090DF177403F090DF187440F090DF197491F090DF1A7456F090DF1B7410F0902E
:20186400DF1C74E9F090DF1D742AF090DF1EE4F090DF1F741FF090DF237488F090DF24740B
:2018840031F090DF257409F090DF2E74C0F090DF07C4F090DF097425F090DF0A7495F09034
:2018A400DF0B7455F090DF1A74B6F090DF1B7410F090DF1C74EAF090DF1D742AF090DF1E60
:2018C400E4F090DF1F741FF0221229B30229DF1218CD121D59122A0C121B30121EBB1209DB
:2018E400EC121BFAD2AF121C38D2A4900002122865C2A490000A122865121B68120A108063
:01190400F8EA
:2030DC0043616E6E6F742063616C6C207472616E736D69745F6C6F6E67207768696C6520BB
:2030FC004648535320486F7070696E67206F7220616C72656164792070726F636573736900
:20311C006E67207472616E736D69745F6C6F6E6721004D41435F747828292072657475723D
:20313C006E6564206572726F72006E6576657220656E746572656420545800464853537853
:20315C006D6974206D65737361676520746F6F206C6F6E670046485353207374617465202D
:20317C00656E746572696E672053594E4348494E472066726F6D2077726F6E6720737461CB
:20319C0074650053594E43485F4D4153544552202D3E2053594E43494E474D4153544552F8
:2031BC000046485353786D697420646F6E65006E6574776F726B207061636B657428737981
:2031DC006E6329006E6574776F726B207061636B657428646973636F766572792900637239
:2031FC0061702C20706C65617365207573652046485353786D6974282920696E73746561A4
:20321C0064210064726F706F75742066696E616C20776169742100746F74616C206279744D
:20323C0065732074783A00756E64657272756E00627566666572206572726F7200737469CD
:20325C006C6C2077616974696E67206F6E20746865206C617374207061636B6574004E4F00
:06327C00204445414C0016
:1800E400750D00750E00750F00751000751100751200751500751600D4
:20190500C021C0E0C0F0C082C083C007C006C005C004C003C002C001C000C0D075D000AF6C
:20192500F9E514700FBF990C8510167514018516F90219FD7401B514218F158F057E009047
:20194500F94CEDF0EEA3F0E5157004E516600575140280037514000219FD7402B5140280A1
:20196500030219FDC3E50D951540030219FDE50D701D90F94EEFF090F949E0FCA3E0FDA387
:20198500E0FE8C828D838EF07440122EE280437401B50D2290F94FEFF090F949E0FCA3E0EE
:2019A500FDA3E0FE0CBC00010D8C828D838EF074E0122EE2801C90F949E0FCA3E0FDA3E06F
:2019C500FEE50D2CFCE43DFD8C828D838EF0EF122EE2050DE515B50D06751500751301E553
:2019E500167015E5157011F514E51745186009851782851883120089D0D0D000D001D00215
:201A0500D003D004D005D006D007D083D082D0F0D0E0D02132C0E0C082C083C007C0D0756F
:201A2500D000AFE874FB5FF5E87401B5140280057402B51442E5166039E51060351516E51B
:201A4500167006E5157002F514E5122464F582E434F6F583E0F5F91510E510700890F952C9
:201A6500E054FEFFF0051274242512500D751200800875F999800375F999D0D0D007D08393
:201A8500D082D0E03222AF8274242510500D15100512742425125003751200E5112464F538
:201AA50082E434F6F583EFF00511742425115003751100051090F952E04401F022E51370EE
:201AC500047582FF22E50F2488F582E434F5F583E0F58222E51370047582FF22E50F2488AC
:201AE500F582E434F5F583E0FF050F7424250F5003750F00150DE50D7002F5138F8222AFDF
:201B05008874F75FF588D2ABAFE874FB5FF5E8439A0822AF8874F75FF588C2ABAFE874FB3A
:201B25005FF5E8AF9A74F75FF59A22AFF174FE5F4402F5F143F4F0AFFE740F5FF5FEAFF8B3
:201B4500747F5F4420F5F875FA3BE5FC75FC0BAF8874F75FF588D2ABAFE874FB5FF5E84356
:201B65009A082222AD82AE83AFF0C007C006C005121AD9AC82D005D006D0078C03BC0A021D
:201B850080118D828E838FF0EB122EE2A3AD82AE8380D78D828E838FF0E4022EE2AFF0AEC7
:201BA50083E58290F956F0EEA3F0EFA3F090F956E0FDA3E0FEA3E0FF8D828E838FF01230C4
:201BC50079FC60230DBD00010E90F956EDF0EEA3F0EFA3F08C82C007C006C005121A8BD089
:201BE50005D006D00780D190F956EDF0EEA3F0EFA3F0021A8A021B04021B18121A8B8519CD
:201C050082121A8BAE1CAF1D8E828F83E0FD60148D820EBE00010FC007C006121A8BD00678
:201C2500D00780E4758200121A8B121A8A9000002232322285821785831822E58290F95B1D
:201C4500F090F952E054FDF090F94EE0FF90F94FE0F51990F95BE0FE8E1A751B0090F9593B
:0C1C6500E0F51CA3E0F51D8F82021C00BE
:201C7100AF83E58290F95CF0EFA3F090F95CE0FEA3E0FF7C007D008E028F038A828B83E009
:201C9100F9A3AA82AB83E960070CBC00EE0D80EB7519F08C1A8D1B8E1C8F1D7582FE021C8A
:201CB10000AF83E58290F95EF0EFA3F090F95EE0FEA3E0FF7C007D008E028F038A828B83A5
:201CD100E493F9A3AA82AB83E960070CBC00ED0D80EA8E1C8F1D7519F08C1A8D1B7582FEF3
:201CF100021C00E58290F960F0751C60751DF97519F1751A01751B007582FE021C00AF8315
:201D1100E58290F961F0EFA3F0751C61751DF97519F2751A02751B007582FE021C00AF828D
:201D3100AE83ADF0FC90F963EFF0EEA3F0EDA3F0ECA3F0751C63751DF97519F3751A047575
:081D51001B007582FE021C005C
:0500FC00E4F51EF51FF4
:201D59007E677FF98FD57E677FF98ED47E6F7FF98FD37E6F7FF97F008ED28F277528188FE5
:201D79002990F96775F000022E227403B51E06E4B51F02800280047582FF22AE1EAF1F05B3
:0A1D99001EE4B51E02051F8E822213
:201DA300122E96AC82AD83AEF0FFC004C005C006C0079037BD75F086743D122D1EAC82ADE1
:201DC30083AEF0FFE58124FCF581E4C0E0C0E074C0C0E07441C0E08C828D838EF0EF122FCB
:201DE300B6AC82AD83AEF0FFE58124FCF5818C828D838EF0EF122EA9AC82AD83AEF090DF54
:201E030009EEF08D0390DF0AEBF090DF0BECF02275E10490DF3BE0FFBF01F890FD8AE0F5F5
:201E2300E190FD8AE0FFBF04012290DF3BE0FFBF010280ED2290FD8AE0FFBF02012290DFBF
:201E430013E0FF74F05FF0E0FF740F4FF090FD8A7402F002226190FD8AE0FFBF03012290CC
:201E6300DF13E0FF74F05FF0E0FF740A4FF090FD8A7403F0F5E190DF3BE0FFBF13F82290E6
:201E8300FD8AE0FFBF04012290DF13E0FF74F05FF0AF9174EF5FF59175E10490DF3BE0FF74
:201EA300BF01F8AF9B74FC5FF59BAFE974EF5FF5E990FD8A7404F02290FD8DE4F0A3F090D4
:201EC300FD80F0A3F090FD82F0A3F053C6C7759D00859E9E439E0485A9A943B90190FD8AEA
:201EE3007404F0752700752800F52990F98075F000122E221217B5D2A87591D175E900754E
:201F03002200439A0175E10490DF3BE0FFBF01F8227E007F00C3EE94DCEF9405502490DF78
:201F23003CE0FD5450600490000122900032C007C006122893D006D00774322EFEE43FFF0D
:201F430080D390000022AF83E58290FDAAF0EFA3F090FDACE4F090DF02E0FF90DF3BE0FE52
:201F6300BE1304B2A480F4C2A490FDF8E4F090FDA6E0FDA3E0FE90FDEEEDF0EEA3F090FD09
:201F8300A8E0FBA3E0FC90FDF4EBF0ECA3F090FDA4E0F9A3E0FA90FDF0E9F0EAA3F090FD7A
:201FA300F2E9C39BF0EA9CA3F090FDF2E0FBA3E0FC8D278E288B828C83C007C006C005C06B
:201FC30002C001122EFDAB82AC83D001D002D005D006D00790FDF6EB29F0EC3AA3F0E94A0A
:201FE300705D90FDAAE0FBA3E0FC8B828C83E0F8882375240090FDA4E523F0E524A3F090F3
:20200300DF04E0F8530003B800028018B8010280030220D490FDA474012523F0E43524A368
:20202300F00220D490FDAA74012BF0E43CA3F090FDA4E0FBA3E0FC90DF02EBF00220D490E0
:20204300DF04E0FC530403BC00028046BC010280030220D490FDAAE0FBA3E0FC90FDADE9F4
:20206300F0EAA3F090FDAF7401F0E4A3F08B828C83C007C002C001122810D001D002D007AE
:2020830090FDAAE0FBA3E0FC89008B828C83E8F0803FED4E603690FDF6E0FDA3E090DF024B
:2020A300EDF090DF04E0FE74FC5EF090FDF6E0FDA3E0FEC374FF9DE49E500990DF04E0FE51
:2020C30074024EF090FDF87401F0800590DF02E9F0D2A890FDF9E0FE20E30302220290DF17
:2020E30004E0FE530603BE010690FDAC7401F090FDACE0FE90FDAAE0FCA3E0FDEE2CFAE49A
:202103003DFB90FDA4E0F8A3E0F990FDCBE8F0E9A3F08A828B83C007C006C005C004122BE6
:202123005FAA82AB83D004D005D006D00790FDF9E0F9530104B90448C007EE2CF8E43DF9DE
:2021430090FDF9E0FF5307F090FDCFE8F0E9A3F090FDD1EAF0EBA3F090FDD3EFF088828995
:2021630083C007C006C005C004C003C002122B99D002D003D004D005D006D007D0078046D0
:20218300C007EE2CF8E43DF990FDF9E0FF5307F090FDD6E8F0E9A3F090FDD8EAF0EBA3F026
:2021A30090FDDAEFF088828983C007C006C005C004C003C002122BE2D002D003D004D005B8
:2021C300D006D007D007EE601E90FDF9E0FE5306F0BE50098C828D837410F080228A068CF8
:2021E300828D83EEF0801890FDF9E0FE5306F0BE500890DF027410F0800590DF02EAF090CC
:20220300FDAAE0FDA3E0FE90FD86EDF0EEA3F090FDECE4F0A3F075E1037D607EEA90DF3B1D
:20222300E0FCBC1302800D1DBDFF011EED4E6004B2A480E9D2A4ED4E700690FDB47413F02C
:2022430090DF3BE0FEBE130BB2A4C007121B68D00780EDC2A490DF02EFF075820122D2A8D7
:2022630075270075280075290290F98075F000122E2290FD80E4F0A3F090FD82F0A3F0901C
:20228300FD84F090FD8504F090F97FE4F0AF9B74FC5FF59BAFE974EF5FF5E975E10290DF40
:2022A3003BE0FFBF0DF84391102290FDFB7401F02290FDFBE4F022C021C0E0C0F0C082C077
:2022C30083C007C006C005C004C003C002C001C000C0D075D00090FDB37411F0C28990DF18
:2022E3003BE0FFBF0D028003022404D2A490FDE5E0E0602A90FDE6E0FEA3E0FF90FDE6E0EE
:2023030024FFFCA3E034FFFD90FDE6ECF0EDA3F074FF2F400990DF04E0FF74FC5FF090FD90
:202323008A7402F090F97FE025E0FEE42480FFEE34F9FEE075F002A42480FC74FD35F0FD01
:202343008C828D83E0FAA3E0FB74012AF8E43BF98C828D83E8F0E9A3F0EA2FF582EB3EF535
:2023630083E5D9F090F97FE075F002A42480F58274FD35F0F583E0FEA3E0FFC39402501AEA
:2023830090F97FE075F002A42480F58274FD35F0F583E0FEA3E0FF4E701A90F97FE0FF758A
:2023A300F002A42480F58274FD35F0F58374FFF07401A3F090FDE6E0A3E090FDE6E0F5F0E2
:2023C300A3E045F060030225C190FDE5E0E070030225C190FDE8E0FEA3E0FF90FDE6EEF044
:2023E300EFA3F090FDE6E0FEA3E090DF02EEF090DF04E0FF74FC5FF0E0FF74024FF0022569
:20240300C190DF3BE0FFBF130280030225C190FDF8E0E0700302255290FD9CE0FEA3E0FF76
:202423000EBE00010F90FD9CEEF0EFA3F090FDECE0FEA3E0FF90FDF0E0FCA3E0FDEEB504DB
:2024430006EFB50502800302252590FDEEE0A3E090FDEEE0F5F0A3E045F0603790FDEEE031
:20246300FEA3E0FFBEFF05BF0002801490FDEEE024FFFEA3E034FFFF90FDEEEEF0EFA3F0B6
:2024830090FDF4E0FEA3E0FF90FDECEEF0EFA3F002252590FDF0E0F527A3E0F52890FDEAA3
:2024A300E0FF7E008F828E83122EFDAE82AF8390FD86E0FCA3E0FDEE2CF582EF3DF583E473
:2024C300F090FDEAE02401F0E0FF90FDEBE0FEEFB5060590FDEAE4F090FDF0E0F527A3E072
:2024E300F52890FDEAE0FF7E008F828E83122EFDAE82AF8390FD86E0FCA3E0FDEE2CFEEFB1
:202503003DFF8E828F83E0701090FD8FE4F090FDB47412F0121E13C2A490FDEC7401F0E4E8
:20252300A3F090FDF6E0FEA3E0FF90FDF6E024FFFCA3E034FFFD90FDF6ECF0EDA3F0BEFF51
:2025430022BF001F90DF04E0FF74FC5FF0801490FDF6E024FFFEA3E034FFFF90FDF6EEF039
:20256300EFA3F090FD8A7403F090FDF0E0F527A3E0F52890FDEAE0FF7E008F828E83122E09
:20258300FDAE82AF8390FDECE0FCA3E0FD90FDECE02401F0A3E03400F0EC2EFEED3FFF901C
:2025A300FD86E0FCA3E0FDEE2CF582EF3DF583E0F5D990FD88E02401F0A3E03400F0D0D005
:2025C300D000D001D002D003D004D005D006D007D083D082D0F0D0E0D02132C021C0E0C0E3
:2025E300F0C082C083C007C006C005C004C003C002C001C000C0D075D00075250090FDB398
:202603007410F0AE9B74FC5EF59BE5E94222E5E930E02090FD8BE0FDA3E08D067D00AB9C9D
:202623007C0090FD8DED4BF0EE4CA3F0AEE974FE5EF5E9E5E9547070030227C190FD8AE0E1
:20264300FEBE030AAE22748F5EF5220227BA90F97FE0FEB40100E4332484F582E434FDF5A8
:2026630083E0FEBE0102800302279790FDF9E0FE20E10302277090DF04E0FE530603BE0185
:202683000375250190FDF9E0FE530601BE017090F97FE025E0FDE42480FEED34F9FDAB2555
:2026A3007C00EB2EFEEC3DFDE0F929FAE42480F9EA34F9FAEB29FBEC3AFCE075F002A42490
:2026C30080F58274FD35F0F583E0F9A3E0FAA8257F00E9C398F9EA9FFA90FDF9E0FF5307D1
:2026E300F090FDCFEBF0ECA3F090FDD1E9F0EAA3F090FDD3EFF08E828D83122B99806E90CA
:20270300F97FE025E0FEE42480FFEE34F9FEAC257D00EC2FFFED3EFEE025E0FAE42480FBC8
:20272300EA34F9FAEC2BFCED3AFDE075F002A42480F58274FD35F0F583E0FAA3E0FBA82515
:202743007900EAC398FAEB99FB90FDF9E0F95301F090FDD6ECF0EDA3F090FDD8EAF0EBA310
:20276300F090FDDAE9F08F828E83122BE290F97FE0FF74016FF0E0FF75F002A42480F58225
:2027830074FD35F0F583E4F0A3F090FD84F090FD85F0802190FDB47412F0B2A490F97FE028
:2027A300FF75F002A42480F58274FD35F0F583E4F0A3F0B2A4C2A4AFE974CF5FF5E9E5E9DA
:2027C30030E61490FDB47410F0B2A4121E13B2A4AFE974BF5FF5E9E5E930E71490FDB47472
:2027E30011F0B2A4121E13B2A4AFE9747F5FF5E9D0D0D000D001D002D003D004D005D006B9
:20280300D007D083D082D0F0D0E0D02132AF83E58290FDB1F0EFA3F090FDAFE0FEA3E0FFC1
:2028230090FDB1E0FCA3E0FD90FDADE0FAA3E0FB8A008B011ABAFF011BE8496024EE2AF89F
:20284300EF3BF9E82CF8E93DF9EA2CF582EB3DF583C006C007E088828983F0D007D006805A
:02286300CF2282
:17328200000000000000010000000000000000000000000000000034
:20286500AE82AF831EBEFF011FC3E49E74808FF063F08095F050167C4C7D04EC24FFFAED41
:2028850034FFFB8A048B05EA4B70F080D722AE82E583CE25E0CE33FF1EBEFF011FC3E49E2E
:2028A50074808FF063F08095F040ED22AE82AF83D2A49003E8C007C006122865C2A4900183
:2028C500F4122865D006D0071526AD26ED20E754EE30E024900019C007C006C005122865A1
:2028E500D2A4900226122865C2A4900019122865D005D006D0078022900113C007C006C043
:2029050005122865D2A4900032122865C2A4900113122865D005D006D007EFC313CE13CE98
:20292500FF1D80A8C2A49003E8022865AFF0AE83E58290FDBCF0EEA3F0EFA3F090FDBCE042
:20294500FDA3E0FEA3E0FF90FDB9E0FAA3E0FBA3E0FCA827A928E8496050C000C0018D8244
:202965008E838FF0123079F98A828B838CF0123079F8E9C398F98929D001D0006010E529B7
:20298500F52A3395E0F52B852A82852B83220DBD00010E90FDBCEDF0EEA3F0EFA3F00ABAFF
:2029A50000010B18B8FF011980AC90000022AFBE74FB5FF5BEE5BE30E6FBAFC674B85FF5A8
:2029C500C6E5C620E6FB43BE04E5BE30E6FB53C6C743E40C43E401D2B92243FE03C2A42213
:2029E500C0E0C082C083C0D090FDB5E02401F0A3E03400F0A3E03400F0A3E03400F0D0D051
:072A0500D083D082D0E03243
:202A0C00121D83AF8290FDC3EFF08FF005F07401800225E0D5F0FB90FDC4F0EF75F008A427
:202A2C002467FE74F935F0FF90FDBFEEF0EFA3F08E828F83A3A374DFF08E828F83A3A3A30E
:202A4C0074B1F08E828F83A3A3A3A3A37410F074062EF582E43FF583E054E0441DF07407F6
:202A6C002EF582E43FF583E0543F4440F074072EF582E43FF583E054FC4401F0121D83AFA2
:202A8C008290FDC5EFF08FF005F07401800225E0D5F0FB90FDC6F0EF75F008A42467FE7407
:202AAC00F935F0FF90FDC1EEF0EFA3F08E828F8374DFF08E828F83A374B2F08E828F83A33A
:202ACC00A3A3A3A37410F074062EF582E43FF583E054E0441EF074072EF582E43FF583E02F
:202AEC0054CF4410F074072EF582E43FF583E054FC4401F043A91043B91022AF83E58290F0
:202B0C00FDC9F0EFA3F0E5B330E3FB90FDBFE0FEA3E0FF90FDC9E0FCA3E0FD8C028D038BC4
:202B2C00028E828F83EAF090FDBFE0FEA3E0FF8E828F83A37D00ECF090FDC4E042D690FDEB
:202B4C00C7E0FF90FDC8E0FE4F4401F5B3E5B330E3FB22AF83E58290FDCDF0EFA3F090FD9A
:202B6C00CDE0FEA3E0FF90FDCBE0FCA3E0FDEC540F60158C028D030CBC00010DEA2EF58221
:202B8C00EB3FF583E4F080E68C828D8322AF83E58290FDD4F0EFA3F090FDD4E0FEA3E0FFE0
:202BAC0090FDCFE0FCA3E0FD90FDD1E0FAA3E0FB90FDD3E0F990FDDDECF0EDA3F090FDDF30
:202BCC00EAF0EBA3F090FDE1E4F090FDE2E9F08E828F83022C2CAF83E58290FDDBF0EFA308
:202BEC00F090FDDBE0FEA3E0FF90FDD6E0FCA3E0FD90FDD8E0FAA3E0FB90FDDAE0F990FDC8
:202C0C00DDECF0EDA3F090FDDFEAF0EBA3F090FDE17402F090FDE2E9F08E828F83022C2C13
:202C2C00AF83E58290FDE3F0EFA3F0E5B330E3FB90FDE3E0FEA3E0FF90FDDDE0F52DA3E0A8
:202C4C00F52E90FDE2E0FB74505BF52C90FDE1E0F94B4401FB740149F52B90FDDFE0F527A3
:202C6C00A3E0F528E4F529F52AC3E5299527E52A9528400122C00390FDBFE0F8A3E0FBE581
:202C8C00292EF9E52A3FFA89048A058D0488828B83ECF090FDBFE0FCA3E0FD8C828D83A386
:202CAC00E9F090FDC1E0FCA3E0FD8C828D83A3A3E529252DFCE52A352EFD8C028D038B02AB
:202CCC00EAF090FDC1E0FAA3E0FB8A828B83A3A3A3ECF090FDC6E0FD90FDC4E0FC4D42D6C7
:202CEC00D003E52C6017E52724F0FCE52834FFFDECB52909EDB52A05852BB380028BB3E568
:122D0C00B330E3FB74102529F529E4352AF52A022C75FF
:202D1E00122DC1BC0003022F88EF60FA30D502B2D1E583B4FF03022F9EE582B4FF03022F0F
:202D3E009E258340072482400B022F882483145003022F9EF582EA8DF0A4A8F0EA8EF0A43B
:202D5E0028F8E435F0F9EB8DF0A428E935F0F9E433CA8FF0A429F9EA35F0FAEBF88EF0A4C4
:202D7E0029F9EA35F0FAE433FBEC8DF0A429F9EA35F0FAE43BFBE88FF0A42AFAEB35F0FB6C
:202D9E00E433CCFD8EF0A42AFAEB35F0FBE43CFCED8FF0A42BFBEC35F0FC20E703122DEF4D
:032DBE00022F677A
:202DC100AA82AB83A2F73392D1F5826002D2F7ACF0E58124F9F8E6FD08E6FE0886F008E675
:0E2DE100A2F73392D5F5836002D2F7AFF0224D
:0600BA00E478FFF6D8FD1A
:202DEF007804EC7011E58224F8500AF582E4C9CACBFCD8EF22EC7820058220E713D58201E3
:132E0F0022C3E933F9EA33FAEB33FBEC33FCD8EA158222F0
:1F2E2200AC82AD83AE28AF29BE0004EF600C1F0FE527122EE2A3DEFADFF88C828D83227A
:202E4100AD82AE83AFF08D2C8E2D8F2E85272F852830852931A82AA92B8803890418B8FF1D
:202E61000119EB4C6025852F828530838531F0123079FCA385822F8583308D828E838FF000
:152E8100EC122EE2A3AD82AE8380CE852C82852D83852EF022B0
:200098007917E94400601B7A0190328278E57593FDE493F2A308B800020593D9F4DAF2757B
:0200B80093FFB4
:132E9600FCABF0AA83A982749EC2D1F582122DEF022F6758
:202EA9007F9E122ED030D103022F88C3EF9582500974FFF5F0F583F58222790012309589BB
:072EC900828A838BF0EC22EA
:122ED000AA82AB83A2F73392D1F5826002D2F7ACF02207
:1B2EE20020F71130F6138883A88220F509F6A8837583002280FEF280F5F022EF
:1D2EFD00E5828527F0A4C582C0F08528F0A4D0F025F0C5838527F0A42583F583223A
:202F1A00E527452860467A01E52725E0F527E528334012F528E5829527E583952840030A8C
:202F3A0080E6C3E52813F528E52713F527C3E5829527F5F0E58395284005F58385F082C36F
:0D2F5A00E52813F528E52713F527DAE12215
:2000C0007800E84400600A79007593F0E4F309D8FC78E5E8440D600C790E90F000E4F0A36D
:0400E000D8FCD9FA75
:02008900E4731E
:202F6700B98003EA13B34010EA2401FAE43BFBE43CFC50047C800582BC000EBB000BBA00AE
:202F870008E4F5F0F583F58222A2D1E582138CF092F78B838A8222E4F583F58275F080F46E
:0F2FA700A2D11322E4F583F58275F0C0747F2266
:202FB600122DC130D502B2D1BF0009BC0003022FAB022F9EBC0003022F88E583B4FF0BE5BC
:202FD60082B4FF03022FAB022F88E582B4FF03022F9EC395835007247F400B022F882480A5
:202FF600145003022F9EF582C3ED9AEE9BEF9C40111582C3EA33F9EB33FAEC33FBE433FCAA
:203016008005E4CCCBCAF9C08275F019C3E99DEA9EEB9FEC9400D5F002802D400EE99DF9FB
:20303600EA9EFAEB9FFBEC9400FCC3B3E833F8E58233F582E58333F583C3E933F9EA33FA5B
:20305600EB33FBEC33FC80C4B3E4F938FAE43582FBE43583FCD082500405827C80122DEF9B
:03307600022F7FA7
:0D008B007581311230D8E5826003020086D5
:1C30790020F71430F6148883A88220F507E6A88375830022E280F7E49322E02266
:203095006040F82582500274FFF582E824F8501ECCCBCAF9E4CC24F85014CBCAF9E4CB2443
:2030B500F8500BCAF9E4CA24F8500379002224086010F8C3EC13FCEB13FBEA13FAE913F9F6
:0330D500D8F1220D
:0430D80075820022DB
:00000001FF
