:0600000002008902183322
:01000B0032C2
:0100130032BA
:01001B0032B2
:0100230032AA
:01002B0032A2
:030033000211E8CF
:01003B003292
:01004300328A
:03004B00021F5E33
:030053000206ABF7
:03005B0002098512
:01006300326A
:03006B0002000090
:01007300325A
:01007B003252
:03008300021B5706
:0300FF0002008676
:03008600020F3630
:20010200AF83E58290F554F0EFA3F075E10490DF3BE0FFBF01F890F554E0FEA3E0FF90DFB6
:2001220006EEF075E10290DF3BE0FFBF0DF8227E007F0090FB7BE0FCA3E0FD8E028F03C3CE
:20014200EA9CEB9D503AEE2400FCEF34F0FD90FB79E0F522A3E0F5238A828B83C007C006AA
:20016200C005C004122493AA82AB83D004D005D006D0078C828D83EAF00EBE00B60F80B3BF
:2001820022E58290F556F0E0FFE59CC39FF59CE59C24FAF59C439E10D2BA22AF9E74EF5FD8
:2001A200F59E22AF83E58290F55AF0EFA3F090FB74E0601390265512122B90FB74E0F5829C
:2001C20012126D7582EF2290FB747406F090DF3BE0FFBF130280F6C2A490F557E0FEA3E0A5
:2001E200FF90FBDBEEF0EFA3F090FBD574F1F0E4A3F090FB6B7472F074F3A3F090FBD3E404
:20020200F0A3F090FB86F090FBCFF090FB85F090FBD104F0E4A3F090FBD07402F090F55CA5
:20022200E4F090000012034A90F55AE0FEA3E0FF90F559E0FD7B007C008D017A00C3EB99B9
:20024200EC9A50548B02EA75F0F0A42EF9E43FFA90F55C74F0F089828A83C007C006C0051F
:20026200C004C00312034AAA82D003D004D005D006D007EA601B9026A7C00212122BD0029C
:2002820090FB74E4F08A82C00212126DD0028A82220BBB00A40C80A190FBDEE0FF30E33305
:2002A20090FBDBE0FEA3E0FFEE540F602690FBDBE0FEA3E053060F7F007410C39EFEE49F8B
:2002C200FF90FBDBE0FCA3E0FD90FBDBEE2CF0EF3DA3F090FBDBE0FEA3E0FFC374FF9EE4AE
:2002E2009F502390FBDBE0FEA3E090DF02EEF090DF04E0FF74FC5FF0E0FF74024FF090FBA4
:20030200DD7401F0801290FBDBE0FEA3E0FF90DF02EEF090FBDDE4F075E1037E607FEA9086
:20032200DF3BE0FDBD130280091EBEFF011FEE4F70EDD2A4EE4F700C90FB997413F0902654
:20034200BF12122B75820022AF83E58290F55DF0EFA3F090F55CE0FF240F500A9026D012A2
:20036200122B7582FF22EF703E90FB85E4F090FB85E0FE90FBD0E0FDC3EE9D502190FB85B0
:20038200E075F0F1A42472F58274F335F0F583E4F090FB85E0FE0E90FB85EEF080D090FBD7
:2003A20085E4F07582002290FB74E0FE601DBE061E90FB85E0601890DF3BE0FEBE1302804A
:2003C2000E90FB747407F07582ED227582ED2290FB85E075F0F1A42472FD74F335F0FE8D03
:2003E200828E83E0600A90FB997418F07582FE228D828E8374FFF090FB85E075F0F1A424D6
:2004020072FD74F335F0FE0DBD00010E7C0090F55DE0FAA3E0FB8A228B238C248F037F0037
:200422008B258F268D828E838CF0C007C0031223BAD003D00790FBDEE0FE20E3030204F251
:2004420090FB85E075F0F1A42472FD74F335F0FE0DBD00010E90FBB0EBF0EFA3F08D828E85
:20046200831220D8AE8290F55CEEF090FBDEE0FF530704BF043F90FB85E075F0F1A42472D6
:20048200FD74F335F0FF0DBD00010F8E037C0090FBDEE0FA5302F090FBB4EDF0EFA3F09035
:2004A200FBB6EBF0ECA3F090FBB8EAF08D828F83122112803B90FB85E075F0F1A42472FD74
:2004C20074F335F0FF0DBD00010F7C0090FBDEE0FB5303F090FBBBEDF0EFA3F090FBBDEED4
:2004E200F0ECA3F090FBBFEBF08D828F8312215B90FB85E075F0F1A42472FE74F335F0FFAE
:2005020090F55CE0FD8E828F83F090FB85E0FF0F90FB85EFF090FBD0E0FEEFB5060590FBA9
:2005220085E4F075820022AF83E58290F55FF0EFA3F090FB74E0FF6014BF0102800F9026FF
:20054200EA12122B90FB74E0F58212126D12019D90FB7DE4F0A3F090FB7DE0FEA3E0FF8E64
:20056200828F8312062B90DF3BE0FFBF0DF890DF3AE0FF53077FBF6000402790FB7DE0FE88
:20058200A3E0FF0EBE00010F90FB7DEEF0EFA3F0D2A490000A121DDEC2A490000A121DDE69
:2005A20080B590FB747402F090FB9AE0FCA3E0FDA3E0A3E090FB7FECF0EDA3F090F55FE0EE
:2005C200FEA3E0FF90FB83EEF0EFA3F02290FB74E4F090FB9AE0FCA3E0FDA3E0A3E090FB24
:2005E2007FECF0EDA3F02290FB747404F090FB9AE0FCA3E0FDA3E0A3E090FB7FECF0EDA398
:20060200F02290FB747405F090FB87E4F0A3F090FB9AE0FCA3E0FDA3E0A3E090FB7FECF078
:20062200EDA3F0758200020183AF83E58290F561F0EFA3F090F561E0FEA3E0FFEE2400F57D
:2006420082EF34F0F583E0FF7E008F828E83020102AF83E58290F563F0EFA3F090F563E04C
:20066200FEA3E0FF90F370EEF0EFA3F0222290FB7DE0FEA3E0FF0EBE00010F90FB7DEEF037
:20068200EFA3F0C3EE9470EF9403400790FB7DE4F0A3F090FB7DE0FEA3E0FFEE2400F582F4
:2006A200EF34F0F583E0F58222C021C0E0C0F0C082C083C007C006C005C004C003C002C023
:2006C20001C000C0D075D00090FB70E02401F0A3E03400F090FB75E0FEA3E0FF90FB70E0B0
:2006E200FCA3E0FDECB5060BEDB5070790FB70E4F0A3F090FB70E0FEA3E0FFBE0005BF00DB
:2007020002800BBE0105BF0002806802086D90FB70E0FEA3E08E077E00AC9C7D00EC4206FE
:20072200ED420790FB81EEF0EFA3F090FB7DE0FEA3E0FF0EBE00010F90FB7DEEF0EFA3F069
:2007420090FB7BE0FCA3E0FDC3EE9CEF9D400790FB7DE4F0A3F090DF3BE0FFBF130302093D
:200762006890FB7DE0FEA3E0FF8E828F8312062B02096890FB74E0FFBF0502800302096835
:20078200900019121DDE90F567741CF090FB7DE0FEA3E090F568EEF090FB7DE0A3E090F511
:2007A20069F090F56A7442F090F56B744CF090F56C7441F090F56D7448F090F56E7442F0DC
:2007C20090F56F744CF090F5707441F090F5717448F090F5727442F090F573744CF090F56D
:2007E200747441F090F5757448F090F5767442F090F577744CF090F5787441F090F57974D7
:2008020048F090F57A7442F090F57B744CF090F57C7441F090F57D7448F090F57E7442F04C
:2008220090F57F744CF090F5807441F090F5817448F090F5827420F090FB89741CF0E4A300
:20084200F090FB8BF0A3F090FB8DF0A3F090F5681214C290FB87E0FEA3E0FF0EBE00010F4F
:2008620090FB87EEF0EFA3F002096890FB74E0FFBF03028065BF04028008BF050280030272
:20088200096890FB7FE0FEA3E0FF90FB9AE0FAA3E0FBA3E0FCA3E0FD8E008F01E4FEFFEA16
:2008A200C398FAEB99FBEC9EFCED9FFDC374649AE49BE49CE49D502290271812122B90FB83
:2008C200747405F090FB9AE0FCA3E0FDA3E0FEA3E0FF90FB7FECF0EDA3F090FB86E075F0F9
:2008E200F1A42472FE74F335F0FF8E828F83E06075900019121DDE90FB86E075F0F1A424A6
:2009020072FE74F335F0FF90DF04E05401FDB40100E4332EFDE43FFC8E828F83E090FB8909
:20092200F0E4A3F090FB8BF0A3F090FB8DF0A3F08D828C831214C290FB86E075F0F1A42405
:2009420072F58274F335F0F583E4F090FB86E0FF0F90FB86EFF0BF0200400590FB86E4F0FA
:2009620090273612122BD0D0D000D001D002D003D004D005D006D007D083D082D0F0D0E0E8
:20098200D021323290FB74E4F090FB85F090FB86F090FB7DF0A3F090FB797453F0E4A3F06F
:2009A20090FB7B7453F0E4A3F090FB81F0A3F090FB7FF0A3F090FB757406F0E4A3F090FB79
:2009C20077F0A3F090FB83F0A3F090FB87F0A3F012013190FB74E4F0759DDC859E9E439E4E
:2009E2000443CB1022020986900E0E12000090FB9AE4F0A3F0A3F0A3F01209E790F583E4C2
:200A0200F090F5847465F074F7A3F02290FB74E0FFBF0003020D43BF0103020C14BF020357
:200A2200020B12BF0303020D43BF0403020D43BF0503020D24BF060122BF40028006BF41FD
:200A42000280422275E10490DF3BE0FFBF01F890DF0374E5F090DF047404F090DF07741281
:200A6200F090DF08E4F090DF147410F090DF17E0FF74C04FF090FB747441F090F5847465E4
:200A8200F074F7A3F090F583E4F090FB87E0FEA3E0FF90F583E0FDFB7C00C3EB9EEC9F5095
:200AA2004590DF06EDF075E10490DF3BE0FFBF01F875E10290DF3BE0FFBF0DF890000212B9
:200AC2001DDE90F584E0FEA3E0FF90F583E02EFEE43FFF90DF3AE0FD8E828F83F090F583DA
:200AE200E02401F080A475E10490DF3BE0FFBF01F890FB87E0FEA3E08E1375140090F5849A
:200B0200E0F515A3E0F5167512017582430211C1E5197003020C0290FB98740DF0AF9A74F3
:200B2200FE5FF59AE51920E403020C0290FB747403F090FB72E0FEA3E08E82120183902791
:200B42004412122B90FB72E0FEA3E0FF8E828F8312128890F764E025E0FEE42465FFEE3479
:200B6200F7FE8F828E8312122B90F764E0FFB40100E433FF90F583F0EF2469FDE434FBFEF6
:200B82008D828E83E0707290DF04E0FE30E0378F06EE2EFDE42465F582ED34F7F583E0FED9
:200BA2008E137514008F06EE2EFDE42465FEED34F7FD74012EF515E43DF516751201758283
:200BC200421211C1802290DF02E0FE8E13E4F514EF2FFEE42465FFEE34F7FE8F158E167512
:200BE20012017582421211C190F583E0FF2469F582E434FBF5837401F0AF1974EF5FF51950
:200C0200D20010AF02C200751900A20092AF439A0122E5197003020D1290FB98740DF0AF37
:200C22009A74FE5FF59AE51920E403020D1290F764E0FF90F583B40100E433F090275912E2
:200C4200122B90F583E025E0FEE42465FFEE34F7FE8F828E8312128890F583E025E0FEE44A
:200C62002465FFEE34F7FE8F828E8312122B90F764E0FFB40100E433FF90F583F0EF246959
:200C8200FDE434FBFE8D828E83E0707290DF04E0FE30E0378F06EE2EFDE42465F582ED3417
:200CA200F7F583E0FE8E137514008F06EE2EFDE42465FEED34F7FD74012EF515E43DF516B4
:200CC2007512017582421211C1802290DF02E0FE8E13E4F514EF2FFEE42465FFEE34F7FE4F
:200CE2008F158E167512017582421211C190F583E0FF2469F582E434FBF5837401F0D20058
:200D020010AF02C200AF1974EF5FF519A20092AFD20010AF02C200751900A20092AF439A30
:200D2200012290FB87E0FEA3E0FF90FB7BE0FCA3E0FDC3EE9CEF9D50012290FB747404F007
:200D420022E51970012290FB98740DF0E519543070012290F764E0FFB40100E433FF90F51B
:200D620083F0EF2469FDE434FBFE8D828E83E06003020DFB90DF04E0FE30E0378F06EE2EBE
:200D8200FDE42465F582ED34F7F583E0FE8E137514008F06EE2EFDE42465FEED34F7FD7436
:200DA200012EF515E43DF5167512017582421211C1803590FBCAE0E0600A90FBCDE0FDA31B
:200DC200E0FE800890DF02E0FCFD7E00EF2FFCE42465FFEC34F7FC8F158C167512018D13DC
:200DE2008E147582421211C190F583E0FF2469F582E434FBF5837401F0D20010AF02C20002
:200E0200AF1974CF5FF519A20092AF229000002222229000002290DF2FE4F090DF30F0901A
:200E2200DF31F090DF00740CF090DF01744EF090DF0274FFF090DF037440F090DF04E4F07E
:200E420090DF05F090DF06F090DF077406F090DF08E4F090DF097424F090DF0A743AF090F5
:200E6200DF0B74F1F090DF0C74CAF090DF0D74A3F090DF0E7401F090DF0F7423F090DF109F
:200E82007411F090DF117436F090DF127407F090DF13740FF090DF147418F090DF1514F059
:200EA20090DF16746CF090DF177403F090DF187440F090DF197491F090DF1A7456F090DF94
:200EC2001B7410F090DF1C74E9F090DF1D742AF090DF1EE4F090DF1F741FF090DF2374888F
:200EE200F090DF247431F090DF257409F090DF2E74C0F090DF07C4F090DF097425F090DF7C
:200F02000A7495F090DF0B7455F090DF1A74B6F090DF1B7410F090DF1C74EAF090DF1D741F
:200F22002AF090DF1EE4F090DF1F741FF022121F2C021F58120F301212D2121F851210F11B
:200F42001214341209EA1211BBD2AF1211E9D2A4900002121DDEC2A490000A121DDE121180
:060F620029120A0E80F8BE
:2026550043616E6E6F742063616C6C207472616E736D69745F6C6F6E67207768696C65204C
:202675004648535320486F7070696E67206F7220616C72656164792070726F636573736991
:202695006E67207472616E736D69745F6C6F6E6721004D41435F74782829207265747572CF
:2026B5006E6564206572726F72006E6576657220656E7465726564205458004648535378E5
:2026D5006D6974206D65737361676520746F6F206C6F6E67004648535320737461746520BF
:2026F500656E746572696E672053594E4348494E472066726F6D2077726F6E67207374615D
:2027150074650053594E43485F4D4153544552202D3E2053594E43494E474D415354455289
:202735000046485353786D697420646F6E65006E6574776F726B207061636B657428737912
:1E2755006E6329006E6574776F726B207061636B657428646973636F766572792900A1
:1800E200750800750900750A00750B00750C00750D00751000751100FE
:200F6800C0E0C082C083C007C0D075D000AFF9E50F700EBF990B850B11750F018511F980F6
:200F88005A7401B50F148F10E5107004E5116005750F028003750F0080417402B50F3CC3B8
:200FA800E50895105035742425084025E5092486F582E434F5F583EFF00509742425095051
:200FC800037509000508E510B50806751000750E01E5117006E5107002F50FD0D0D007D09C
:200FE80083D082D0E032C0E0C082C083C007C0D075D000AFE874FB5FF5E87401B50F028074
:20100800057402B50F36E511602DE50B60291511E5117006E5107002F50FE50D2462F5826B
:20102800E434F6F583E0F5F9150B050D7424250D500D750D00800875F999800375F999D090
:20104800D0D007D083D082D0E03222AF827424250B500D150B050D7424250D5003750D0011
:20106800E50C2462F582E434F6F583EFF0050C7424250C5003750C00050B22E50E70047559
:2010880082FF22E50A2486F582E434F5F583E0F58222E50E70047582FF22E50A2486F58208
:2010A800E434F5F583E0FF050A7424250A5003750A001508E5087002F50E8F8222AF8874BF
:2010C800F75FF588D2ABAFE874FB5FF5E8439A0822AF8874F75FF588C2ABAFE874FB5FF52A
:2010E800E8AF9A74F75FF59A22AFF174FE5F4402F5F143F4F0AFFE740F5FF5FEAFF8747F5C
:201108005F4420F5F875FA3BE5FC75FC0BAF8874F75FF588D2ABAFE874FB5FF5E8439A08EE
:201128002222AD82AE83AFF0C007C006C00512109AAC82D005D006D0078C03BC0A028011BE
:201148008D828E838FF0EB12245BA3AD82AE8380D78D828E838FF0E402245BAFF0AE83E559
:201168008290F73EF0EEA3F0EFA3F090F73EE0FDA3E0FEA3E0FF8D828E838FF01225F2FCC4
:2011880060230DBD00010E90F73EEDF0EEA3F0EFA3F08C82C007C006C005121053D005D0CC
:2011A80006D00780D190F73EEDF0EEA3F0EFA3F00210520210C50210D9AE15AF168E828F07
:2011C80083E0FD60148D820EBE00010FC007C006121053D006D00780E4121052900000220F
:0211E8003222B1
:2011EA00AF83E58290F741F0EFA3F090F741E0FEA3E0FF7C007D008E028F038A828B83E0D5
:20120A00F9A3AA82AB83E960070CBC00EE0D80EB7512F08C138D148E158F167582FE021149
:20122A00C1AF83E58290F743F0EFA3F090F743E0FEA3E0FF7C007D008E028F038A828B83AF
:20124A00E493F9A3AA82AB83E960070CBC00ED0D80EA8E158F167512F08C138D147582FEA7
:20126A000211C1E58290F745F07515457516F77512F17513017514007582FE0211C1AF8397
:20128A00E58290F746F0EFA3F07515467516F77512F27513027514007582FE0211C1AF82C6
:2012AA00AE83ADF0FC90F748EFF0EEA3F0EDA3F0ECA3F07515487516F77512F3751304755D
:0812CA0014007582FE0211C13F
:0500FA00E4F517F51804
:2012D2007E4C7FF78FD57E4C7FF78ED47E547FF78FD37E547FF77F008ED28F227523188FF5
:2012F2002490F74C75F00002239B7403B51706E4B51802800280047582FF22AE17AF180515
:0A13120017E4B5170205188E8222B9
:20131C0012240FAC82AD83AEF0FFC004C005C006C0079037BD75F086743D122297AC82AD95
:20133C0083AEF0FFE58124FCF581E4C0E0C0E074C0C0E07441C0E08C828D838EF0EF122566
:20135C002FAC82AD83AEF0FFE58124FCF5818C828D838EF0EF122422AC82AD83AEF090DFFD
:20137C0009EEF08D0390DF0AEBF090DF0BECF02275E10490DF3BE0FFBF01F890FB6FE0F5A4
:20139C00E190FB6FE0FFBF04012290DF3BE0FFBF010280ED2290FB6FE0FFBF02012290DF8B
:2013BC0013E0FF74F05FF0E0FF740F4FF090FB6F7402F00217DA90FB6FE0FFBF030122902A
:2013DC00DF13E0FF74F05FF0E0FF740A4FF090FB6F7403F0F5E190DF3BE0FFBF13F8229095
:2013FC00FB6FE0FFBF04012290DF13E0FF74F05FF0AF9174EF5FF59175E10490DF3BE0FF23
:20141C00BF01F8AF9B74FC5FF59BAFE974EF5FF5E990FB6F7404F02290FB72E4F0A3F0909F
:20143C00FB65F0A3F090FB67F0A3F053C6C7759D00859E9E439E0485A9A943B90190FB6FD2
:20145C007404F0752200752300F52490F76575F00012239B120E18D2A87591D175E9007543
:20147C001900439A0175E10490DF3BE0FFBF01F8227E007F00C3EE94DCEF9405502490DF13
:20149C003CE0FD5450600490000122900032C007C006121E0CD006D00774322EFEE43FFF30
:2014BC0080D390000022AF83E58290FB8FF0EFA3F090FB91E4F090DF02E0FF90DF3BE0FE1E
:2014DC00BE1304B2A480F4C2A490FBDDE4F090FB8BE0FDA3E0FE90FBD3EDF0EEA3F090FBF4
:2014FC008DE0FBA3E0FC90FBD9EBF0ECA3F090FB89E0F9A3E0FA90FBD5E9F0EAA3F090FB80
:20151C00D7E9C39BF0EA9CA3F090FBD7E0FBA3E0FC8D228E238B828C83C007C006C005C03E
:20153C0002C001122476AB82AC83D001D002D005D006D00790FBDBEB29F0EC3AA3F0E94A49
:20155C00705D90FB8FE0FBA3E0FC8B828C83E0F8881A751B0090FB89E51AF0E51BA3F090E2
:20157C00DF04E0F8530003B800028018B80102800302164D90FB897401251AF0E4351BA3BA
:20159C00F002164D90FB8F74012BF0E43CA3F090FB89E0FBA3E0FC90DF02EBF002164D90CE
:2015BC00DF04E0FC530403BC00028046BC0102800302164D90FB8FE0FBA3E0FC90FB92E951
:2015DC00F0EAA3F090FB947401F0E4A3F08B828C83C007C002C001121D89D001D002D007EF
:2015FC0090FB8FE0FBA3E0FC89008B828C83E8F0803FED4E603690FBDBE0FDA3E090DF0217
:20161C00EDF090DF04E0FE74FC5EF090FBDBE0FDA3E0FEC374FF9DE49E500990DF04E0FEFF
:20163C0074024EF090FBDD7401F0800590DF02E9F0D2A890FBDEE0FE20E30302177B90DF74
:20165C0004E0FE530603BE010690FB917401F090FB91E0FE90FB8FE0FCA3E0FDEE2CFAE482
:20167C003DFB90FB89E0F8A3E0F990FBB0E8F0E9A3F08A828B83C007C006C005C0041220BD
:20169C00D8AA82AB83D004D005D006D00790FBDEE0F9530104B90448C007EE2CF8E43DF914
:2016BC0090FBDEE0FF5307F090FBB4E8F0E9A3F090FBB6EAF0EBA3F090FBB8EFF08882899B
:2016DC0083C007C006C005C004C003C002122112D002D003D004D005D006D007D0078046F3
:2016FC00C007EE2CF8E43DF990FBDEE0FF5307F090FBBBE8F0E9A3F090FBBDEAF0EBA3F00F
:20171C0090FBBFEFF088828983C007C006C005C004C003C00212215BD002D003D004D005F7
:20173C00D006D007D007EE601E90FBDEE0FE5306F0BE50098C828D837410F080228A068CA6
:20175C00828D83EEF0801890FBDEE0FE5306F0BE500890DF027410F0800590DF02EAF0907A
:20177C00FB8FE0FDA3E0FE90FB6BEDF0EEA3F090FBD1E4F0A3F075E1037D607EEA90DF3B06
:20179C00E0FCBC1302800D1DBDFF011EED4E6004B2A480E9D2A4ED4E700690FB997413F0DB
:2017BC0090DF3BE0FEBE130BB2A4C007121129D00780EDC2A490DF02EFF075820122D2A8B2
:2017DC0075220075230075240290F76575F00012239B90FB65E4F0A3F090FB67F0A3F090A6
:2017FC00FB69F090FB6A04F090F764E4F0AF9B74FC5FF59BAFE974EF5FF5E975E10290DF29
:20181C003BE0FFBF0DF84391102290FBE07401F02290FBE0E4F022C021C0E0C0F0C082C042
:20183C0083C007C006C005C004C003C002C001C000C0D075D00090FB987411F0C28990DFC6
:20185C003BE0FFBF0D02800302197DD2A490FBCAE0E0602A90FBCBE0FEA3E0FF90FBCBE068
:20187C0024FFFCA3E034FFFD90FBCBECF0EDA3F074FF2F400990DF04E0FF74FC5FF090FB41
:20189C006F7402F090F764E025E0FEE42465FFEE34F7FEE075F002A42465FC74FB35F0FD05
:2018BC008C828D83E0FAA3E0FB74012AF8E43BF98C828D83E8F0E9A3F0EA2FF582EB3EF5C7
:2018DC0083E5D9F090F764E075F002A42465F58274FB35F0F583E0FEA3E0FFC39402501AB6
:2018FC0090F764E075F002A42465F58274FB35F0F583E0FEA3E0FF4E701A90F764E0FF7573
:20191C00F002A42465F58274FB35F0F58374FFF07401A3F090FBCBE0A3E090FBCBE0F5F0CA
:20193C00A3E045F06003021B3A90FBCAE0E07003021B3A90FBCDE0FEA3E0FF90FBCBEEF04E
:20195C00EFA3F090FBCBE0FEA3E090DF02EEF090DF04E0FF74FC5FF0E0FF74024FF0021B21
:20197C003A90DF3BE0FFBF13028003021B3A90FBDDE0E07003021ACB90FB81E0FEA3E0FFEC
:20199C000EBE00010F90FB81EEF0EFA3F090FBD1E0FEA3E0FF90FBD5E0FCA3E0FDEEB504C4
:2019BC0006EFB505028003021A9E90FBD3E0A3E090FBD3E0F5F0A3E045F0603790FBD3E0AC
:2019DC00FEA3E0FFBEFF05BF0002801490FBD3E024FFFEA3E034FFFF90FBD3EEF0EFA3F082
:2019FC0090FBD9E0FEA3E0FF90FBD1EEF0EFA3F0021A9E90FBD5E0F522A3E0F52390FBCF45
:201A1C00E0FF7E008F828E83122476AE82AF8390FB6BE0FCA3E0FDEE2CF582EF3DF583E4B2
:201A3C00F090FBCFE02401F0E0FF90FBD0E0FEEFB5060590FBCFE4F090FBD5E0F522A3E07C
:201A5C00F52390FBCFE0FF7E008F828E83122476AE82AF8390FB6BE0FCA3E0FDEE2CFEEF12
:201A7C003DFF8E828F83E0701090FB74E4F090FB997412F012138CC2A490FBD17401F0E463
:201A9C00A3F090FBDBE0FEA3E0FF90FBDBE024FFFCA3E034FFFD90FBDBECF0EDA3F0BEFF3A
:201ABC0022BF001F90DF04E0FF74FC5FF0801490FBDBE024FFFEA3E034FFFF90FBDBEEF005
:201ADC00EFA3F090FB6F7403F090FBD5E0F522A3E0F52390FBCFE0FF7E008F828E83122406
:201AFC0076AE82AF8390FBD1E0FCA3E0FD90FBD1E02401F0A3E03400F0EC2EFEED3FFF906F
:201B1C00FB6BE0FCA3E0FDEE2CF582EF3DF583E0F5D990FB6DE02401F0A3E03400F0D0D0D0
:201B3C00D000D001D002D003D004D005D006D007D083D082D0F0D0E0D02132C021C0E0C074
:201B5C00F0C082C083C007C006C005C004C003C002C001C000C0D075D000751C0090FB984F
:201B7C007410F0AE9B74FC5EF59BE5E94219E5E930E02090FB70E0FDA3E08D067D00AB9C55
:201B9C007C0090FB72ED4BF0EE4CA3F0AEE974FE5EF5E9E5E954707003021D3A90FB6FE03E
:201BBC00FEBE030AAE19748F5EF519021D3390F764E0FEB40100E4332469F582E434FBF517
:201BDC0083E0FEBE01028003021D1090FBDEE0FE20E103021CE990DF04E0FE530603BE0157
:201BFC0003751C0190FBDEE0FE530601BE017090F764E025E0FDE42465FEED34F7FDAB1C50
:201C1C007C00EB2EFEEC3DFDE0F929FAE42465F9EA34F7FAEB29FBEC3AFCE075F002A4243E
:201C3C0065F58274FB35F0F583E0F9A3E0FAA81C7F00E9C398F9EA9FFA90FBDEE0FF5307A5
:201C5C00F090FBB4EBF0ECA3F090FBB6E9F0EAA3F090FBB8EFF08E828D83122112806E9043
:201C7C00F764E025E0FEE42465FFEE34F7FEAC1C7D00EC2FFFED3EFEE025E0FAE42465FBB8
:201C9C00EA34F7FAEC2BFCED3AFDE075F002A42465F58274FB35F0F583E0FAA3E0FBA81CCF
:201CBC007900EAC398FAEB99FB90FBDEE0F95301F090FBBBECF0EDA3F090FBBDEAF0EBA3F9
:201CDC00F090FBBFE9F08F828E8312215B90F764E0FF74016FF0E0FF75F002A42465F5829D
:201CFC0074FB35F0F583E4F0A3F090FB69F090FB6AF0802190FB997412F0B2A490F764E030
:201D1C00FF75F002A42465F58274FB35F0F583E4F0A3F0B2A4C2A4AFE974CF5FF5E9E5E988
:201D3C0030E61490FB997410F0B2A412138CB2A4AFE974BF5FF5E9E5E930E71490FB9974CF
:201D5C0011F0B2A412138CB2A4AFE9747F5FF5E9D0D0D000D001D002D003D004D005D006DC
:201D7C00D007D083D082D0F0D0E0D02132AF83E58290FB96F0EFA3F090FB94E0FEA3E0FF8D
:201D9C0090FB96E0FCA3E0FD90FB92E0FAA3E0FB8A008B011ABAFF011BE8496024EE2AF86B
:201DBC00EF3BF9E82CF8E93DF9EA2CF582EB3DF583C006C007E088828983F0D007D00680EC
:021DDC00CF2214
:1727730000000000000001000000000000000000000000000000004E
:201DDE00AE82AF831EBEFF011FC3E49E74808FF063F08095F050167C4C7D04EC24FFFAEDD3
:201DFE0034FFFB8A048B05EA4B70F080D722AE82E583CE25E0CE33FF1EBEFF011FC3E49EC0
:201E1E0074808FF063F08095F040ED22AE82AF83D2A49003E8C007C006121DDEC2A49001A6
:201E3E00F4121DDED006D007151DAD1DED20E754EE30E024900019C007C006C005121DDE68
:201E5E00D2A4900226121DDEC2A4900019121DDED005D006D0078022900113C007C006C0F8
:201E7E0005121DDED2A4900032121DDEC2A4900113121DDED005D006D007EFC313CE13CEE0
:201E9E00FF1D80A8C2A49003E8021DDEAFF0AE83E58290FBA1F0EEA3F0EFA3F090FBA1E0A0
:201EBE00FDA3E0FEA3E0FF90FB9EE0FAA3E0FBA3E0FCA822A923E8496050C000C0018D82FD
:201EDE008E838FF01225F2F98A828B838CF01225F2F8E9C398F98924D001D0006010E52477
:201EFE00F5253395E0F526852582852683220DBD00010E90FBA1EDF0EEA3F0EFA3F00ABAC2
:201F1E0000010B18B8FF011980AC90000022AFBE74FB5FF5BEE5BE30E6FBAFC674B85FF539
:201F3E00C6E5C620E6FB43BE04E5BE30E6FB53C6C743E40C43E401D2B92243FE03C2A422A4
:201F5E00C0E0C082C083C0D090FB9AE02401F0A3E03400F0A3E03400F0A3E03400F0D0D0FF
:071F7E00D083D082D0E032D5
:201F85001212FCAF8290FBA8EFF08FF005F07401800225E0D5F0FB90FBA9F0EF75F008A485
:201FA500244CFE74F735F0FF90FBA4EEF0EFA3F08E828F83A3A374DFF08E828F83A3A3A3DA
:201FC50074B1F08E828F83A3A3A3A3A37410F074062EF582E43FF583E054E0441DF0740788
:201FE5002EF582E43FF583E0543F4440F074072EF582E43FF583E054FC4401F01212FCAFC6
:202005008290FBAAEFF08FF005F07401800225E0D5F0FB90FBABF0EF75F008A4244CFE74ED
:20202500F735F0FF90FBA6EEF0EFA3F08E828F8374DFF08E828F83A374B2F08E828F83A3EA
:20204500A3A3A3A37410F074062EF582E43FF583E054E0441EF074072EF582E43FF583E0C0
:2020650054CF4410F074072EF582E43FF583E054FC4401F043A91043B91022AF83E5829081
:20208500FBAEF0EFA3F0E5B330E3FB90FBA4E0FEA3E0FF90FBAEE0FCA3E0FD8C028D038BAD
:2020A500028E828F83EAF090FBA4E0FEA3E0FF8E828F83A37D00ECF090FBA9E042D690FBB9
:2020C500ACE0FF90FBADE0FE4F4401F5B3E5B330E3FB22AF83E58290FBB2F0EFA3F090FB83
:2020E500B2E0FEA3E0FF90FBB0E0FCA3E0FDEC540F60158C028D030CBC00010DEA2EF582EB
:20210500EB3FF583E4F080E68C828D8322AF83E58290FBB9F0EFA3F090FBB9E0FEA3E0FFAB
:2021250090FBB4E0FCA3E0FD90FBB6E0FAA3E0FB90FBB8E0F990FBC2ECF0EDA3F090FBC452
:20214500EAF0EBA3F090FBC6E4F090FBC7E9F08E828F830221A5AF83E58290FBC0F0EFA382
:20216500F090FBC0E0FEA3E0FF90FBBBE0FCA3E0FD90FBBDE0FAA3E0FB90FBBFE0F990FBCF
:20218500C2ECF0EDA3F090FBC4EAF0EBA3F090FBC67402F090FBC7E9F08E828F830221A5A9
:2021A500AF83E58290FBC8F0EFA3F0E5B330E3FB90FBC8E0FEA3E0FF90FBC2E0F528A3E096
:2021C500F52990FBC7E0FB74505BF52790FBC6E0F94B4401FB740149F52690FBC4E0F522A0
:2021E500A3E0F523E4F524F525C3E5249522E5259523400122C00390FBA4E0F8A3E0FBE553
:20220500242EF9E5253FFA89048A058D0488828B83ECF090FBA4E0FCA3E0FD8C828D83A33E
:20222500E9F090FBA6E0FCA3E0FD8C828D83A3A3E5242528FCE5253529FD8C028D038B026D
:20224500EAF090FBA6E0FAA3E0FB8A828B83A3A3A3ECF090FBABE0FD90FBA9E0FC4D42D6AF
:20226500D003E5276017E52224F0FCE52334FFFDECB52409EDB525058526B380028BB3E517
:12228500B330E3FB74102524F524E43525F5250221EE37
:2022970012233ABC0003022501EF60FA30D502B2D1E583B4FF03022517E582B4FF0302255E
:2022B70017258340072482400B0225012483145003022517F582EA8DF0A4A8F0EA8EF0A476
:2022D70028F8E435F0F9EB8DF0A428E935F0F9E433CA8FF0A429F9EA35F0FAEBF88EF0A456
:2022F70029F9EA35F0FAE433FBEC8DF0A429F9EA35F0FAE43BFBE88FF0A42AFAEB35F0FBFE
:20231700E433CCFD8EF0A42AFAEB35F0FBE43CFCED8FF0A42BFBEC35F0FC20E7031223686F
:032337000224E09D
:20233A00AA82AB83A2F73392D1F5826002D2F7ACF0E58124F9F8E6FD08E6FE0886F008E606
:0E235A00A2F73392D5F5836002D2F7AFF022DE
:0600B800E478FFF6D8FD1C
:202368007804EC7011E58224F8500AF582E4C9CACBFCD8EF22EC7820058220E713D5820174
:1323880022C3E933F9EA33FAEB33FBEC33FCD8EA15822282
:1F239B00AC82AD83AE23AF24BE0004EF600C1F0FE52212245BA3DEFADFF88C828D8322AC
:2023BA00AD82AE83AFF08D278E288F2985222A85232B85242CA825A9268803890418B8FFE6
:2023DA000119EB4C6025852A82852B83852CF01225F2FCA385822A85832B8D828E838FF03D
:1523FA00EC12245BA3AD82AE8380CE8527828528838529F022E2
:200096007917E94400601B7A0190277378CA7593FBE493F2A308B800020593D9F4DAF275B4
:0200B60093FFB6
:13240F00FCABF0AA83A982749EC2D1F5821223680224E00C
:202422007F9E12244930D103022501C3EF9582500974FFF5F0F583F58222790012260E89FF
:07244200828A838BF0EC227B
:12244900AA82AB83A2F73392D1F5826002D2F7ACF02298
:1B245B0020F71130F6138883A88220F509F6A8837583002280FEF280F5F02280
:1D247600E5828522F0A4C582C0F08523F0A4D0F025F0C5838522F0A42583F58322DA
:20249300E522452360467A01E52225E0F522E523334012F523E5829522E583952340030A46
:2024B30080E6C3E52313F523E52213F522C3E5829522F5F0E58395234005F58385F082C31F
:0D24D300E52313F523E52213F522DAE122BB
:2000BE007800E84400600A79007593F0E4F309D8FC78CAE8440B600C790C90F000E4F0A38E
:0400DE00D8FCD9FA77
:2024E000B98003EA13B34010EA2401FAE43BFBE43CFC50047C800582BC000EBB000BBA0040
:2025000008E4F5F0F583F58222A2D1E582138CF092F78B838A8222E4F583F58275F080F4FF
:0F252000A2D11322E4F583F58275F0C0747F22F7
:20252F0012233A30D502B2D1BF0009BC0003022524022517BC0003022501E583B4FF0BE591
:20254F0082B4FF03022524022501E582B4FF03022517C395835007247F400B02250124807A
:20256F00145003022517F582C3ED9AEE9BEF9C40111582C3EA33F9EB33FAEC33FBE433FCCC
:20258F008005E4CCCBCAF9C08275F019C3E99DEA9EEB9FEC9400D5F002802D400EE99DF98D
:2025AF00EA9EFAEB9FFBEC9400FCC3B3E833F8E58233F582E58333F583C3E933F9EA33FAED
:2025CF00EB33FBEC33FC80C4B3E4F938FAE43582FBE43583FCD082500405827C80122368BE
:0325EF000224F8CB
:0D00890075812C122651E58260030200866D
:1C25F20020F71430F6148883A88220F507E6A88375830022E280F7E49322E022F8
:20260E006040F82582500274FFF582E824F8501ECCCBCAF9E4CC24F85014CBCAF9E4CB24D4
:20262E00F8500BCAF9E4CA24F8500379002224086010F8C3EC13FCEB13FBEA13FAE913F987
:03264E00D8F1229E
:04265100758200226C
:00000001FF
