:0600000002008B02279AAA
:01000B0032C2
:0100130032BA
:03001B00021915B2
:0100230032AA
:01002B0032A2
:03003300021C5557
:01003B003292
:01004300328A
:03004B00022EEF93
:030053000206AAF8
:03005B0002098E09
:01006300326A
:03006B00021C561E
:03007300021A105E
:01007B003252
:03008300022AAEA0
:0301010002008673
:030086000218D984
:20010400AF83E58290F554F0EFA3F075E10490DF3BE0FFBF01F890F554E0FEA3E0FF90DFB4
:2001240006EEF075E10290DF3BE0FFBF0DF8227E007F0090FD98E0FCA3E0FD8E028F03C3AD
:20014400EA9CEB9D503AEE2400FCEF34F0FD90FD96E0F514A3E0F5158A828B83C007C006A5
:20016400C005C004123424AA82AB83D004D005D006D0078C828D83EAF00EBE00B60F80B31C
:2001840022E58290F556F0FFE59CC39FF59CE59C24FAF59C439E10D2BA22AF9E74EF5FF5C1
:2001A4009E22AF83E58290F55AF0EFA3F090FD91E060139035E612218890FD91E0F5821233
:2001C40021CA7582EF2290FD917406F090DF3BE0FFBF130280F6C2A490F557E0FEA3E0FF2B
:2001E40090FDF8EEF0EFA3F090FDF274F1F0E4A3F090FD887472F074F3A3F090FDF0E4F095
:20020400E4A3F090FDA3E4F090FDECF090FDA2F090FDEE7401F0E4A3F090FDED7402F09010
:20022400F55CE4F090000012034590F55AE0FEA3E0FF90F559E0FD7B007C008D017A00C3EF
:20024400EB99EC9A50548B02EA75F0F0A42EF9E43FFA90F55C74F0F089828A83C007C0065E
:20026400C005C004C003120345AA82D003D004D005D006D007EA601B903638C0021221889F
:20028400D00290FD91E4F08A82C0021221CAD0028A82220BBB00A40C80A190FDFBE0FF309D
:2002A400E33390FDF8E0FEA3E0FFEE540F602690FDF8E0FEA3E053060F7F007410C39EFEB8
:2002C400E49FFF90FDF8E0FCA3E0FD90FDF8EE2CF0EF3DA3F090FDF8E0FEA3E0FF60209074
:2002E400FDF8E0FEA3E090DF02EEF090DF04E054FCF0E0FF4402F090FDFA7401F08012909F
:20030400FDF8E0FEA3E0FF90DF02EEF090FDFAE4F075E1037E607FEA90DF3BE0FDBD1302E1
:2003240080091EBEFF011FEE4F70EDD2A4EE4F700C90FDB67413F0903650122188758200EA
:2003440022AF83E58290F55DF0EFA3F090F55CE0FF240F500A9036611221887582FF22EF54
:20036400703E90FDA2E4F090FDA2E0FE90FDEDE0FDC3EE9D502190FDA2E075F0F1A4247206
:20038400F58274F335F0F583E4F090FDA2E0FE0E90FDA2EEF080D090FDA2E4F07582002276
:2003A40090FD91E0FE601DBE061E90FDA2E0601890DF3BE0FEBE1302800E90FD917407F0E5
:2003C4007582ED227582ED2290FDA2E075F0F1A42472FD74F335F0FE8D828E83E0600A90ED
:2003E400FDB67418F07582FE228D828E8374FFF090FDA2E075F0F1A42472FD74F335F0FE0A
:200404000DBD00010E7C0090F55DE0FAA3E0FB8A148B157516008F037F008B178F188D8217
:200424008E838CF0C007C00312334BD003D00790FDFBE0FE20E3030204EE90FDA2E075F093
:20044400F1A42472FD74F335F0FE0DBD00010E90FDCDEBF0EFA3F08D828E83123069AE825B
:2004640090F55CEEF090FDFBE0FF530704BF043F90FDA2E075F0F1A42472FD74F335F0FFCB
:200484000DBD00010F8E037C0090FDFBE0FA5302F090FDD1EDF0EFA3F090FDD3EBF0ECA343
:2004A400F090FDD5EAF08D828F831230A3803B90FDA2E075F0F1A42472FD74F335F0FF0D17
:2004C400BD00010F7C0090FDFBE0FB5303F090FDD8EDF0EFA3F090FDDAEEF0ECA3F090FD11
:2004E400DCEBF08D828F831230EC90FDA2E075F0F1A42472FE74F335F0FF90F55CE0FD8E7E
:20050400828F83F090FDA2E0FF0F90FDA2EFF090FDEDE0FEEFB5060590FDA2E4F075820027
:2005240022AF83E58290F55FF0EFA3F090FD91E0FF6014BF0102800F90367B12218890FD5B
:2005440091E0F5821221CA12019E90FD9AE4F0E4A3F090FD9AE0FEA3E0FF8E828F831206CE
:200564002990DF3BE0FFBF0DF890DF3AE0FF53077FBF6000402790FD9AE0FEA3E0FF0EBEC7
:2005840000010F90FD9AEEF0EFA3F0D2A490000A122D63C2A490000A122D6380B590FD9119
:2005A4007402F090FDB7E0FCA3E0FDA3E0A3E090FD9CECF0EDA3F090F55FE0FEA3E0FF90D2
:2005C400FDA0EEF0EFA3F02290FD91E4F090FDB7E0FCA3E0FDA3E0A3E090FD9CECF0EDA3CB
:2005E400F02290FD917404F090FDB7E0FCA3E0FDA3E0A3E090FD9CECF0EDA3F02290FD91F4
:200604007405F090FDA4E4F0E4A3F090FDB7E0FCA3E0FDA3E0A3E090FD9CECF0EDA3F07551
:200624008200020185AF83E58290F561F0EFA3F090F561E0FEA3E0FFEE2400F582EF34F0D9
:20064400F583E0FF7E008F828E83020104AF83E58290F563F0EFA3F090F563E0FEA3E0FF5D
:2006640090F370EEF0EFA3F0222290FD9AE0FEA3E0FF0EBE00010F90FD9AEEF0EFA3F0C332
:20068400EE9470EF9403400890FD9AE4F0E4A3F090FD9AE0FEA3E0FFEE2400F582EF34F001
:2006A400F583E0F58222C021C0E0C0F0C082C083C007C006C005C004C003C002C001C00073
:2006C400C0D075D00090FD8DE02401F0A3E03400F090FD92E0FEA3E0FF90FD8DE0FCA3E093
:2006E400FDECB5060CEDB5070890FD8DE4F0E4A3F090FD8DE0FEA3E0FFBE0005BF000280B2
:200704000BBE0105BF0002806902087290FD8DE0FEA3E08E077E00AC9C7D00EC4206ED422A
:200724000790FD9EEEF0EFA3F090FD9AE0FEA3E0FF0EBE00010F90FD9AEEF0EFA3F090FDAC
:2007440098E0FCA3E0FDC3EE9CEF9D400890FD9AE4F0E4A3F090DF3BE0FFBF130302097134
:2007640090FD9AE0FEA3E0FF8E828F8312062902097190FD91E0FFBF0502800302097190BD
:200784000019122D6390F567741CF090FD9AE0FEA3E090F568EEF090FD9AE0A3E090F56963
:2007A400F090F56A7442F090F56B744CF090F56C7441F090F56D7448F090F56E7442F090B3
:2007C400F56F744CF090F5707441F090F5717448F090F5727442F090F573744CF090F57487
:2007E4007441F090F5757448F090F5767442F090F577744CF090F5787441F090F579744801
:20080400F090F57A7442F090F57B744CF090F57C7441F090F57D7448F090F57E7442F09002
:20082400F57F744CF090F5807441F090F5817448F090F5827420F090FDA6741CF0E4A3F07F
:2008440090FDA8E4F0E4A3F090FDAAE4F0E4A3F090F56812241D90FDA4E0FEA3E0FF0EBEF5
:2008640000010F90FDA4EEF0EFA3F002097190FD91E0FFBF03028065BF04028008BF05029E
:20088400800302097190FD9CE0FEA3E0FF90FDB7E0FAA3E0FBA3E0FCA3E0FD8E008F01E42F
:2008A400FEFFEAC398FAEB99FBEC9EFCED9FFDC374649AE49BE49CE49D50229036A91221A1
:2008C4008890FD917405F090FDB7E0FCA3E0FDA3E0FEA3E0FF90FD9CECF0EDA3F090FDA3AD
:2008E400E075F0F1A42472FE74F335F0FF8E828F83E06079900019122D6390FDA3E075F060
:20090400F1A42472FE74F335F0FF90DF04E05401FDB40100E4332EFDE43FFC8E828F83E062
:2009240090FDA6F0E4A3F090FDA8E4F0E4A3F090FDAAE4F0E4A3F08D828C8312241D90FD19
:20094400A3E075F0F1A42472F58274F335F0F583E4F090FDA3E0FF0F90FDA3EFF0BF020043
:20096400400590FDA3E4F09036C7122188D0D0D000D001D002D003D004D005D006D007D0D6
:2009840083D082D0F0D0E0D021323290FD91E4F090FDA2F090FDA3F090FD9AF0E4A3F0906A
:2009A400FD967453F0E4A3F090FD987453F0E4A3F090FD9EE4F0E4A3F090FD9CE4F0E4A325
:2009C400F090FD927406F0E4A3F090FD94E4F0E4A3F090FDA0E4F0E4A3F090FDA4E4F0E456
:2009E400A3F012013390FD91E4F0759DDC859E9E439E0443CB102202098F900E24121C5872
:200A040090FDB7E4F0E4A3F0E4A3F0E4A3F01209FB90F583E4F090F5847482F074F9A3F074
:200A24002290FD91E0FFBF0003020D59BF0103020C2ABF0203020B28BF0303020D59BF0485
:200A440003020D59BF0503020D3ABF060122BF40028006BF410280412275E10490DF3BE0DF
:200A6400FFBF01F890DF0374E5F090DF047404F090DF077412F090DF08E4F090DF147410E7
:200A8400F090DF17E0FF44C0F090FD917441F090F5847482F074F9A3F090F583E4F090FDEE
:200AA400A4E0FEA3E0FF90F583E0FDFB7C00C3EB9EEC9F504590DF06EDF075E10490DF3B10
:200AC400E0FFBF01F875E10290DF3BE0FFBF0DF8900002122D6390F584E0FEA3E0FF90F5B4
:200AE40083E02EFEE43FFF90DF3AE0FD8E828F83F090F583E02401F080A475E10490DF3B84
:200B0400E0FFBF01F890FDA4E0FEA3E08E2F75300090F584E0F531A3E0F532752E017582F2
:200B240043021C06E50F7003020C1890FDB5740DF0AF9A74FE5FF59AE50F20E403020C1840
:200B440090FD917403F090FD8FE0FEA3E08E821201859036D512218890FD8FE0FEA3E0FF15
:200B64008E828F831221E590F981E025E0FEE42482FFEE34F9FE8F828E8312218890F981C1
:200B8400E0FFB40100E433FF90F583F0EF2486FDE434FDFE8D828E83E0707290DF04E0FED3
:200BA40030E0378F06EE2EFDE42482F582ED34F9F583E0FE8E2F7530008F06EE2EFDE424B3
:200BC40082FEED34F9FD74012EF531E43DF532752E01758242121C06802290DF02E0FE8ED9
:200BE4002FE4F530EF2FFEE42482FFEE34F9FE8F318E32752E01758242121C0690F583E082
:200C0400FF2486F582E434FDF5837401F0AF0F74EF5FF50FD20010AF02C200750F00A200BF
:200C240092AF439A0122E50F7003020D2890FDB5740DF0AF9A74FE5FF59AE50F20E4030278
:200C44000D2890F981E0FF90F583B40100E433F09036EA12218890F583E025E0FEE42482CE
:200C6400FFEE34F9FE8F828E831221E590F583E025E0FEE42482FFEE34F9FE8F828E83125D
:200C8400218890F981E0FFB40100E433FF90F583F0EF2486FDE434FDFE8D828E83E0707270
:200CA40090DF04E0FE30E0378F06EE2EFDE42482F582ED34F9F583E0FE8E2F7530008F0682
:200CC400EE2EFDE42482FEED34F9FD74012EF531E43DF532752E01758242121C0680229004
:200CE400DF02E0FE8E2FE4F530EF2FFEE42482FFEE34F9FE8F318E32752E01758242121C22
:200D04000690F583E0FF2486F582E434FDF5837401F0D20010AF02C200AF0F74EF5FF50FF6
:200D2400A20092AFD20010AF02C200750F00A20092AF439A012290FDA4E0FEA3E0FF90FDF2
:200D440098E0FCA3E0FDC3EE9CEF9D50012290FD917404F022E50F70012290FDB5740DF06D
:200D6400E50F543070012290F981E0FFB40100E433FF90F583F0EF2486FDE434FDFE8D8200
:200D84008E83E06003020E1190DF04E0FE30E0378F06EE2EFDE42482F582ED34F9F583E021
:200DA400FE8E2F7530008F06EE2EFDE42482FEED34F9FD74012EF531E43DF532752E017558
:200DC4008242121C06803590FDE7E0FE600A90FDEAE0FDA3E0FE800890DF02E0FCFD7E0081
:200DE400EF2FFCE42482FFEC34F9FC8F318C32752E018D2F8E30758242121C0690F583E046
:200E0400FF2486F582E434FDF5837401F0D20010AF02C200AF0F74CF5FF50FA20092AF22FE
:200E240090F949E0FDA3E0FEA3E0FF90F94EE0FCBC420280030217AF90F94FE0FC24BE5018
:200E4400030217A1EC240A83F582EC244683F583E473A1A12A66A1DF8BA9BCF52E53963592
:200E6400A1A1EE6D94072C3FB31F54A1A1A1A1A1A1A1068FD6C4E7A1A1A1A1A1A1A1A1A17F
:200E8400A1A1A1A1A1A1A1A1A1A1A1A1A1A1A1A1A1A1DA1417170F11170F10101010111138
:200EA40011121717141515161616161415171717171717171717161515171717171717176E
:200EC40017171717171717171717171717171717171717170E0FC007C006C00512019ED052
:200EE40005D006D00790FD917440F08D828E838FF0123583FC7B0090FDA4ECF0EBA3F0907F
:200F0400F959EDF0EEA3F0758201121C5F0217AF90FD91E4F090F959EDF0EEA3F0758201A6
:200F2400121C5F0217AF90FD91E060099037041221880217AF8D828E838FF0123583FC7BC3
:200F44000090F586ECF0EBA3F08D828E83A3E0FAE42CFCEA3BFB90F586ECF0EBA3F08D82EB
:200F64008E83A3A3A3A3E0FA8A087509008D828E83A3A3A3A3A3E0FAE42508F508EA350987
:200F8400F50990FD8AE4F0E4A3F074062DF9E43EFA90FDA6ECF0EBA3F090FDA8E4F0E4A314
:200FA400F090FDAAE508F0E509A3F089828A83C007C006C00512241DAC82D005D006D0073B
:200FC4008D828E838FF0EC1233EC90F959EDF0EEA3F0758201121C5F0217AF8D828E838F15
:200FE400F012358390FDEAF0E4A3F08D828E83A3E0FB7C0090FDEAE0F9A3E0FA90FDEAEC0B
:2010040029F0EB3AA3F090FDEAE0FBA3E0FC4B604090FDE77401F090FDE8E0FBA3E0FC4B4C
:20102400704612235290FDEAE0FBA3E0FC90FDE8EBF0ECA3F090FDE8E0FBA3E090DF02EBA0
:20104400F090DF04E054FCF0E04402F012230E801790FDE7E4F090FDE8F0E4A3F090FDEA7E
:20106400E4F0E4A3F012235290F94EE0FC90F94FE0F52E7531EA7532FD752F017530008C02
:2010840082121C060217AF8D828E838FF012358390FDFBF090F959EDF0EEA3F075820112A3
:2010A4001C5F0217AF90F95974FBF074FDA3F0758201121C5F0217AF90FDFBE0FC5304F0AC
:2010C40090FDC97406F090FDCAECF08D828E838FF0C007C006C005123011D005D006D00753
:2010E40090F959EDF0EEA3F0758210121C5F0217AF90FDFBE0FC5304F090FDC97404F09057
:20110400FDCAECF08D828E838FF0C007C006C005123011D005D006D00790F959EDF0EEA312
:20112400F0758210121C5F0217AF8D828E838FF012358390FDFCF090FDFCE05401F090F946
:2011440059EDF0EEA3F0758201121C5F0217AF90F95974FCF074FDA3F0758201121C5F02BA
:2011640017AF8D828E838FF0123583FC7B008C828B83C007C006C005120651D005D006D073
:201184000790F959EDF0EEA3F0758201121C5F0217AF90FD91E0601C8D828E838FF074EF3B
:2011A4001233EC90F959EDF0EEA3F0758201121C5F0217AF8D828E838FF0123583FC7B008D
:2011C40090F586ECF0EBA3F08D828E83A3E0FAE42CFCEA3BFB90F586ECF0EBA3F08D828EDB
:2011E40083A3A3E0FA90FD8AE4F0E4A3F074032DF8E43EF990F557ECF0EBA3F090F559EA31
:20120400F088828983C007C006C0051201A6AC82D005D006D0078D828E838FF0EC1233EC4D
:2012240090F959EDF0EEA3F0758201121C5F0217AF8D828E838FF0123583FB7C0090F58632
:20124400EBF0ECA3F0EB4C600302133090FDF8E0F9A3E0FA49601C90DF3BE0FABA131490BC
:201264000028C007C006C005122D63D005D006D00780D990FDF8E0F9A3E0FA49606B9037BD
:2012840029C007C006C00512218890FDF8E0F9A3E0FA89828A831221E590F372E0F58212AB
:2012A40021CA90F463E0F5821221CAD005D006D00790FDB67412F08D828E838FF074EC12B8
:2012C40033ECC2A4C007C006C0051222E9D005D006D00790FD91E4F090F959EDF0EEA3F062
:2012E400758201121C5F0217AFC2A490FD91E4F08D828E838FF0E41233EC90373DC007C006
:2013040006C00512218890FD8AE0F9A3E0FA89828A831221E5D005D006D00790F959EDF065
:20132400EEA3F0758201121C5F0217AF90FD91E0FABA0602806190374DC007C006C00512C8
:201344002188D005D006D00790FDB6E0FABA121B8D828E838FF074EC1233EC90F959EDF06B
:20136400EEA3F0758201121C5F801F90FDB67417F08D828E838FF074EF1233EC90F959ED04
:20138400F0EEA3F0758201121C5FC2A41222E990FD91E4F00217AF74012DF9E43EFA90F5DA
:2013A4005CEBF089828A83C007C006C005120345AC82D005D006D0078D828E838FF0EC12E1
:2013C40033EC8D828E838FF0123583FBEC603BBBFE028036903756C007C006C00512218864
:2013E400D005D006D0078D828E838FF0123583F582C007C006C0051221CAC2A41222E9D0E5
:2014040005D006D00790FD91E4F090F959EDF0EEA3F0758201121C5F0217AF8D828E838FE8
:20142400F0123583FB7C0090F586EBF0ECA3F0C374F09BE49C501990366112218890F959A3
:201444007486F074F5A3F0758201121C5F0217AF90FDA2E075F0F1A42472F974F335F0FA37
:2014640089828A83E0601990376312218890F9597486F074F5A3F0758201121C5F0217AFFD
:201484008B0089828A83E8F090FDA2E075F0F1A42472F974F335F0FA09B900010A890A8AC5
:2014A4000B750C0074012DF9E43EFA89148A157516008B178C18850A82850B83850CF01221
:2014C400334B90FDA2E0FC0C90FDA2ECF0BC0200400590FDA2E4F090F9597486F074F5A38A
:2014E400F0758201121C5F0217AF8D828E838FF0123583FC7B0090FD96ECF0EBA3F090FDC1
:2015040096E0F9A3E0FAC374709C74039B402E74022DFBE43EFC8B148C1575160089178A67
:201524001890F00075F00012334B90F9597496F074FDA3F0758202121C5F0217AF90F9590A
:201544007484F07437A3F0758208121C5F0217AF90FD96E0FBA3E090F9597400F074F0A33F
:20156400F08B82121C5F0217AF12066E7B008B8312062990FD9AE0FBA3E0FC90F959EB2453
:2015840000F0EC34F0A3F0758201121C5F0217AF8D828E838FF0123583FC7B008C828B836B
:2015A400C007C006C005120104D005D006D00790F959EDF0EEA3F0758201121C5F0217AFAF
:2015C400758200C007C006C005120185D005D006D00790F959EDF0EEA3F0758201121C5FDF
:2015E4000217AFC007C006C00512019ED005D006D00790F959EDF0EEA3F0758201121C5FD5
:201604000217AF8D828E838FF0123583FC7B0090FD92ECF0EBA3F090F959EDF0EEA3F075F0
:201624008201121C5F0217AF90F9597492F074FDA3F0758204121C5F0217AF8D828E838FF3
:20164400F0C007C006C005122147D005D006D0078D828E838FF0123583F582C007C006C01B
:20166400051221CAD005D006D0077B917CFD7A008D828E838FF0123583F8790088148915CF
:201684007516007517157518008B828C838AF0C007C006C00512334BD005D006D00790F90A
:2016A40059EDF0EEA3F0758215121C5F0217AF90FD8DE0FBA3E0FC90FD94EBF0ECA3F0908F
:2016C400F9597491F074FDA3F0758215121C5F0217AF8D828E838FF0123583FC7B008C826C
:2016E4008B83C007C006C005120525D005D006D00790F959EDF0EEA3F0758201121C5F0201
:2017040017AF90FDB7E0F9A3E0FAA3E0A3E090FD9CE9F0EAA3F08D828E838FF0123583FC7B
:2017240090FD91F090FD91E0FBEC24FA404DEB2B2B9017397302174B02174B02174B02172E
:201744006D02176D02175CC007C006C00512019ED005D006D0078023C007C006C00512068B
:2017640001D005D006D0078012758200C007C006C005120185D005D006D00790F959EDF02E
:20178400EEA3F0758201121C5F802090F9597491F074FDA3F0758201121C5F800E90F959CF
:2017A400EDF0EEA3F0758201121C5F9000002222229000002290DF2FE4F090DF30F090DF2A
:2017C40031F090DF00740CF090DF01744EF090DF0274FFF090DF037440F090DF04E4F09022
:2017E400DF05F090DF06F090DF077406F090DF08E4F090DF097424F090DF0A743AF090DFFB
:201804000B74F1F090DF0C74CAF090DF0D74A3F090DF0E7401F090DF0F7423F090DF10745E
:2018240011F090DF117436F090DF127407F090DF13740FF090DF147418F090DF157417F0AA
:2018440090DF16746CF090DF177403F090DF187440F090DF197491F090DF1A7456F090DFE8
:201864001B7410F090DF1C74E9F090DF1D742AF090DF1EE4F090DF1F741FF090DF237488E3
:20188400F090DF247431F090DF257409F090DF2E74C0F090DF07740CF090DF097425F090F3
:2018A400DF0A7495F090DF0B7455F090DF1A74B6F090DF1B7410F090DF1C74EAF090DF1D09
:2018C400742AF090DF1EE4F090DF1F741FF022122EAD022ED91218D3D2A4D2A312222FC2DF
:2018E400A3122F16C2A4121B261223891209FE121C00D2AF121C57D2A4900002122D63C2BA
:11190400A490000A122D63D2A4121B6E120A2580F828
:2035E60043616E6E6F742063616C6C207472616E736D69745F6C6F6E67207768696C6520AC
:203606004648535320486F7070696E67206F7220616C72656164792070726F6365737369F0
:203626006E67207472616E736D69745F6C6F6E6721004D41435F747828292072657475722E
:203646006E6564206572726F72006E6576657220656E746572656420545800464853537844
:203666006D6974206D65737361676520746F6F206C6F6E670046485353207374617465201E
:20368600656E746572696E672053594E4348494E472066726F6D2077726F6E6720737461BC
:2036A60074650053594E43485F4D4153544552202D3E2053594E43494E474D4153544552E9
:2036C6000046485353786D697420646F6E65006E6574776F726B207061636B657428737972
:2036E6006E6329006E6574776F726B207061636B657428646973636F76657279290063722A
:2037060061702C20706C65617365207573652046485353786D6974282920696E7374656194
:2037260064210064726F706F75742066696E616C20776169742100746F74616C206279743E
:2037460065732074783A00756E64657272756E00627566666572206572726F7200737469BE
:203766006C6C2077616974696E67206F6E20746865206C617374207061636B6574004E4FF1
:06378600204445414C0007
:1800E400752200752300752400752500752600752700752A00752B002C
:20191500C021C0E0C0F0C082C083C007C006C005C004C003C002C001C000C0D075D000AF5C
:20193500F9E529700FBF990C85252B752901852BF90219F37401B5292C8F2A7522008F051A
:201955007E00ED24FEFDEE34FFFE90F94CEDF0EEA3F0E52A7004E52B600575290280037506
:2019750029000219F37402B5290280030219F3C3E522952A5068E522700790F94EEFF0803F
:20199500337401B5220790F94FEFF0802790F949E0FCA3E0FDA3E0FEAA227B00EA24FEFA52
:2019B500EB34FFFBEA2CFCEB3DFD8C828D838EF0EF1233EC0522E52AB52206752A007528B7
:2019D50001E52B7006E52A7002F529E528600F90F952E04402F0D2A3121C90752800D0D0EF
:2019F500D000D001D002D003D004D005D006D007D083D082D0F0D0E0D02132C0E0C082C05C
:201A150083C007C0D075D000AFE874FB5FF5E87401B5290280057402B52942E52B6039E552
:201A3500256035152BE52B7006E52A7002F529E5272464F582E434F6F583E0F5F91525E5F4
:201A550025700890F952E054FEFFF0052774242527500D752700800875F999800375F999B6
:201A7500D0D0D007D083D082D0E03222AF8274242525500D15250527742425275003752788
:201A950000E5262464F582E434F6F583EFF00526742425265003752600052590F952E0449D
:201AB50001F022E52870047582FF22E5242488F582E434F5F583E0F58222E52870047582C3
:201AD500FF22E5242488F582E434F5F583E0FF05247424252450037524001522E52270029A
:201AF500F5288F8222AF8874F75FF588D2ABAFE874FB5FF5E8439A0822AF8874F75FF588BF
:201B1500C2ABAFE874FB5FF5E8AF9A74F75FF59A22AFF174FE5F4402F5F143F4F0AFFE7458
:201B35000F5FF5FEAFF8747F5F4420F5F875FA3BE5FC75FC0BAF8874F75FF588D2ABAFE84C
:201B550074FB5FF5E8439A0890F9497440F074F7A3F0E4A3F07529002222AD82AE83AFF014
:201B7500C007C006C005121ACFAC82D005D006D0078C03BC0A0280118D828E838FF0EB12CF
:201B950033ECA3AD82AE8380D78D828E838FF0E40233ECAFF0AE83E58290F956F0EEA3F08C
:201BB500EFA3F090F956E0FDA3E0FEA3E0FF8D828E838FF0123583FC60230DBD00010E907E
:201BD500F956EDF0EEA3F0EFA3F08C82C007C006C005121A81D005D006D00780D190F95602
:201BF500EDF0EEA3F0EFA3F0021A80021AFA021B0E121A81852E82121A81852F82121A81A1
:201C1500AE31AF32AC2FAD30EC4D60278E828F83E0FBA3AE82AF838B82C007C006C005C056
:201C350004121A81D004D005D006D0071CBCFF011D80D5758200121A81121A80900000223C
:201C550032322285822C85832D22E58290F95BF090F952E054FDF090F94EE0FF90F94FE0BA
:201C7500F52E90F95BE0FE8E2F75300090F959E0F531A3E0F5328F82021C0690F952E0FF87
:201C950020E1012290F949E0FDA3E0FEA3E0FF74022DFDE43EFE90F95CEDF0EEA3F090F9CD
:201CB5004CE0FBA3E0FCEB24FEFBEC34FFFC90F94CEBF0ECA3F090F94EE0F53974FFB539D1
:201CD50002800302211F90F94FE0FBBB80005003022101EB246F5003022101EB2480FA2421
:201CF5000A83F582EA241583F583E47323B64C8969A0C101EFD801010101578BE81D1D1FEF
:201D15001F1E1F1F211F1F212121212020208D828E838FF0123583FA74012DF535E43EF5AA
:201D3500368A3775380090F950E537F0E538A3F0853582853683E0F53574022DF539E43EDE
:201D5500F53AA9358902E42537F537EA3538F53890F950E537F0E538A3F0853982853A83CF
:201D7500E0F88D828E83A3A3A38833753400E0FAE42533F533EA3534F5348533318534327B
:201D950090F94EE0FA90F94FE0F52E85372F8538308A82121C0690F950E4F0E4A3F0022143
:201DB500178D828E838FF0123583FA8D828E83A38A33753400E0FA74022DF539E43EF53A6F
:201DD5008A018902E42533F533EA3534F534A833AA3490F954E8F0EAA3F090F94CE0F9A3BC
:201DF500E0FAE924FEF533EA34FFF534853337853438E5374538603D90F954E0F535A3E0FB
:201E1500F53674012535F9E43536FA90F954E9F0EAA3F0853982853A83E0FAA3858239857A
:201E3500833A853582853683EAF0153774FFB53702153880BD90F94EE0FA90F94FE0F52EB9
:201E55007531507532F9752F027530008A82121C0602211790F952E0FA20E23C8D828E83FF
:201E75008FF0123583FA8D828E83A38A33753400E0FA90F95C74022DF0E43EA3F08A0189C6
:201E950002E4F92533F533EA3534F534A833AA3490F954E8F0EAA3F090F950E0F9A3E0FA38
:201EB50089338A34C374409533E495345006753340753400E9C39533F9EA9534FA90F950CD
:201ED500E9F0EAA3F090F95CE0F537A3E0F53885333985343AE539453A603D90F954E0F526
:201EF50035A3E0F53674012535F9E43536FA90F954E9F0EAA3F0853782853883E0FAA38526
:201F15008237858338853582853683EAF0153974FFB53902153A80BD90F94EE0FA90F94F99
:201F3500E0F52E7531507532F9752F027530008A82121C06022117D2A4900002C007C00699
:201F5500C005122D63C2A4900002122D63D005D006D00790F94EE0FA90F94FE0F52E90F9D4
:201F75004CE0F52FA3E0F5308D318E328A82121C060221177531A47532378B2E752F0D7555
:201F95003000853982121C0602211790FDB7E0F8A3E0F9A3E0A3E0883189328B2E752F04DB
:201FB500753000853982121C060221177531957532378B2E752F0F753000853982121C061B
:201FD50002211775318C7532378B2E752F09753000853982121C060221178D828E838FF04A
:201FF500123583FC74012DF9E43EFABC0202800ABC03028021BC0429800DC002C001122375
:202015000ED001D002801AC2A4C002C001122352D001D002800BC002C00112232BD001D03E
:202035000290F94EE0FC90F94FE0F52E90F94CE0F52FA3E0F53089318A328C82121C0602C0
:20205500211790F9507401F0E4A3F07531367532DF90F94EE0FC90F94FE0F52E90F950E0D5
:20207500F52FA3E0F5308C82121C0690F950E4F0E4A3F00221178D028E048C017C0090FD28
:20209500BB74B2F07437A3F07480A3F07514097515008A8289838CF0C007C006C005122E53
:2020B5002AE5828583F0D005D006D00745F0705275C98090F94EE0FC90F94FE0F52E90F934
:2020D5004CE0F52FA3E0F5308D318E328C82121C06802F90FDB5E4F090FDB6F090F959ED6C
:2020F500F0EEA3F0758202121C5F801690F94CE0F52FA3E0F5308B2E8D318E328539821234
:202115001C0690F952E054FDF022E52C452D6019852C82852D83120089AE82AF83EE4F705C
:122135001090F952E054FDF02290F952E054FDFFF0224D
:20378C005344434376333330004558504C4F52455220723535333500554E494D504C454DB8
:1037AC00454E5445440052455345545F4E4F5700C7
:20214700AF83E58290F95EF0EFA3F090F95EE0FEA3E0FF7C007D008E028F038A828B83E02A
:20216700F9A3AA82AB83E960070CBC00EE0D80EB752EF08C2F8D308E318F327582FE021C46
:2021870006AF83E58290F960F0EFA3F090F960E0FEA3E0FF7C007D008E028F038A828B83C0
:2021A700E493F9A3AA82AB83E960070CBC00ED0D80EA8E318F32752EF08C2F8D307582FEAF
:2021C700021C06E58290F962F07531627532F9752EF1752F017530007582FE021C06AF83C1
:2021E700E58290F963F0EFA3F07531637532F9752EF2752F027530007582FE021C06AF8240
:20220700AE83ADF0FC90F965EFF0EEA3F0EDA3F0ECA3F07531657532F9752EF3752F047542
:0822270030007582FE021C0666
:0500FC00E4F50DF50E16
:20222F007E697FF98FD57E697FF98ED47E717FF98FD37E717FF98ED27514007515187516C5
:20224F000090F96975F00002332C7403B50D06E4B50E02800280047582FF22AE0DAF0E0534
:0A226F000DE4B50D02050E8E82226B
:202279001233A0AC82AD83AEF0FFC004C005C006C0079037BD75F086743D123228AC82ADE8
:2022990083AEF0FFE58124FCF581E4C0E0C0E074C0C0E07441C0E08C828D838EF0EF1234EB
:2022B900C0AC82AD83AEF0FFE58124FCF5818C828D838EF0EF1233B3AC82AD83AEF090DF60
:2022D90009EEF08D0390DF0AEBF090DF0BECF02275E10490DF3BE0FFBF01F890FD8CE0F519
:2022F900E190FD8CE0FFBF04012290DF3BE0FFBF010280ED2290FD8CE0FFBF02012290DFE1
:2023190013E054F0F0E0440FF090FD8C7402F002273C90FD8CE0FFBF03012290DF13E054E3
:20233900F0F0E0FF440AF090FD8C7403F075E10390DF3BE0FFBF13F82290FD8CE0FFBF047E
:20235900012290DF13E054F0F0AF9174EF5FF59175E10490DF3BE0FFBF01F8AF9B74FC5F6F
:20237900F59BAFE974EF5FF5E990FD8C7404F02290FD8FE4F0E4A3F090FD82E4F0E4A3F018
:2023990090FD84E4F0E4A3F053C6C7759D00859E9E439E0485A9A943B90190FD8C7404F0DB
:2023B90075140075150075160490F98275F00012332C1217B9D2A87591D175E900750F006C
:2023D900439A0175E10490DF3BE0FFBF01F8227E007F00C3EE94DCEF9405502490DF3CE0A4
:2023F900FD5450600490000122900032C007C006122D8BD006D00774322EFEE43FFF80D3FF
:2024190090000022AF83E58290FDACF0EFA3F090FDAEE4F090DF02E0FF90DF3BE0FEBE13F5
:2024390009A2A4B3920192A480EFC2A490FDFAE4F090FDA8E0FDA3E0FE90FDF0EDF0EEA30A
:20245900F090FDAAE0FBA3E0FC90FDF6EBF0ECA3F090FDA6E0F9A3E0FA90FDF2E9F0EAA397
:20247900F090FDF4E9C39BF0EA9CA3F090FDF4E0FBA3E0FC8D148E158B828C83C007C006BA
:20249900C005C002C001123407AB82AC83D001D002D005D006D00790FDF8EB29F0EC3AA3BB
:2024B900F0E94A705D90FDACE0FBA3E0FC8B828C83E0F8881075110090FDA6E510F0E51160
:2024D900A3F090DF04E0F8530003B800028018B8010280030225A490FDA674012510F0E4A3
:2024F9003511A3F00225A490FDAC74012BF0E43CA3F090FDA6E0FBA3E0FC90DF02EBF002C8
:2025190025A490DF04E0FC530403BC00028046BC010280030225A490FDACE0FBA3E0FC907C
:20253900FDAFE9F0EAA3F090FDB17401F0E4A3F08B828C83C007C002C001122D0ED001D012
:2025590002D00790FDACE0FBA3E0FC89008B828C83E8F08036ED4E602D90FDF8E0FDA3E016
:2025790090DF02EDF090DF04E054FCF090FDF8E0FDA3E0FE600890DF04E0FE4402F090FD02
:20259900FA7401F0800590DF02E9F0D2A890FDFBE0FE20E3030226D290DF04E0FE53060367
:2025B900BE010690FDAE7401F090FDAEE0FE90FDACE0FCA3E0FDEE2CFAE43DFB90FDA6E0AC
:2025D900F8A3E0F990FDCDE8F0E9A3F08A828B83C007C006C005C004123069AA82AB83D0BB
:2025F90004D005D006D00790FDFBE0F9530104B90448C007EE2CF8E43DF990FDFBE0FF53D1
:2026190007F090FDD1E8F0E9A3F090FDD3EAF0EBA3F090FDD5EFF088828983C007C006C09C
:2026390005C004C003C0021230A3D002D003D004D005D006D007D0078046C007EE2CF8E4F9
:202659003DF990FDFBE0FF5307F090FDD8E8F0E9A3F090FDDAEAF0EBA3F090FDDCEFF08832
:20267900828983C007C006C005C004C003C0021230ECD002D003D004D005D006D007D00718
:20269900EE601E90FDFBE0FE5306F0BE50098C828D837410F080228A068C828D83EEF080AF
:2026B9001890FDFBE0FE5306F0BE500890DF027410F0800590DF02EAF090FDACE0FDA3E0D6
:2026D900FE90FD88EDF0EEA3F090FDEEE4F0E4A3F075E1037D607EEA90DF3BE0FCBC1302B5
:2026F90080121DBDFF011EED4E6009A2A4B3920192A480E4D2A4ED4E700690FDB67413F08C
:2027190090DF3BE0FEBE1310A2A4B3920192A4C007121B6ED00780E8C2A490DF02EFF075A9
:20273900820122D2A875140075150075160290F98275F00012332C90FD82E4F0E4A3F090F6
:20275900FD84E4F0E4A3F090FD86E4F090FD877401F090F981E4F0AF9B74FC5FF59BAFE915
:2027790074EF5FF5E975E10290DF3BE0FFBF0DF84391102290FDFD7401F02290FDFDE4F086
:2027990022C021C0E0C0F0C082C083C007C006C005C004C003C002C001C000C0D075D00057
:2027B90090FDB57411F0C28990DF3BE0FFBF0D0280030228D9D2A490FDE7E0FF602790FD44
:2027D900E8E0FEA3E0FF90FDE8E024FFFCA3E034FFFD90FDE8ECF0EDA3F0EF700890DF04C6
:2027F900E0FF54FCF090FD8C7402F090F981E025E0FEE42482FFEE34F9FE90F981E075F044
:2028190002A42482FC74FD35F0FD8C828D83E0FAA3E0FB74012AF8E43BF98C828D83E8F0A9
:20283900E9A3F0EA2FF582EB3EF583E5D9F090F981E075F002A42482F58274FD35F0F58304
:20285900E0FEA3E0FF54FE701A90F981E075F002A42482F58274FD35F0F583E0FEA3E0FFA3
:202879004E701A90F981E0FF75F002A42482F58274FD35F0F58374FFF07401A3F090FDE868
:20289900E0FEA3E0FF4E6003022A9190FDE7E0FF7003022A9190FDEAE0FEA3E0FF90FDE882
:2028B900EEF0EFA3F090FDE8E0FEA3E090DF02EEF090DF04E054FCF0E0FF4402F0022A9115
:2028D90090DF3BE0FFBF13028003022A9190FDFAE0FF7003022A2290FD9EE0FEA3E0FF0E82
:2028F900BE00010F90FD9EEEF0EFA3F090FDEEE0FEA3E0FF90FDF2E0FCA3E0FDEEB5040603
:20291900EFB5050280030229F690FDF0E0FEA3E0FF4E603790FDF0E0FEA3E0FFBEFF05BF2F
:202939000002801490FDF0E024FFFEA3E034FFFF90FDF0EEF0EFA3F090FDF6E0FEA3E0FFF5
:2029590090FDEEEEF0EFA3F00229F690FDF2E0F514A3E0F51590FDECE0FF7E008F828E8375
:20297900123407AE82AF8390FD88E0FCA3E0FDEE2CF582EF3DF583E4F090FDECE02401F0A7
:2029990090FDECE0FF90FDEDE0FEEFB5060590FDECE4F090FDF2E0F514A3E0F51590FDEC04
:2029B900E0FF7E008F828E83123407AE82AF8390FD88E0FCA3E0FDEE2CFEEF3DFF8E828F7D
:2029D90083E0701090FD91E4F090FDB67412F01222E9C2A490FDEE7401F0E4A3F090FDF8F1
:2029F900E0FEA3E0FF90FDF8E024FFFCA3E034FFFD90FDF8ECF0EDA3F0BEFF21BF001E90FB
:202A1900DF04E0FF54FCF0801490FDF8E024FFFEA3E034FFFF90FDF8EEF0EFA3F090FD8CCE
:202A39007403F090FDF2E0F514A3E0F51590FDECE0FF7E008F828E83123407AE82AF8390EA
:202A5900FDEEE0FCA3E0FD90FDEEE02401F0A3E03400F0EC2EFEED3FFF90FD88E0FCA3E048
:202A7900FDEE2CF582EF3DF583E0F5D990FD8AE02401F0A3E03400F0D0D0D000D001D00297
:202A9900D003D004D005D006D007D083D082D0F0D0E0D02132C021C0E0C0F0C082C083C046
:202AB90007C006C005C004C003C002C001C000C0D075D00075120090FDB57410F0AE9B74D2
:202AD900FC5EF59BE5E9420FE5E930E02090FD8DE0FDA3E08D067D00AB9C7C0090FD8FED80
:202AF9004BF0EE4CA3F0AEE974FE5EF5E9E5E954707003022CAB90FD8CE0FEBE030AAE0F13
:202B1900748F5EF50F022CA490F981E0FEB40100E4332486F582E434FDF583E0FEBE010264
:202B39008003022C7690FDFBE0FE20E103022C4C90DF04E0FE530603BE010375120190FDED
:202B5900FBE0FE530601BE017690F981E025E0FDE42482FEED34F9FDAB127C00EB2EFEEC2D
:202B79003DFD90F981E0F929FAE42482F9EA34F9FAEB29FBEC3AFC90F981E075F002A4241E
:202B990082F58274FD35F0F583E0F9A3E0FAA8127F00E9C398F9EA9FFA90FDFBE0FF530705
:202BB900F090FDD1EBF0ECA3F090FDD3E9F0EAA3F090FDD5EFF08E828D831230A3807490D4
:202BD900F981E025E0FEE42482FFEE34F9FEAC127D00EC2FFFED3EFE90F981E025E0FAE492
:202BF9002482FBEA34F9FAEC2BFCED3AFD90F981E075F002A42482F58274FD35F0F583E0D3
:202C1900FAA3E0FBA8127900EAC398FAEB99FB90FDFBE0F95301F090FDD8ECF0EDA3F0903C
:202C3900FDDAEAF0EBA3F090FDDCE9F08F828E831230EC90F981E06401F090F981E0FF751D
:202C5900F002A42482F58274FD35F0F583E4F0E4A3F090FD86E4F090FD87F0802C90FDB675
:202C79007412F0A2A4B3920292A490F981E0FF75F002A42482F58274FD35F0F583E4F0E42B
:202C9900A3F0A2A4B3920292A4C2A4AFE974CF5FF5E9E5E930E61E90FDB67410F0A2A4B395
:202CB900920292A41222E9A2A4B3920292A4AFE974BF5FF5E9E5E930E71E90FDB67411F08E
:202CD900A2A4B3920292A41222E9A2A4B3920292A4AFE9747F5FF5E9D0D0D000D001D0025D
:202CF900D003D004D005D006D007D083D082D0F0D0E0D02132AF83E58290FDB3F0EFA3F00F
:202D190090FDB1E0FEA3E0FF90FDB3E0FCA3E0FD90FDAFE0FAA3E0FB8A008B011ABAFF01E2
:202D39001BE8496024EE2AF8EF3BF9E82CF8E93DF9EA2CF582EB3DF583C006C007E08882A8
:0A2D59008983F0D007D00680CF2256
:1737BC000000000000000100000000000000000000000000000000F5
:202D6300AE82AF831EBEFF011FC3E49EE464808FF063F08095F0500F7C4C7D041CBCFF018F
:202D83001DEC4D70F780DD22AE82E583CE25E0CE33FF1EBEFF011FC3E49EE464808FF0639F
:202DA300F08095F040EC22AE82AF83D2A49003E8C007C006122D63C2A49001F4122D63D0EE
:202DC30006D0071513AD13ED20E754EE30E024900019C007C006C005122D63D2A4900226F6
:202DE300122D63C2A4900019122D63D005D006D0078022900113C007C006C005122D63D2EF
:202E0300A4900032122D63C2A4900113122D63D005D006D007EFC313CE13CEFF1D80A8C2FF
:202E2300A49003E8022D63AFF0AE83E58290FDBEF0EEA3F0EFA3F090FDBEE0FDA3E0FEA31D
:202E4300E0FF90FDBBE0FAA3E0FBA3E0FCA814A915E8496051C000C0018D828E838FF012E3
:202E63003583F98A828B838CF0123583F8E9C398F516D001D000E5166010E516F51733951C
:202E8300E0F518851782851883220DBD00010E90FDBEEDF0EEA3F0EFA3F00ABA00010B18F6
:202EA300B8FF011980AB90000022AFBE74FB5FF5BEE5BE30E6FBAFC674B85FF5C6E5C62039
:202EC300E6FB43BE04E5BE30E6FB53C6C743E40C43E401D2B922AF9A74DF5FF59AA2AFE4AE
:202EE30033F452A843FF18C2A3C2A422C0E0C082C083C0D090FDB7E02401F0A3E03400F0D2
:132F0300A3E03400F0A3E03400F0D0D0D083D082D0E03246
:202F1600122259AF8290FDC5EFF08FF005F07401800225E0D5F0FB90FDC6F0EF75F008A439
:202F36002469FE74F935F0FF90FDC1EEF0EFA3F08E828F83A3A374DFF08E828F83A3A3A3FB
:202F560074B1F08E828F83A3A3A3A3A37410F074062EF582E43FF583E054E0441DF07407E7
:202F76002EF582E43FF583E0543F4440F074072EF582E43FF583E054FC4401F0122259AFB8
:202F96008290FDC7EFF08FF005F07401800225E0D5F0FB90FDC8F0EF75F008A42469FE74F2
:202FB600F935F0FF90FDC3EEF0EFA3F08E828F8374DFF08E828F83A374B2F08E828F83A329
:202FD600A3A3A3A37410F074062EF582E43FF583E054E0441EF074072EF582E43FF583E020
:202FF60054CF4410F074072EF582E43FF583E054FC4401F043A91043B91022AF83E58290E1
:20301600FDCBF0EFA3F0E5B330E3FB90FDC1E0FEA3E0FF90FDCBE0FCA3E0FD8C028D038BAF
:20303600028E828F83EAF090FDC1E0FEA3E0FF8E828F83A37D00ECF090FDC6E042D690FDD8
:20305600C9E0FF90FDCAE0FE4F4401F5B3E5B330E3FB22AF83E58290FDCFF0EFA3F090FD85
:20307600CFE0FEA3E0FF90FDCDE0FCA3E0FDEC540F60158C028D030CBC00010DEA2EF5820E
:20309600EB3FF583E4F080E68C828D8322AF83E58290FDD6F0EFA3F090FDD6E0FEA3E0FFCD
:2030B60090FDD1E0FCA3E0FD90FDD3E0FAA3E0FB90FDD5E0F990FDDFECF0EDA3F090FDE117
:2030D600EAF0EBA3F090FDE3E4F090FDE4E9F08E828F83023136AF83E58290FDDDF0EFA3E4
:2030F600F090FDDDE0FEA3E0FF90FDD8E0FCA3E0FD90FDDAE0FAA3E0FB90FDDCE0F990FDB1
:20311600DFECF0EDA3F090FDE1EAF0EBA3F090FDE37402F090FDE4E9F08E828F83023136ED
:20313600AF83E58290FDE5F0EFA3F0E5B330E3FB90FDE5E0FEA3E0FF90FDDFE0F51AA3E0A6
:20315600F51B90FDE4E0FB74505BF51990FDE3E0F94B4401FB740149F51890FDE1E0F514DA
:20317600A3E0F515E4F516F517C3E5169514E5179515400122C00390FDC1E0F8A3E0FBE5F5
:20319600162EF9E5173FFA89048A058D0488828B83ECF090FDC1E0FCA3E0FD8C828D83A39B
:2031B600E9F090FDC3E0FCA3E0FD8C828D83A3A3E516251AFCE517351BFD8C028D038B02E6
:2031D600EAF090FDC3E0FAA3E0FB8A828B83A3A3A3ECF090FDC8E0FD90FDC6E0FC4D42D6B2
:2031F600D003E5196017E51424F0FCE51534FFFDECB51609EDB517058518B380028BB3E5CB
:12321600B330E3FB74102516F516E43517F51702317F2D
:203228001232CBBC0003023492EF60FA30D502B2D1E583B4FF030234A8E582B4FF030234CE
:20324800A8258340072482400B02349224831450030234A8F582EA8DF0A4A8F0EA8EF0A404
:2032680028F8E435F0F9EB8DF0A428E935F0F9E433CA8FF0A429F9EA35F0FAEBF88EF0A4B5
:2032880029F9EA35F0FAE433FBEC8DF0A429F9EA35F0FAE43BFBE88FF0A42AFAEB35F0FB5D
:2032A800E433CCFD8EF0A42AFAEB35F0FBE43CFCED8FF0A42BFBEC35F0FC20E7031232F92F
:0332C8000234715C
:2032CB00AA82AB83A2F73392D1F5826002D2F7ACF0E58124F9F8E6FD08E6FE0886F008E666
:0E32EB00A2F73392D5F5836002D2F7AFF0223E
:0600BA00E478FFF6D8FD1A
:2032F9007804EC7011E58224F8500AF582E4C9CACBFCD8EF22EC7820058220E713D58201D4
:1333190022C3E933F9EA33FAEB33FBEC33FCD8EA158222E1
:1F332C00AC82AD83AE15AF16BE0004EF600C1F0FE5141233ECA3DEFADFF88C828D832295
:20334B00AD82AE83AFF08D198E1A8F1B85141C85151D85161EA817A9188803890418B8FFDF
:20336B000119EB4C6025851C82851D83851EF0123583FCA385821C85831D8D828E838FF041
:15338B00EC1233ECA3AD82AE8380CE851982851A83851BF022CB
:200098007917E94400601B7A019037BC78E77593FDE493F2A308B800020593D9F4DAF2753A
:0200B80093FFB4
:1333A000FCABF0AA83A982749EC2D1F5821232F90234712B
:2033B3007F9E1233DA30D103023492C3EF9582500974FFF5F0F583F58222790012359F897F
:0733D300828A838BF0EC22DB
:1233DA00AA82AB83A2F73392D1F5826002D2F7ACF022F8
:1B33EC0020F71130F6138883A88220F509F6A8837583002280FEF280F5F022E0
:1D340700E5828514F0A4C582C0F08515F0A4D0F025F0C5838514F0A42583F5832263
:20342400E514451560467A01E51425E0F514E515334012F515E5829514E583951540030A15
:2034440080E6C3E51513F515E51413F514C3E5829514F5F0E58395154005F58385F082C3D2
:0D346400E51513F515E51413F514DAE12252
:2000C0007800E84400600A79007593F0E4F309D8FC78E7E8440D600C790E90F000E4F0A36B
:0400E000D8FCD9FA75
:02008900E4731E
:20347100B98003EA13B34010EA2401FAE43BFBE43CFC50047C800582BC000EBB000BBA009F
:2034910008E4F5F0F583F58222A2D1E582138CF092F78B838A8222E4F583F58275F080F45F
:0F34B100A2D11322E4F583F58275F0C0747F2257
:2034C0001232CB30D502B2D1BF0009BC00030234B50234A8BC0003023492E583B4FF0BE571
:2034E00082B4FF030234B5023492E582B4FF030234A8C395835007247F400B02349224805A
:203500001450030234A8F582C3ED9AEE9BEF9C40111582C3EA33F9EB33FAEC33FBE433FC8B
:203520008005E4CCCBCAF9C08275F019C3E99DEA9EEB9FEC9400D5F002802D400EE99DF9EC
:20354000EA9EFAEB9FFBEC9400FCC3B3E833F8E58233F582E58333F583C3E933F9EA33FA4C
:20356000EB33FBEC33FC80C4B3E4F938FAE43582FBE43583FCD082500405827C801232F97D
:0335800002348989
:0D008B0075813A1235E2E5826003020086BD
:1C35830020F71430F6148883A88220F507E6A88375830022E280F7E49322E02257
:20359F006040F82582500274FFF582E824F8501ECCCBCAF9E4CC24F85014CBCAF9E4CB2434
:2035BF00F8500BCAF9E4CA24F8500379002224086010F8C3EC13FCEB13FBEA13FAE913F9E7
:0335DF00D8F122FE
:0435E20075820022CC
:00000001FF
